{
  "contractName": "TrotterNft",
  "abi": [
    {
      "inputs": [],
      "stateMutability": "nonpayable",
      "type": "constructor"
    },
    {
      "anonymous": false,
      "inputs": [
        {
          "indexed": true,
          "internalType": "address",
          "name": "account",
          "type": "address"
        },
        {
          "indexed": true,
          "internalType": "address",
          "name": "operator",
          "type": "address"
        },
        {
          "indexed": false,
          "internalType": "bool",
          "name": "approved",
          "type": "bool"
        }
      ],
      "name": "ApprovalForAll",
      "type": "event"
    },
    {
      "anonymous": false,
      "inputs": [
        {
          "indexed": false,
          "internalType": "uint256",
          "name": "id",
          "type": "uint256"
        },
        {
          "indexed": false,
          "internalType": "uint256",
          "name": "maxSupply",
          "type": "uint256"
        }
      ],
      "name": "CardAdded",
      "type": "event"
    },
    {
      "anonymous": false,
      "inputs": [
        {
          "indexed": true,
          "internalType": "bytes32",
          "name": "role",
          "type": "bytes32"
        },
        {
          "indexed": true,
          "internalType": "bytes32",
          "name": "previousAdminRole",
          "type": "bytes32"
        },
        {
          "indexed": true,
          "internalType": "bytes32",
          "name": "newAdminRole",
          "type": "bytes32"
        }
      ],
      "name": "RoleAdminChanged",
      "type": "event"
    },
    {
      "anonymous": false,
      "inputs": [
        {
          "indexed": true,
          "internalType": "bytes32",
          "name": "role",
          "type": "bytes32"
        },
        {
          "indexed": true,
          "internalType": "address",
          "name": "account",
          "type": "address"
        },
        {
          "indexed": true,
          "internalType": "address",
          "name": "sender",
          "type": "address"
        }
      ],
      "name": "RoleGranted",
      "type": "event"
    },
    {
      "anonymous": false,
      "inputs": [
        {
          "indexed": true,
          "internalType": "bytes32",
          "name": "role",
          "type": "bytes32"
        },
        {
          "indexed": true,
          "internalType": "address",
          "name": "account",
          "type": "address"
        },
        {
          "indexed": true,
          "internalType": "address",
          "name": "sender",
          "type": "address"
        }
      ],
      "name": "RoleRevoked",
      "type": "event"
    },
    {
      "anonymous": false,
      "inputs": [
        {
          "indexed": true,
          "internalType": "address",
          "name": "operator",
          "type": "address"
        },
        {
          "indexed": true,
          "internalType": "address",
          "name": "from",
          "type": "address"
        },
        {
          "indexed": true,
          "internalType": "address",
          "name": "to",
          "type": "address"
        },
        {
          "indexed": false,
          "internalType": "uint256[]",
          "name": "ids",
          "type": "uint256[]"
        },
        {
          "indexed": false,
          "internalType": "uint256[]",
          "name": "values",
          "type": "uint256[]"
        }
      ],
      "name": "TransferBatch",
      "type": "event"
    },
    {
      "anonymous": false,
      "inputs": [
        {
          "indexed": true,
          "internalType": "address",
          "name": "operator",
          "type": "address"
        },
        {
          "indexed": true,
          "internalType": "address",
          "name": "from",
          "type": "address"
        },
        {
          "indexed": true,
          "internalType": "address",
          "name": "to",
          "type": "address"
        },
        {
          "indexed": false,
          "internalType": "uint256",
          "name": "id",
          "type": "uint256"
        },
        {
          "indexed": false,
          "internalType": "uint256",
          "name": "value",
          "type": "uint256"
        }
      ],
      "name": "TransferSingle",
      "type": "event"
    },
    {
      "anonymous": false,
      "inputs": [
        {
          "indexed": false,
          "internalType": "string",
          "name": "value",
          "type": "string"
        },
        {
          "indexed": true,
          "internalType": "uint256",
          "name": "id",
          "type": "uint256"
        }
      ],
      "name": "URI",
      "type": "event"
    },
    {
      "inputs": [],
      "name": "DEFAULT_ADMIN_ROLE",
      "outputs": [
        {
          "internalType": "bytes32",
          "name": "",
          "type": "bytes32"
        }
      ],
      "stateMutability": "view",
      "type": "function",
      "constant": true
    },
    {
      "inputs": [],
      "name": "MINTER_ROLE",
      "outputs": [
        {
          "internalType": "bytes32",
          "name": "",
          "type": "bytes32"
        }
      ],
      "stateMutability": "view",
      "type": "function",
      "constant": true
    },
    {
      "inputs": [
        {
          "internalType": "address",
          "name": "account",
          "type": "address"
        },
        {
          "internalType": "uint256",
          "name": "id",
          "type": "uint256"
        }
      ],
      "name": "balanceOf",
      "outputs": [
        {
          "internalType": "uint256",
          "name": "",
          "type": "uint256"
        }
      ],
      "stateMutability": "view",
      "type": "function",
      "constant": true
    },
    {
      "inputs": [
        {
          "internalType": "address[]",
          "name": "accounts",
          "type": "address[]"
        },
        {
          "internalType": "uint256[]",
          "name": "ids",
          "type": "uint256[]"
        }
      ],
      "name": "balanceOfBatch",
      "outputs": [
        {
          "internalType": "uint256[]",
          "name": "",
          "type": "uint256[]"
        }
      ],
      "stateMutability": "view",
      "type": "function",
      "constant": true
    },
    {
      "inputs": [],
      "name": "cards",
      "outputs": [
        {
          "internalType": "uint256",
          "name": "",
          "type": "uint256"
        }
      ],
      "stateMutability": "view",
      "type": "function",
      "constant": true
    },
    {
      "inputs": [
        {
          "internalType": "uint256",
          "name": "",
          "type": "uint256"
        }
      ],
      "name": "circulatingSupply",
      "outputs": [
        {
          "internalType": "uint256",
          "name": "",
          "type": "uint256"
        }
      ],
      "stateMutability": "view",
      "type": "function",
      "constant": true
    },
    {
      "inputs": [
        {
          "internalType": "bytes32",
          "name": "role",
          "type": "bytes32"
        }
      ],
      "name": "getRoleAdmin",
      "outputs": [
        {
          "internalType": "bytes32",
          "name": "",
          "type": "bytes32"
        }
      ],
      "stateMutability": "view",
      "type": "function",
      "constant": true
    },
    {
      "inputs": [
        {
          "internalType": "bytes32",
          "name": "role",
          "type": "bytes32"
        },
        {
          "internalType": "address",
          "name": "account",
          "type": "address"
        }
      ],
      "name": "grantRole",
      "outputs": [],
      "stateMutability": "nonpayable",
      "type": "function"
    },
    {
      "inputs": [
        {
          "internalType": "bytes32",
          "name": "role",
          "type": "bytes32"
        },
        {
          "internalType": "address",
          "name": "account",
          "type": "address"
        }
      ],
      "name": "hasRole",
      "outputs": [
        {
          "internalType": "bool",
          "name": "",
          "type": "bool"
        }
      ],
      "stateMutability": "view",
      "type": "function",
      "constant": true
    },
    {
      "inputs": [
        {
          "internalType": "address",
          "name": "account",
          "type": "address"
        },
        {
          "internalType": "address",
          "name": "operator",
          "type": "address"
        }
      ],
      "name": "isApprovedForAll",
      "outputs": [
        {
          "internalType": "bool",
          "name": "",
          "type": "bool"
        }
      ],
      "stateMutability": "view",
      "type": "function",
      "constant": true
    },
    {
      "inputs": [
        {
          "internalType": "uint256",
          "name": "",
          "type": "uint256"
        }
      ],
      "name": "nfts",
      "outputs": [
        {
          "internalType": "string",
          "name": "name",
          "type": "string"
        },
        {
          "internalType": "string",
          "name": "ipfsHash",
          "type": "string"
        },
        {
          "internalType": "uint256",
          "name": "price",
          "type": "uint256"
        },
        {
          "internalType": "string",
          "name": "author",
          "type": "string"
        },
        {
          "internalType": "string",
          "name": "about",
          "type": "string"
        },
        {
          "internalType": "string",
          "name": "properties",
          "type": "string"
        },
        {
          "internalType": "string",
          "name": "statement",
          "type": "string"
        }
      ],
      "stateMutability": "view",
      "type": "function",
      "constant": true
    },
    {
      "inputs": [
        {
          "internalType": "bytes32",
          "name": "role",
          "type": "bytes32"
        },
        {
          "internalType": "address",
          "name": "account",
          "type": "address"
        }
      ],
      "name": "renounceRole",
      "outputs": [],
      "stateMutability": "nonpayable",
      "type": "function"
    },
    {
      "inputs": [
        {
          "internalType": "bytes32",
          "name": "role",
          "type": "bytes32"
        },
        {
          "internalType": "address",
          "name": "account",
          "type": "address"
        }
      ],
      "name": "revokeRole",
      "outputs": [],
      "stateMutability": "nonpayable",
      "type": "function"
    },
    {
      "inputs": [
        {
          "internalType": "address",
          "name": "from",
          "type": "address"
        },
        {
          "internalType": "address",
          "name": "to",
          "type": "address"
        },
        {
          "internalType": "uint256[]",
          "name": "ids",
          "type": "uint256[]"
        },
        {
          "internalType": "uint256[]",
          "name": "amounts",
          "type": "uint256[]"
        },
        {
          "internalType": "bytes",
          "name": "data",
          "type": "bytes"
        }
      ],
      "name": "safeBatchTransferFrom",
      "outputs": [],
      "stateMutability": "nonpayable",
      "type": "function"
    },
    {
      "inputs": [
        {
          "internalType": "address",
          "name": "from",
          "type": "address"
        },
        {
          "internalType": "address",
          "name": "to",
          "type": "address"
        },
        {
          "internalType": "uint256",
          "name": "id",
          "type": "uint256"
        },
        {
          "internalType": "uint256",
          "name": "amount",
          "type": "uint256"
        },
        {
          "internalType": "bytes",
          "name": "data",
          "type": "bytes"
        }
      ],
      "name": "safeTransferFrom",
      "outputs": [],
      "stateMutability": "nonpayable",
      "type": "function"
    },
    {
      "inputs": [
        {
          "internalType": "address",
          "name": "operator",
          "type": "address"
        },
        {
          "internalType": "bool",
          "name": "approved",
          "type": "bool"
        }
      ],
      "name": "setApprovalForAll",
      "outputs": [],
      "stateMutability": "nonpayable",
      "type": "function"
    },
    {
      "inputs": [
        {
          "internalType": "uint256",
          "name": "",
          "type": "uint256"
        }
      ],
      "name": "totalSupply",
      "outputs": [
        {
          "internalType": "uint256",
          "name": "",
          "type": "uint256"
        }
      ],
      "stateMutability": "view",
      "type": "function",
      "constant": true
    },
    {
      "inputs": [
        {
          "internalType": "uint256",
          "name": "",
          "type": "uint256"
        }
      ],
      "name": "uri",
      "outputs": [
        {
          "internalType": "string",
          "name": "",
          "type": "string"
        }
      ],
      "stateMutability": "view",
      "type": "function",
      "constant": true
    },
    {
      "inputs": [],
      "name": "contractURI",
      "outputs": [
        {
          "internalType": "string",
          "name": "",
          "type": "string"
        }
      ],
      "stateMutability": "view",
      "type": "function",
      "constant": true
    },
    {
      "inputs": [
        {
          "components": [
            {
              "internalType": "string",
              "name": "name",
              "type": "string"
            },
            {
              "internalType": "string",
              "name": "ipfsHash",
              "type": "string"
            },
            {
              "internalType": "uint256",
              "name": "price",
              "type": "uint256"
            },
            {
              "internalType": "string",
              "name": "author",
              "type": "string"
            },
            {
              "internalType": "string",
              "name": "about",
              "type": "string"
            },
            {
              "internalType": "string",
              "name": "properties",
              "type": "string"
            },
            {
              "internalType": "string",
              "name": "statement",
              "type": "string"
            }
          ],
          "internalType": "struct TrotterNft.nftMetadata",
          "name": "data",
          "type": "tuple"
        },
        {
          "internalType": "address",
          "name": "newOwner",
          "type": "address"
        },
        {
          "internalType": "uint256",
          "name": "maxSupply",
          "type": "uint256"
        },
        {
          "internalType": "uint256",
          "name": "initialSupply",
          "type": "uint256"
        }
      ],
      "name": "createNftCard",
      "outputs": [
        {
          "internalType": "uint256",
          "name": "",
          "type": "uint256"
        }
      ],
      "stateMutability": "nonpayable",
      "type": "function"
    },
    {
      "inputs": [
        {
          "internalType": "uint256",
          "name": "maxSupply",
          "type": "uint256"
        }
      ],
      "name": "addCard",
      "outputs": [
        {
          "internalType": "uint256",
          "name": "",
          "type": "uint256"
        }
      ],
      "stateMutability": "nonpayable",
      "type": "function"
    },
    {
      "inputs": [
        {
          "internalType": "address",
          "name": "to",
          "type": "address"
        },
        {
          "internalType": "uint256",
          "name": "id",
          "type": "uint256"
        },
        {
          "internalType": "uint256",
          "name": "amount",
          "type": "uint256"
        }
      ],
      "name": "mint",
      "outputs": [],
      "stateMutability": "nonpayable",
      "type": "function"
    },
    {
      "inputs": [
        {
          "internalType": "uint256",
          "name": "id",
          "type": "uint256"
        },
        {
          "internalType": "uint256",
          "name": "amount",
          "type": "uint256"
        }
      ],
      "name": "burn",
      "outputs": [],
      "stateMutability": "nonpayable",
      "type": "function"
    },
    {
      "inputs": [
        {
          "internalType": "uint256",
          "name": "id",
          "type": "uint256"
        }
      ],
      "name": "getNft",
      "outputs": [
        {
          "components": [
            {
              "internalType": "string",
              "name": "name",
              "type": "string"
            },
            {
              "internalType": "string",
              "name": "ipfsHash",
              "type": "string"
            },
            {
              "internalType": "uint256",
              "name": "price",
              "type": "uint256"
            },
            {
              "internalType": "string",
              "name": "author",
              "type": "string"
            },
            {
              "internalType": "string",
              "name": "about",
              "type": "string"
            },
            {
              "internalType": "string",
              "name": "properties",
              "type": "string"
            },
            {
              "internalType": "string",
              "name": "statement",
              "type": "string"
            }
          ],
          "internalType": "struct TrotterNft.nftMetadata",
          "name": "",
          "type": "tuple"
        }
      ],
      "stateMutability": "view",
      "type": "function",
      "constant": true
    },
    {
      "inputs": [],
      "name": "fetchNfts",
      "outputs": [
        {
          "components": [
            {
              "internalType": "string",
              "name": "name",
              "type": "string"
            },
            {
              "internalType": "string",
              "name": "ipfsHash",
              "type": "string"
            },
            {
              "internalType": "uint256",
              "name": "price",
              "type": "uint256"
            },
            {
              "internalType": "string",
              "name": "author",
              "type": "string"
            },
            {
              "internalType": "string",
              "name": "about",
              "type": "string"
            },
            {
              "internalType": "string",
              "name": "properties",
              "type": "string"
            },
            {
              "internalType": "string",
              "name": "statement",
              "type": "string"
            }
          ],
          "internalType": "struct TrotterNft.nftMetadata[]",
          "name": "",
          "type": "tuple[]"
        }
      ],
      "stateMutability": "view",
      "type": "function",
      "constant": true
    },
    {
      "inputs": [
        {
          "internalType": "bytes4",
          "name": "interfaceId",
          "type": "bytes4"
        }
      ],
      "name": "supportsInterface",
      "outputs": [
        {
          "internalType": "bool",
          "name": "",
          "type": "bool"
        }
      ],
      "stateMutability": "view",
      "type": "function",
      "constant": true
    }
  ],
  "bytecode": "0x60806040523480156200001157600080fd5b506040518060600160405280602581526020016200331660259139620000378162000054565b506200004e6000620000486200006d565b62000071565b62000211565b8051620000699060029060208401906200012e565b5050565b3390565b62000069828262000083828262000103565b620000695760008281526003602090815260408083206001600160a01b03851684529091529020805460ff19166001179055620000bf6200006d565b6001600160a01b0316816001600160a01b0316837f2f8788117e7eff1d82e926ec794901d17c78024a50270940304540a733656f0d60405160405180910390a45050565b60009182526003602090815260408084206001600160a01b0393909316845291905290205460ff1690565b8280546200013c90620001d4565b90600052602060002090601f016020900481019282620001605760008555620001ab565b82601f106200017b57805160ff1916838001178555620001ab565b82800160010185558215620001ab579182015b82811115620001ab5782518255916020019190600101906200018e565b50620001b9929150620001bd565b5090565b5b80821115620001b95760008155600101620001be565b600281046001821680620001e957607f821691505b602082108114156200020b57634e487b7160e01b600052602260045260246000fd5b50919050565b6130f580620002216000396000f3fe608060405234801561001057600080fd5b506004361061018d5760003560e01c806358a4903f116100de578063bd85b03911610097578063e8a3d48511610071578063e8a3d48514610374578063e985e9c51461037c578063f242432a1461038f578063f9e53755146103a25761018d565b8063bd85b03914610346578063d539139314610359578063d547741f146103615761018d565b806358a4903f146102ea57806391d14854146102f257806392ff6aea14610305578063a217fddf14610318578063a22cb46514610320578063b390c0ab146103335761018d565b8063248a9ca31161014b5780632f2ff15d116101255780632f2ff15d1461028457806336568abe1461029757806341f63bfd146102aa5780634e1273f4146102ca5761018d565b8063248a9ca314610238578063265aa6211461024b5780632eb2c2d6146102715761018d565b8062fdd58e1461019257806301ffc9a7146101bb5780630e89341c146101db578063156e29f6146101fb57806320de9a631461021057806323bf574614610225575b600080fd5b6101a56101a036600461236c565b6103b5565b6040516101b291906128c8565b60405180910390f35b6101ce6101c93660046124bf565b61040c565b6040516101b291906128bd565b6101ee6101e9366004612485565b61041f565b6040516101b291906128d1565b61020e610209366004612395565b6104b3565b005b610218610589565b6040516101b29190612825565b6101a56102333660046124f7565b61095f565b6101a5610246366004612485565b610a88565b61025e610259366004612485565b610a9d565b6040516101b297969594939291906128e4565b61020e61027f366004612229565b610e1f565b61020e61029236600461249d565b611085565b61020e6102a536600461249d565b6110c3565b6102bd6102b8366004612485565b611105565b6040516101b29190612edb565b6102dd6102d83660046123c7565b6114ce565b6040516101b29190612885565b6101a56115ee565b6101ce61030036600461249d565b6115f4565b6101a5610313366004612485565b61161f565b6101a5611631565b61020e61032e366004612332565b611636565b61020e61034136600461263c565b611704565b6101a5610354366004612485565b611745565b6101a5611757565b61020e61036f36600461249d565b61177b565b6101ee6117a3565b6101ce61038a3660046121f7565b6117b4565b61020e61039d3660046122cf565b6117e2565b6101a56103b0366004612485565b611978565b60006001600160a01b0383166103e65760405162461bcd60e51b81526004016103dd90612a58565b60405180910390fd5b506000908152602081815260408083206001600160a01b03949094168352929052205490565b600061041782611a48565b90505b919050565b60606002805461042e90612f79565b80601f016020809104026020016040519081016040528092919081815260200182805461045a90612f79565b80156104a75780601f1061047c576101008083540402835291602001916104a7565b820191906000526020600020905b81548152906001019060200180831161048a57829003601f168201915b50505050509050919050565b6104df7f9f2df0fed2c77648de5860a4cc508cd0818c85b8b8a1ab4ceeef8d981c8956a6610300611a6d565b6104fb5760405162461bcd60e51b81526004016103dd90612c7d565b6000828152600660209081526040808320546007909252909120546105209083611a71565b111561053e5760405162461bcd60e51b81526004016103dd90612bb7565b61055983838360405180602001604052806000815250611a84565b6000828152600760205260409020546105729082611a71565b600092835260076020526040909220919091555050565b60606005805480602002602001604051908101604052809291908181526020016000905b8282101561095557838290600052602060002090600702016040518060e00160405290816000820180546105e090612f79565b80601f016020809104026020016040519081016040528092919081815260200182805461060c90612f79565b80156106595780601f1061062e57610100808354040283529160200191610659565b820191906000526020600020905b81548152906001019060200180831161063c57829003601f168201915b5050505050815260200160018201805461067290612f79565b80601f016020809104026020016040519081016040528092919081815260200182805461069e90612f79565b80156106eb5780601f106106c0576101008083540402835291602001916106eb565b820191906000526020600020905b8154815290600101906020018083116106ce57829003601f168201915b505050505081526020016002820154815260200160038201805461070e90612f79565b80601f016020809104026020016040519081016040528092919081815260200182805461073a90612f79565b80156107875780601f1061075c57610100808354040283529160200191610787565b820191906000526020600020905b81548152906001019060200180831161076a57829003601f168201915b505050505081526020016004820180546107a090612f79565b80601f01602080910402602001604051908101604052809291908181526020018280546107cc90612f79565b80156108195780601f106107ee57610100808354040283529160200191610819565b820191906000526020600020905b8154815290600101906020018083116107fc57829003601f168201915b5050505050815260200160058201805461083290612f79565b80601f016020809104026020016040519081016040528092919081815260200182805461085e90612f79565b80156108ab5780601f10610880576101008083540402835291602001916108ab565b820191906000526020600020905b81548152906001019060200180831161088e57829003601f168201915b505050505081526020016006820180546108c490612f79565b80601f01602080910402602001604051908101604052809291908181526020018280546108f090612f79565b801561093d5780601f106109125761010080835404028352916020019161093d565b820191906000526020600020905b81548152906001019060200180831161092057829003601f168201915b505050505081525050815260200190600101906105ad565b5050505090505b90565b60008082116109805760405162461bcd60e51b81526004016103dd90612b30565b600061098b84611978565b6005805460018101825560009190915287518051929350889260079092027f036b6384b5eca791c62761152d0c79bb0604c104a5fb6f4eb0703f3154bb3db001916109de91839160209190910190612033565b5060208281015180516109f79260018501920190612033565b506040820151600282015560608201518051610a1d916003840191602090910190612033565b5060808201518051610a39916004840191602090910190612033565b5060a08201518051610a55916005840191602090910190612033565b5060c08201518051610a71916006840191602090910190612033565b505050610a7f8582856104b3565b95945050505050565b60009081526003602052604090206001015490565b60058181548110610aad57600080fd5b9060005260206000209060070201600091509050806000018054610ad090612f79565b80601f0160208091040260200160405190810160405280929190818152602001828054610afc90612f79565b8015610b495780601f10610b1e57610100808354040283529160200191610b49565b820191906000526020600020905b815481529060010190602001808311610b2c57829003601f168201915b505050505090806001018054610b5e90612f79565b80601f0160208091040260200160405190810160405280929190818152602001828054610b8a90612f79565b8015610bd75780601f10610bac57610100808354040283529160200191610bd7565b820191906000526020600020905b815481529060010190602001808311610bba57829003601f168201915b505050505090806002015490806003018054610bf290612f79565b80601f0160208091040260200160405190810160405280929190818152602001828054610c1e90612f79565b8015610c6b5780601f10610c4057610100808354040283529160200191610c6b565b820191906000526020600020905b815481529060010190602001808311610c4e57829003601f168201915b505050505090806004018054610c8090612f79565b80601f0160208091040260200160405190810160405280929190818152602001828054610cac90612f79565b8015610cf95780601f10610cce57610100808354040283529160200191610cf9565b820191906000526020600020905b815481529060010190602001808311610cdc57829003601f168201915b505050505090806005018054610d0e90612f79565b80601f0160208091040260200160405190810160405280929190818152602001828054610d3a90612f79565b8015610d875780601f10610d5c57610100808354040283529160200191610d87565b820191906000526020600020905b815481529060010190602001808311610d6a57829003601f168201915b505050505090806006018054610d9c90612f79565b80601f0160208091040260200160405190810160405280929190818152602001828054610dc890612f79565b8015610e155780601f10610dea57610100808354040283529160200191610e15565b820191906000526020600020905b815481529060010190602001808311610df857829003601f168201915b5050505050905087565b8151835114610e405760405162461bcd60e51b81526004016103dd90612e03565b6001600160a01b038416610e665760405162461bcd60e51b81526004016103dd90612be6565b610e6e611a6d565b6001600160a01b0316856001600160a01b03161480610e945750610e948561038a611a6d565b610eb05760405162461bcd60e51b81526004016103dd90612c2b565b6000610eba611a6d565b9050610eca81878787878761107d565b60005b8451811015611017576000858281518110610ef857634e487b7160e01b600052603260045260246000fd5b602002602001015190506000858381518110610f2457634e487b7160e01b600052603260045260246000fd5b602090810291909101810151600084815280835260408082206001600160a01b038e168352909352919091205490915081811015610f745760405162461bcd60e51b81526004016103dd90612d27565b610f7e8282612f62565b60008085815260200190815260200160002060008c6001600160a01b03166001600160a01b03168152602001908152602001600020819055508160008085815260200190815260200160002060008b6001600160a01b03166001600160a01b031681526020019081526020016000206000828254610ffc9190612f4a565b925050819055505050508061101090612fb4565b9050610ecd565b50846001600160a01b0316866001600160a01b0316826001600160a01b03167f4a39dc06d4c0dbc64b70af90fd698a233a518aa5d07e595d983b8c0526c8f7fb8787604051611067929190612898565b60405180910390a461107d818787878787611b6b565b505050505050565b61109961109183610a88565b610300611a6d565b6110b55760405162461bcd60e51b81526004016103dd90612a09565b6110bf8282611c79565b5050565b6110cb611a6d565b6001600160a01b0316816001600160a01b0316146110fb5760405162461bcd60e51b81526004016103dd90612e8c565b6110bf8282611d00565b61110d6120b7565b600561111a600184612f62565b8154811061113857634e487b7160e01b600052603260045260246000fd5b90600052602060002090600702016040518060e001604052908160008201805461116190612f79565b80601f016020809104026020016040519081016040528092919081815260200182805461118d90612f79565b80156111da5780601f106111af576101008083540402835291602001916111da565b820191906000526020600020905b8154815290600101906020018083116111bd57829003601f168201915b505050505081526020016001820180546111f390612f79565b80601f016020809104026020016040519081016040528092919081815260200182805461121f90612f79565b801561126c5780601f106112415761010080835404028352916020019161126c565b820191906000526020600020905b81548152906001019060200180831161124f57829003601f168201915b505050505081526020016002820154815260200160038201805461128f90612f79565b80601f01602080910402602001604051908101604052809291908181526020018280546112bb90612f79565b80156113085780601f106112dd57610100808354040283529160200191611308565b820191906000526020600020905b8154815290600101906020018083116112eb57829003601f168201915b5050505050815260200160048201805461132190612f79565b80601f016020809104026020016040519081016040528092919081815260200182805461134d90612f79565b801561139a5780601f1061136f5761010080835404028352916020019161139a565b820191906000526020600020905b81548152906001019060200180831161137d57829003601f168201915b505050505081526020016005820180546113b390612f79565b80601f01602080910402602001604051908101604052809291908181526020018280546113df90612f79565b801561142c5780601f106114015761010080835404028352916020019161142c565b820191906000526020600020905b81548152906001019060200180831161140f57829003601f168201915b5050505050815260200160068201805461144590612f79565b80601f016020809104026020016040519081016040528092919081815260200182805461147190612f79565b80156114be5780601f10611493576101008083540402835291602001916114be565b820191906000526020600020905b8154815290600101906020018083116114a157829003601f168201915b5050505050815250509050919050565b606081518351146114f15760405162461bcd60e51b81526004016103dd90612dba565b6000835167ffffffffffffffff81111561151b57634e487b7160e01b600052604160045260246000fd5b604051908082528060200260200182016040528015611544578160200160208202803683370190505b50905060005b84518110156115e6576115ab85828151811061157657634e487b7160e01b600052603260045260246000fd5b602002602001015185838151811061159e57634e487b7160e01b600052603260045260246000fd5b60200260200101516103b5565b8282815181106115cb57634e487b7160e01b600052603260045260246000fd5b60209081029190910101526115df81612fb4565b905061154a565b509392505050565b60045481565b60009182526003602090815260408084206001600160a01b0393909316845291905290205460ff1690565b60076020526000908152604090205481565b600081565b816001600160a01b0316611648611a6d565b6001600160a01b0316141561166f5760405162461bcd60e51b81526004016103dd90612d71565b806001600061167c611a6d565b6001600160a01b03908116825260208083019390935260409182016000908120918716808252919093529120805460ff1916921515929092179091556116c0611a6d565b6001600160a01b03167f17307eab39ab6107e8899845ad3d59bd9653f200f220920489ca2b5937696c31836040516116f891906128bd565b60405180910390a35050565b61171661170f611a6d565b8383611d85565b60008281526007602052604090205461172f9082611e9e565b6000928352600760205260409092209190915550565b60066020526000908152604090205481565b7f9f2df0fed2c77648de5860a4cc508cd0818c85b8b8a1ab4ceeef8d981c8956a681565b61178761109183610a88565b6110fb5760405162461bcd60e51b81526004016103dd90612b67565b60606117af600061041f565b905090565b6001600160a01b03918216600090815260016020908152604080832093909416825291909152205460ff1690565b6001600160a01b0384166118085760405162461bcd60e51b81526004016103dd90612be6565b611810611a6d565b6001600160a01b0316856001600160a01b0316148061183657506118368561038a611a6d565b6118525760405162461bcd60e51b81526004016103dd90612ae7565b600061185c611a6d565b905061187c81878761186d88611eaa565b61187688611eaa565b8761107d565b6000848152602081815260408083206001600160a01b038a168452909152902054838110156118bd5760405162461bcd60e51b81526004016103dd90612d27565b6118c78482612f62565b6000868152602081815260408083206001600160a01b038c81168552925280832093909355881681529081208054869290611903908490612f4a565b92505081905550856001600160a01b0316876001600160a01b0316836001600160a01b03167fc3d58168c5ae7397731d063d5bbf3d657854427343f4c083240f7aacaa2d0f628888604051611959929190612eee565b60405180910390a461196f828888888888611f03565b50505050505050565b60006119a67f9f2df0fed2c77648de5860a4cc508cd0818c85b8b8a1ab4ceeef8d981c8956a6610300611a6d565b6119c25760405162461bcd60e51b81526004016103dd90612c7d565b600082116119e25760405162461bcd60e51b81526004016103dd90612cf0565b6004546119f0906001611a71565b6004818155600091825260066020526040918290208490555490517f62399d91d89d6e694d41e47f3e6010c0e0b4ec78ecdddb1c02d0e321780859b091611a38918590612eee565b60405180910390a1505060045490565b60006001600160e01b03198216637965db0b60e01b1480610417575061041782611fd4565b3390565b6000611a7d8284612f4a565b9392505050565b6001600160a01b038416611aaa5760405162461bcd60e51b81526004016103dd90612e4b565b6000611ab4611a6d565b9050611ac68160008761186d88611eaa565b6000848152602081815260408083206001600160a01b038916845290915281208054859290611af6908490612f4a565b92505081905550846001600160a01b031660006001600160a01b0316826001600160a01b03167fc3d58168c5ae7397731d063d5bbf3d657854427343f4c083240f7aacaa2d0f628787604051611b4d929190612eee565b60405180910390a4611b6481600087878787611f03565b5050505050565b611b7d846001600160a01b0316612014565b1561107d5760405163bc197c8160e01b81526001600160a01b0385169063bc197c8190611bb69089908990889088908890600401612782565b602060405180830381600087803b158015611bd057600080fd5b505af1925050508015611c00575060408051601f3d908101601f19168201909252611bfd918101906124db565b60015b611c4957611c0c613001565b80611c175750611c31565b8060405162461bcd60e51b81526004016103dd91906128d1565b60405162461bcd60e51b81526004016103dd9061296d565b6001600160e01b0319811663bc197c8160e01b1461196f5760405162461bcd60e51b81526004016103dd906129c1565b611c8382826115f4565b6110bf5760008281526003602090815260408083206001600160a01b03851684529091529020805460ff19166001179055611cbc611a6d565b6001600160a01b0316816001600160a01b0316837f2f8788117e7eff1d82e926ec794901d17c78024a50270940304540a733656f0d60405160405180910390a45050565b611d0a82826115f4565b156110bf5760008281526003602090815260408083206001600160a01b03851684529091529020805460ff19169055611d41611a6d565b6001600160a01b0316816001600160a01b0316837ff6391f5c32d9c69d2a47ea670b442974b53935d1edc7fd64eb21e047a839171b60405160405180910390a45050565b6001600160a01b038316611dab5760405162461bcd60e51b81526004016103dd90612cad565b6000611db5611a6d565b9050611de581856000611dc787611eaa565b611dd087611eaa565b6040518060200160405280600081525061107d565b6000838152602081815260408083206001600160a01b038816845290915290205482811015611e265760405162461bcd60e51b81526004016103dd90612aa3565b611e308382612f62565b6000858152602081815260408083206001600160a01b03808b16808652919093528184209490945551919291908516907fc3d58168c5ae7397731d063d5bbf3d657854427343f4c083240f7aacaa2d0f6290611e8f9089908990612eee565b60405180910390a45050505050565b6000611a7d8284612f62565b60408051600180825281830190925260609160009190602080830190803683370190505090508281600081518110611ef257634e487b7160e01b600052603260045260246000fd5b602090810291909101015292915050565b611f15846001600160a01b0316612014565b1561107d5760405163f23a6e6160e01b81526001600160a01b0385169063f23a6e6190611f4e90899089908890889088906004016127e0565b602060405180830381600087803b158015611f6857600080fd5b505af1925050508015611f98575060408051601f3d908101601f19168201909252611f95918101906124db565b60015b611fa457611c0c613001565b6001600160e01b0319811663f23a6e6160e01b1461196f5760405162461bcd60e51b81526004016103dd906129c1565b60006001600160e01b03198216636cdb3d1360e11b148061200557506001600160e01b031982166303a24d0760e21b145b8061041757506104178261201a565b3b151590565b6001600160e01b031981166301ffc9a760e01b14919050565b82805461203f90612f79565b90600052602060002090601f01602090048101928261206157600085556120a7565b82601f1061207a57805160ff19168380011785556120a7565b828001600101855582156120a7579182015b828111156120a757825182559160200191906001019061208c565b506120b39291506120f4565b5090565b6040518060e00160405280606081526020016060815260200160008152602001606081526020016060815260200160608152602001606081525090565b5b808211156120b357600081556001016120f5565b80356001600160a01b038116811461041a57600080fd5b600082601f830112612130578081fd5b8135602061214561214083612f26565b612efc565b8281528181019085830183850287018401881015612161578586fd5b855b8581101561217f57813584529284019290840190600101612163565b5090979650505050505050565b600082601f83011261219c578081fd5b813567ffffffffffffffff8111156121b6576121b6612fe5565b6121c9601f8201601f1916602001612efc565b8181528460208386010111156121dd578283fd5b816020850160208301379081016020019190915292915050565b60008060408385031215612209578182fd5b61221283612109565b915061222060208401612109565b90509250929050565b600080600080600060a08688031215612240578081fd5b61224986612109565b945061225760208701612109565b9350604086013567ffffffffffffffff80821115612273578283fd5b61227f89838a01612120565b94506060880135915080821115612294578283fd5b6122a089838a01612120565b935060808801359150808211156122b5578283fd5b506122c28882890161218c565b9150509295509295909350565b600080600080600060a086880312156122e6578081fd5b6122ef86612109565b94506122fd60208701612109565b93506040860135925060608601359150608086013567ffffffffffffffff811115612326578182fd5b6122c28882890161218c565b60008060408385031215612344578182fd5b61234d83612109565b915060208301358015158114612361578182fd5b809150509250929050565b6000806040838503121561237e578182fd5b61238783612109565b946020939093013593505050565b6000806000606084860312156123a9578081fd5b6123b284612109565b95602085013595506040909401359392505050565b600080604083850312156123d9578182fd5b823567ffffffffffffffff808211156123f0578384fd5b818501915085601f830112612403578384fd5b8135602061241361214083612f26565b82815281810190858301838502870184018b101561242f578889fd5b8896505b848710156124585761244481612109565b835260019690960195918301918301612433565b509650508601359250508082111561246e578283fd5b5061247b85828601612120565b9150509250929050565b600060208284031215612496578081fd5b5035919050565b600080604083850312156124af578182fd5b8235915061222060208401612109565b6000602082840312156124d0578081fd5b8135611a7d816130a6565b6000602082840312156124ec578081fd5b8151611a7d816130a6565b6000806000806080858703121561250c578182fd5b843567ffffffffffffffff80821115612523578384fd5b9086019060e08289031215612536578384fd5b61254060e0612efc565b82358281111561254e578586fd5b61255a8a82860161218c565b82525060208301358281111561256e578586fd5b61257a8a82860161218c565b6020830152506040830135604082015260608301358281111561259b578586fd5b6125a78a82860161218c565b6060830152506080830135828111156125be578586fd5b6125ca8a82860161218c565b60808301525060a0830135828111156125e1578586fd5b6125ed8a82860161218c565b60a08301525060c083013582811115612604578586fd5b6126108a82860161218c565b60c083015250955061262791505060208601612109565b93969395505050506040820135916060013590565b6000806040838503121561264e578182fd5b50508035926020909101359150565b6000815180845260208085019450808401835b8381101561268c57815187529582019590820190600101612670565b509495945050505050565b60008151808452815b818110156126bc576020818501810151868301820152016126a0565b818111156126cd5782602083870101525b50601f01601f19169290920160200192915050565b6000815160e084526126f760e0850182612697565b9050602083015184820360208601526127108282612697565b91505060408301516040850152606083015184820360608601526127348282612697565b9150506080830151848203608086015261274e8282612697565b91505060a083015184820360a08601526127688282612697565b91505060c083015184820360c0860152610a7f8282612697565b6001600160a01b0386811682528516602082015260a0604082018190526000906127ae9083018661265d565b82810360608401526127c0818661265d565b905082810360808401526127d48185612697565b98975050505050505050565b6001600160a01b03868116825285166020820152604081018490526060810183905260a06080820181905260009061281a90830184612697565b979650505050505050565b6000602080830181845280855180835260408601915060408482028701019250838701855b8281101561287857603f198886030184526128668583516126e2565b9450928501929085019060010161284a565b5092979650505050505050565b600060208252611a7d602083018461265d565b6000604082526128ab604083018561265d565b8281036020840152610a7f818561265d565b901515815260200190565b90815260200190565b600060208252611a7d6020830184612697565b600060e082526128f760e083018a612697565b8281036020840152612909818a612697565b905087604084015282810360608401526129238188612697565b905082810360808401526129378187612697565b905082810360a084015261294b8186612697565b905082810360c084015261295f8185612697565b9a9950505050505050505050565b60208082526034908201527f455243313135353a207472616e7366657220746f206e6f6e20455243313135356040820152732932b1b2b4bb32b91034b6b83632b6b2b73a32b960611b606082015260800190565b60208082526028908201527f455243313135353a204552433131353552656365697665722072656a656374656040820152676420746f6b656e7360c01b606082015260800190565b6020808252602f908201527f416363657373436f6e74726f6c3a2073656e646572206d75737420626520616e60408201526e0818591b5a5b881d1bc819dc985b9d608a1b606082015260800190565b6020808252602b908201527f455243313135353a2062616c616e636520717565727920666f7220746865207a60408201526a65726f206164647265737360a81b606082015260800190565b60208082526024908201527f455243313135353a206275726e20616d6f756e7420657863656564732062616c604082015263616e636560e01b606082015260800190565b60208082526029908201527f455243313135353a2063616c6c6572206973206e6f74206f776e6572206e6f7260408201526808185c1c1c9bdd995960ba1b606082015260800190565b6020808252601a908201527f496e697469616c20737570706c79206c657373207468616e2031000000000000604082015260600190565b60208082526030908201527f416363657373436f6e74726f6c3a2073656e646572206d75737420626520616e60408201526f2061646d696e20746f207265766f6b6560801b606082015260800190565b6020808252601590820152742a37ba30b61039bab838363c903932b0b1b432b21760591b604082015260600190565b60208082526025908201527f455243313135353a207472616e7366657220746f20746865207a65726f206164604082015264647265737360d81b606082015260800190565b60208082526032908201527f455243313135353a207472616e736665722063616c6c6572206973206e6f74206040820152711bdddb995c881b9bdc88185c1c1c9bdd995960721b606082015260800190565b60208082526016908201527521b0b63632b91034b9903737ba10309036b4b73a32b960511b604082015260600190565b60208082526023908201527f455243313135353a206275726e2066726f6d20746865207a65726f206164647260408201526265737360e81b606082015260800190565b6020808252601b908201527f4d6178696d756d20737570706c792063616e206e6f7420626520300000000000604082015260600190565b6020808252602a908201527f455243313135353a20696e73756666696369656e742062616c616e636520666f60408201526939103a3930b739b332b960b11b606082015260800190565b60208082526029908201527f455243313135353a2073657474696e6720617070726f76616c20737461747573604082015268103337b91039b2b63360b91b606082015260800190565b60208082526029908201527f455243313135353a206163636f756e747320616e6420696473206c656e677468604082015268040dad2e6dac2e8c6d60bb1b606082015260800190565b60208082526028908201527f455243313135353a2069647320616e6420616d6f756e7473206c656e677468206040820152670dad2e6dac2e8c6d60c31b606082015260800190565b60208082526021908201527f455243313135353a206d696e7420746f20746865207a65726f206164647265736040820152607360f81b606082015260800190565b6020808252602f908201527f416363657373436f6e74726f6c3a2063616e206f6e6c792072656e6f756e636560408201526e103937b632b9903337b91039b2b63360891b606082015260800190565b600060208252611a7d60208301846126e2565b918252602082015260400190565b60405181810167ffffffffffffffff81118282101715612f1e57612f1e612fe5565b604052919050565b600067ffffffffffffffff821115612f4057612f40612fe5565b5060209081020190565b60008219821115612f5d57612f5d612fcf565b500190565b600082821015612f7457612f74612fcf565b500390565b600281046001821680612f8d57607f821691505b60208210811415612fae57634e487b7160e01b600052602260045260246000fd5b50919050565b6000600019821415612fc857612fc8612fcf565b5060010190565b634e487b7160e01b600052601160045260246000fd5b634e487b7160e01b600052604160045260246000fd5b60e01c90565b600060443d10156130115761095c565b600481823e6308c379a06130258251612ffb565b1461302f5761095c565b6040513d600319016004823e80513d67ffffffffffffffff816024840111818411171561305f575050505061095c565b82840192508251915080821115613079575050505061095c565b503d830160208284010111156130915750505061095c565b601f01601f1916810160200160405291505090565b6001600160e01b0319811681146130bc57600080fd5b5056fea264697066735822122002652c035a0c17aca8d1619dbc2a4a3f871c94b0220284f6a031f287abb0690e64736f6c6343000800003368747470733a2f2f7777772e74726f747465722e66696e616e63652f6170692f4e4654732f",
  "immutableReferences": {},
  "source": "// SPDX-License-Identifier: MIT\npragma solidity =0.8.0;\n\nimport \"@openzeppelin/contracts/token/ERC1155/ERC1155.sol\";\nimport \"@openzeppelin/contracts/access/AccessControl.sol\";\nimport \"@openzeppelin/contracts/utils/math/SafeMath.sol\";\n\ncontract TrotterNft is ERC1155, AccessControl {\n    using SafeMath for uint256;\n\n    constructor() ERC1155(\"https://www.trotter.finance/api/NFTs/\") {\n        _setupRole(DEFAULT_ADMIN_ROLE, _msgSender());\n    }\n\n    bytes32 public constant MINTER_ROLE = keccak256(\"MINTER_ROLE\");\n\n    struct nftMetadata {\n        string name;\n        string ipfsHash;\n        uint256 price;\n        string author;\n        string about;\n        string properties;\n        string statement;\n    }\n\n    uint256 public cards;\n    nftMetadata[] public nfts;\n    mapping(uint256 => uint256) public totalSupply;\n    mapping(uint256 => uint256) public circulatingSupply;\n\n    event CardAdded(uint256 id, uint256 maxSupply);\n\n    /**\n     * @dev Get contract URL\n     */\n    function contractURI() public view returns (string memory) {\n        return string(uri(0));\n    }\n\n    /**\n     * @notice Creates nft card and mints a new NFT for first time.\n     *\n     * @param data Hash table containing nft metadata\n     * @param newOwner Address to mint NFT to.\n     * @param maxSupply The max supply of NFT mintable.\n     * @param initialSupply The amount of NFT to mint initially.\n     */\n    function createNftCard(\n        nftMetadata memory data,\n        address newOwner,\n        uint256 maxSupply,\n        uint256 initialSupply\n    ) public returns (uint256) {\n        require(initialSupply > 0, \"Initial supply less than 1\");\n        uint256 nftId = addCard(maxSupply);\n        nfts.push(data);\n        mint(newOwner, nftId, initialSupply);\n        return nftId;\n    }\n\n    /**\n     * @notice Creates a new card for unique `NFT`.\n     *\n     * This signifies each unique NFT,\n     *\n     * Each NFT can appear more than once, this is where to declare it before minting a copy.\n     *\n     * The less amount an NFT can be minted determines the value,\n     * Low amount of an NFT in circulation makes it rare and more expensive.\n     *\n     * @param maxSupply The max supply of the NFTs on this card.\n     */\n    function addCard(uint256 maxSupply) public returns (uint256) {\n        require(hasRole(MINTER_ROLE, _msgSender()), \"Caller is not a minter\");\n        require(maxSupply > 0, \"Maximum supply can not be 0\");\n        cards = cards.add(1);\n        totalSupply[cards] = maxSupply;\n        emit CardAdded(cards, maxSupply);\n        return cards;\n    }\n\n    /**\n     * @notice Mints a new NFT to an NFT card.\n     *\n     * @param to Address to receive the new minted NFT.\n     * @param id The card id to mint NFT from.\n     * @param amount The amount of NFT to mint on this card.\n     */\n    function mint(\n        address to,\n        uint256 id,\n        uint256 amount\n    ) public {\n        require(hasRole(MINTER_ROLE, _msgSender()), \"Caller is not a minter\");\n        require(\n            circulatingSupply[id].add(amount) <= totalSupply[id],\n            \"Total supply reached.\"\n        );\n\n        _mint(to, id, amount, \"\");\n        circulatingSupply[id] = circulatingSupply[id].add(amount);\n    }\n\n    /**\n     * @notice Burn an NFT from NFT card.\n     *\n     * @param id The card id to burn NFT from.\n     * @param amount The amount of NFT to burn from this card.\n     */\n    function burn(uint256 id, uint256 amount) public {\n        _burn(_msgSender(), id, amount);\n        circulatingSupply[id] = circulatingSupply[id].sub(amount);\n    }\n\n    /**\n     * @notice Get an NFT with NFT id.\n     *\n     * @param id The card id to burn NFT from.\n     */\n    function getNft(uint256 id) public view returns(nftMetadata memory) {\n        return nfts[id - 1];\n    }\n\n    /**\n     * @notice Fetch all NFTs.\n     */\n    function fetchNfts() public view returns(nftMetadata[] memory) {\n        return nfts;\n    }\n\n    /**\n     * @dev ERC1155 and AccessControl include supportsInterface so we need to override both\n     */\n    function supportsInterface(bytes4 interfaceId)\n        public\n        view\n        virtual\n        override(ERC1155, AccessControl)\n        returns (bool)\n    {\n        return super.supportsInterface(interfaceId);\n    }\n}\n",
  "sourcePath": "/Users/Chris/Coding/Blockchain/trotter-market/contracts/TrotterNft.sol",
  "compiler": {
    "name": "solc",
    "version": "0.8.0+commit.c7dfd78e.Emscripten.clang"
  },
  "schemaVersion": "3.3.4",
  "updatedAt": "2021-04-08T14:03:08.130Z",
  "networkType": "ethereum",
  "devdoc": {
    "kind": "dev",
    "methods": {
      "addCard(uint256)": {
        "params": {
          "maxSupply": "The max supply of the NFTs on this card."
        }
      },
      "balanceOf(address,uint256)": {
        "details": "See {IERC1155-balanceOf}. Requirements: - `account` cannot be the zero address."
      },
      "balanceOfBatch(address[],uint256[])": {
        "details": "See {IERC1155-balanceOfBatch}. Requirements: - `accounts` and `ids` must have the same length."
      },
      "burn(uint256,uint256)": {
        "params": {
          "amount": "The amount of NFT to burn from this card.",
          "id": "The card id to burn NFT from."
        }
      },
      "contractURI()": {
        "details": "Get contract URL"
      },
      "createNftCard((string,string,uint256,string,string,string,string),address,uint256,uint256)": {
        "params": {
          "data": "Hash table containing nft metadata",
          "initialSupply": "The amount of NFT to mint initially.",
          "maxSupply": "The max supply of NFT mintable.",
          "newOwner": "Address to mint NFT to."
        }
      },
      "getNft(uint256)": {
        "params": {
          "id": "The card id to burn NFT from."
        }
      },
      "getRoleAdmin(bytes32)": {
        "details": "Returns the admin role that controls `role`. See {grantRole} and {revokeRole}. To change a role's admin, use {_setRoleAdmin}."
      },
      "grantRole(bytes32,address)": {
        "details": "Grants `role` to `account`. If `account` had not been already granted `role`, emits a {RoleGranted} event. Requirements: - the caller must have ``role``'s admin role."
      },
      "hasRole(bytes32,address)": {
        "details": "Returns `true` if `account` has been granted `role`."
      },
      "isApprovedForAll(address,address)": {
        "details": "See {IERC1155-isApprovedForAll}."
      },
      "mint(address,uint256,uint256)": {
        "params": {
          "amount": "The amount of NFT to mint on this card.",
          "id": "The card id to mint NFT from.",
          "to": "Address to receive the new minted NFT."
        }
      },
      "renounceRole(bytes32,address)": {
        "details": "Revokes `role` from the calling account. Roles are often managed via {grantRole} and {revokeRole}: this function's purpose is to provide a mechanism for accounts to lose their privileges if they are compromised (such as when a trusted device is misplaced). If the calling account had been granted `role`, emits a {RoleRevoked} event. Requirements: - the caller must be `account`."
      },
      "revokeRole(bytes32,address)": {
        "details": "Revokes `role` from `account`. If `account` had been granted `role`, emits a {RoleRevoked} event. Requirements: - the caller must have ``role``'s admin role."
      },
      "safeBatchTransferFrom(address,address,uint256[],uint256[],bytes)": {
        "details": "See {IERC1155-safeBatchTransferFrom}."
      },
      "safeTransferFrom(address,address,uint256,uint256,bytes)": {
        "details": "See {IERC1155-safeTransferFrom}."
      },
      "setApprovalForAll(address,bool)": {
        "details": "See {IERC1155-setApprovalForAll}."
      },
      "supportsInterface(bytes4)": {
        "details": "ERC1155 and AccessControl include supportsInterface so we need to override both"
      },
      "uri(uint256)": {
        "details": "See {IERC1155MetadataURI-uri}. This implementation returns the same URI for *all* token types. It relies on the token type ID substitution mechanism https://eips.ethereum.org/EIPS/eip-1155#metadata[defined in the EIP]. Clients calling this function must replace the `\\{id\\}` substring with the actual token type ID."
      }
    },
    "version": 1
  },
  "userdoc": {
    "kind": "user",
    "methods": {
      "addCard(uint256)": {
        "notice": "Creates a new card for unique `NFT`. This signifies each unique NFT, Each NFT can appear more than once, this is where to declare it before minting a copy. The less amount an NFT can be minted determines the value, Low amount of an NFT in circulation makes it rare and more expensive."
      },
      "burn(uint256,uint256)": {
        "notice": "Burn an NFT from NFT card."
      },
      "createNftCard((string,string,uint256,string,string,string,string),address,uint256,uint256)": {
        "notice": "Creates nft card and mints a new NFT for first time."
      },
      "fetchNfts()": {
        "notice": "Fetch all NFTs."
      },
      "getNft(uint256)": {
        "notice": "Get an NFT with NFT id."
      },
      "mint(address,uint256,uint256)": {
        "notice": "Mints a new NFT to an NFT card."
      }
    },
    "version": 1
  }
}