{
  "contractName": "TrotterNft",
  "abi": [
    {
      "inputs": [],
      "stateMutability": "nonpayable",
      "type": "constructor"
    },
    {
      "anonymous": false,
      "inputs": [
        {
          "indexed": true,
          "internalType": "address",
          "name": "account",
          "type": "address"
        },
        {
          "indexed": true,
          "internalType": "address",
          "name": "operator",
          "type": "address"
        },
        {
          "indexed": false,
          "internalType": "bool",
          "name": "approved",
          "type": "bool"
        }
      ],
      "name": "ApprovalForAll",
      "type": "event"
    },
    {
      "anonymous": false,
      "inputs": [
        {
          "indexed": false,
          "internalType": "uint256",
          "name": "id",
          "type": "uint256"
        },
        {
          "indexed": false,
          "internalType": "uint256",
          "name": "maxSupply",
          "type": "uint256"
        }
      ],
      "name": "CardAdded",
      "type": "event"
    },
    {
      "anonymous": false,
      "inputs": [
        {
          "indexed": true,
          "internalType": "bytes32",
          "name": "role",
          "type": "bytes32"
        },
        {
          "indexed": true,
          "internalType": "bytes32",
          "name": "previousAdminRole",
          "type": "bytes32"
        },
        {
          "indexed": true,
          "internalType": "bytes32",
          "name": "newAdminRole",
          "type": "bytes32"
        }
      ],
      "name": "RoleAdminChanged",
      "type": "event"
    },
    {
      "anonymous": false,
      "inputs": [
        {
          "indexed": true,
          "internalType": "bytes32",
          "name": "role",
          "type": "bytes32"
        },
        {
          "indexed": true,
          "internalType": "address",
          "name": "account",
          "type": "address"
        },
        {
          "indexed": true,
          "internalType": "address",
          "name": "sender",
          "type": "address"
        }
      ],
      "name": "RoleGranted",
      "type": "event"
    },
    {
      "anonymous": false,
      "inputs": [
        {
          "indexed": true,
          "internalType": "bytes32",
          "name": "role",
          "type": "bytes32"
        },
        {
          "indexed": true,
          "internalType": "address",
          "name": "account",
          "type": "address"
        },
        {
          "indexed": true,
          "internalType": "address",
          "name": "sender",
          "type": "address"
        }
      ],
      "name": "RoleRevoked",
      "type": "event"
    },
    {
      "anonymous": false,
      "inputs": [
        {
          "indexed": true,
          "internalType": "address",
          "name": "operator",
          "type": "address"
        },
        {
          "indexed": true,
          "internalType": "address",
          "name": "from",
          "type": "address"
        },
        {
          "indexed": true,
          "internalType": "address",
          "name": "to",
          "type": "address"
        },
        {
          "indexed": false,
          "internalType": "uint256[]",
          "name": "ids",
          "type": "uint256[]"
        },
        {
          "indexed": false,
          "internalType": "uint256[]",
          "name": "values",
          "type": "uint256[]"
        }
      ],
      "name": "TransferBatch",
      "type": "event"
    },
    {
      "anonymous": false,
      "inputs": [
        {
          "indexed": true,
          "internalType": "address",
          "name": "operator",
          "type": "address"
        },
        {
          "indexed": true,
          "internalType": "address",
          "name": "from",
          "type": "address"
        },
        {
          "indexed": true,
          "internalType": "address",
          "name": "to",
          "type": "address"
        },
        {
          "indexed": false,
          "internalType": "uint256",
          "name": "id",
          "type": "uint256"
        },
        {
          "indexed": false,
          "internalType": "uint256",
          "name": "value",
          "type": "uint256"
        }
      ],
      "name": "TransferSingle",
      "type": "event"
    },
    {
      "anonymous": false,
      "inputs": [
        {
          "indexed": false,
          "internalType": "string",
          "name": "value",
          "type": "string"
        },
        {
          "indexed": true,
          "internalType": "uint256",
          "name": "id",
          "type": "uint256"
        }
      ],
      "name": "URI",
      "type": "event"
    },
    {
      "inputs": [],
      "name": "DEFAULT_ADMIN_ROLE",
      "outputs": [
        {
          "internalType": "bytes32",
          "name": "",
          "type": "bytes32"
        }
      ],
      "stateMutability": "view",
      "type": "function"
    },
    {
      "inputs": [],
      "name": "MINTER_ROLE",
      "outputs": [
        {
          "internalType": "bytes32",
          "name": "",
          "type": "bytes32"
        }
      ],
      "stateMutability": "view",
      "type": "function"
    },
    {
      "inputs": [
        {
          "internalType": "address",
          "name": "account",
          "type": "address"
        },
        {
          "internalType": "uint256",
          "name": "id",
          "type": "uint256"
        }
      ],
      "name": "balanceOf",
      "outputs": [
        {
          "internalType": "uint256",
          "name": "",
          "type": "uint256"
        }
      ],
      "stateMutability": "view",
      "type": "function"
    },
    {
      "inputs": [
        {
          "internalType": "address[]",
          "name": "accounts",
          "type": "address[]"
        },
        {
          "internalType": "uint256[]",
          "name": "ids",
          "type": "uint256[]"
        }
      ],
      "name": "balanceOfBatch",
      "outputs": [
        {
          "internalType": "uint256[]",
          "name": "",
          "type": "uint256[]"
        }
      ],
      "stateMutability": "view",
      "type": "function"
    },
    {
      "inputs": [],
      "name": "cards",
      "outputs": [
        {
          "internalType": "uint256",
          "name": "",
          "type": "uint256"
        }
      ],
      "stateMutability": "view",
      "type": "function"
    },
    {
      "inputs": [
        {
          "internalType": "uint256",
          "name": "",
          "type": "uint256"
        }
      ],
      "name": "circulatingSupply",
      "outputs": [
        {
          "internalType": "uint256",
          "name": "",
          "type": "uint256"
        }
      ],
      "stateMutability": "view",
      "type": "function"
    },
    {
      "inputs": [
        {
          "internalType": "bytes32",
          "name": "role",
          "type": "bytes32"
        }
      ],
      "name": "getRoleAdmin",
      "outputs": [
        {
          "internalType": "bytes32",
          "name": "",
          "type": "bytes32"
        }
      ],
      "stateMutability": "view",
      "type": "function"
    },
    {
      "inputs": [
        {
          "internalType": "bytes32",
          "name": "role",
          "type": "bytes32"
        },
        {
          "internalType": "address",
          "name": "account",
          "type": "address"
        }
      ],
      "name": "grantRole",
      "outputs": [],
      "stateMutability": "nonpayable",
      "type": "function"
    },
    {
      "inputs": [
        {
          "internalType": "bytes32",
          "name": "role",
          "type": "bytes32"
        },
        {
          "internalType": "address",
          "name": "account",
          "type": "address"
        }
      ],
      "name": "hasRole",
      "outputs": [
        {
          "internalType": "bool",
          "name": "",
          "type": "bool"
        }
      ],
      "stateMutability": "view",
      "type": "function"
    },
    {
      "inputs": [
        {
          "internalType": "address",
          "name": "account",
          "type": "address"
        },
        {
          "internalType": "address",
          "name": "operator",
          "type": "address"
        }
      ],
      "name": "isApprovedForAll",
      "outputs": [
        {
          "internalType": "bool",
          "name": "",
          "type": "bool"
        }
      ],
      "stateMutability": "view",
      "type": "function"
    },
    {
      "inputs": [
        {
          "internalType": "bytes32",
          "name": "role",
          "type": "bytes32"
        },
        {
          "internalType": "address",
          "name": "account",
          "type": "address"
        }
      ],
      "name": "renounceRole",
      "outputs": [],
      "stateMutability": "nonpayable",
      "type": "function"
    },
    {
      "inputs": [
        {
          "internalType": "bytes32",
          "name": "role",
          "type": "bytes32"
        },
        {
          "internalType": "address",
          "name": "account",
          "type": "address"
        }
      ],
      "name": "revokeRole",
      "outputs": [],
      "stateMutability": "nonpayable",
      "type": "function"
    },
    {
      "inputs": [
        {
          "internalType": "address",
          "name": "from",
          "type": "address"
        },
        {
          "internalType": "address",
          "name": "to",
          "type": "address"
        },
        {
          "internalType": "uint256[]",
          "name": "ids",
          "type": "uint256[]"
        },
        {
          "internalType": "uint256[]",
          "name": "amounts",
          "type": "uint256[]"
        },
        {
          "internalType": "bytes",
          "name": "data",
          "type": "bytes"
        }
      ],
      "name": "safeBatchTransferFrom",
      "outputs": [],
      "stateMutability": "nonpayable",
      "type": "function"
    },
    {
      "inputs": [
        {
          "internalType": "address",
          "name": "from",
          "type": "address"
        },
        {
          "internalType": "address",
          "name": "to",
          "type": "address"
        },
        {
          "internalType": "uint256",
          "name": "id",
          "type": "uint256"
        },
        {
          "internalType": "uint256",
          "name": "amount",
          "type": "uint256"
        },
        {
          "internalType": "bytes",
          "name": "data",
          "type": "bytes"
        }
      ],
      "name": "safeTransferFrom",
      "outputs": [],
      "stateMutability": "nonpayable",
      "type": "function"
    },
    {
      "inputs": [
        {
          "internalType": "address",
          "name": "operator",
          "type": "address"
        },
        {
          "internalType": "bool",
          "name": "approved",
          "type": "bool"
        }
      ],
      "name": "setApprovalForAll",
      "outputs": [],
      "stateMutability": "nonpayable",
      "type": "function"
    },
    {
      "inputs": [
        {
          "internalType": "uint256",
          "name": "",
          "type": "uint256"
        }
      ],
      "name": "totalSupply",
      "outputs": [
        {
          "internalType": "uint256",
          "name": "",
          "type": "uint256"
        }
      ],
      "stateMutability": "view",
      "type": "function"
    },
    {
      "inputs": [
        {
          "internalType": "uint256",
          "name": "",
          "type": "uint256"
        }
      ],
      "name": "uri",
      "outputs": [
        {
          "internalType": "string",
          "name": "",
          "type": "string"
        }
      ],
      "stateMutability": "view",
      "type": "function"
    },
    {
      "inputs": [
        {
          "internalType": "uint256",
          "name": "maxSupply",
          "type": "uint256"
        }
      ],
      "name": "addCard",
      "outputs": [
        {
          "internalType": "uint256",
          "name": "",
          "type": "uint256"
        }
      ],
      "stateMutability": "nonpayable",
      "type": "function"
    },
    {
      "inputs": [
        {
          "internalType": "address",
          "name": "to",
          "type": "address"
        },
        {
          "internalType": "uint256",
          "name": "id",
          "type": "uint256"
        },
        {
          "internalType": "uint256",
          "name": "amount",
          "type": "uint256"
        }
      ],
      "name": "mint",
      "outputs": [],
      "stateMutability": "nonpayable",
      "type": "function"
    },
    {
      "inputs": [
        {
          "internalType": "uint256",
          "name": "id",
          "type": "uint256"
        },
        {
          "internalType": "uint256",
          "name": "amount",
          "type": "uint256"
        }
      ],
      "name": "burn",
      "outputs": [],
      "stateMutability": "nonpayable",
      "type": "function"
    },
    {
      "inputs": [
        {
          "internalType": "bytes4",
          "name": "interfaceId",
          "type": "bytes4"
        }
      ],
      "name": "supportsInterface",
      "outputs": [
        {
          "internalType": "bool",
          "name": "",
          "type": "bool"
        }
      ],
      "stateMutability": "view",
      "type": "function"
    }
  ],
  "bytecode": "0x60806040523480156200001157600080fd5b5060405180606001604052806025815260200162003cf1602591396200003d816200006860201b60201c565b50620000626000801b620000566200008460201b60201c565b6200008c60201b60201c565b62000314565b806002908051906020019062000080929190620001ff565b5050565b600033905090565b6200009e8282620000a260201b60201c565b5050565b620000b482826200019460201b60201c565b620001905760016003600084815260200190815260200160002060000160008373ffffffffffffffffffffffffffffffffffffffff1673ffffffffffffffffffffffffffffffffffffffff16815260200190815260200160002060006101000a81548160ff021916908315150217905550620001356200008460201b60201c565b73ffffffffffffffffffffffffffffffffffffffff168173ffffffffffffffffffffffffffffffffffffffff16837f2f8788117e7eff1d82e926ec794901d17c78024a50270940304540a733656f0d60405160405180910390a45b5050565b60006003600084815260200190815260200160002060000160008373ffffffffffffffffffffffffffffffffffffffff1673ffffffffffffffffffffffffffffffffffffffff16815260200190815260200160002060009054906101000a900460ff16905092915050565b8280546200020d90620002af565b90600052602060002090601f0160209004810192826200023157600085556200027d565b82601f106200024c57805160ff19168380011785556200027d565b828001600101855582156200027d579182015b828111156200027c5782518255916020019190600101906200025f565b5b5090506200028c919062000290565b5090565b5b80821115620002ab57600081600090555060010162000291565b5090565b60006002820490506001821680620002c857607f821691505b60208210811415620002df57620002de620002e5565b5b50919050565b7f4e487b7100000000000000000000000000000000000000000000000000000000600052602260045260246000fd5b6139cd80620003246000396000f3fe608060405234801561001057600080fd5b50600436106101365760003560e01c806391d14854116100b8578063bd85b0391161007c578063bd85b0391461036f578063d53913931461039f578063d547741f146103bd578063e985e9c5146103d9578063f242432a14610409578063f9e537551461042557610136565b806391d14854146102b957806392ff6aea146102e9578063a217fddf14610319578063a22cb46514610337578063b390c0ab1461035357610136565b80632eb2c2d6116100ff5780632eb2c2d6146102175780632f2ff15d1461023357806336568abe1461024f5780634e1273f41461026b57806358a4903f1461029b57610136565b8062fdd58e1461013b57806301ffc9a71461016b5780630e89341c1461019b578063156e29f6146101cb578063248a9ca3146101e7575b600080fd5b6101556004803603810190610150919061254b565b610455565b6040516101629190612efd565b60405180910390f35b610185600480360381019061018091906126a7565b61051e565b6040516101929190612c45565b60405180910390f35b6101b560048036038101906101b091906126f9565b610530565b6040516101c29190612c7b565b60405180910390f35b6101e560048036038101906101e09190612587565b6105c4565b005b61020160048036038101906101fc9190612642565b61070c565b60405161020e9190612c60565b60405180910390f35b610231600480360381019061022c91906123c1565b61072c565b005b61024d6004803603810190610248919061266b565b610b22565b005b6102696004803603810190610264919061266b565b610b88565b005b610285600480360381019061028091906125d6565b610c0b565b6040516102929190612bec565b60405180910390f35b6102a3610dbc565b6040516102b09190612efd565b60405180910390f35b6102d360048036038101906102ce919061266b565b610dc2565b6040516102e09190612c45565b60405180910390f35b61030360048036038101906102fe91906126f9565b610e2d565b6040516103109190612efd565b60405180910390f35b610321610e45565b60405161032e9190612c60565b60405180910390f35b610351600480360381019061034c919061250f565b610e4c565b005b61036d60048036038101906103689190612722565b610fcd565b005b610389600480360381019061038491906126f9565b610fe3565b6040516103969190612efd565b60405180910390f35b6103a7610ffb565b6040516103b49190612c60565b60405180910390f35b6103d760048036038101906103d2919061266b565b61101f565b005b6103f360048036038101906103ee9190612385565b611085565b6040516104009190612c45565b60405180910390f35b610423600480360381019061041e9190612480565b611119565b005b61043f600480360381019061043a91906126f9565b611431565b60405161044c9190612efd565b60405180910390f35b60008073ffffffffffffffffffffffffffffffffffffffff168373ffffffffffffffffffffffffffffffffffffffff1614156104c6576040517f08c379a00000000000000000000000000000000000000000000000000000000081526004016104bd90612cfd565b60405180910390fd5b60008083815260200190815260200160002060008473ffffffffffffffffffffffffffffffffffffffff1673ffffffffffffffffffffffffffffffffffffffff16815260200190815260200160002054905092915050565b600061052982611561565b9050919050565b60606002805461053f906131aa565b80601f016020809104026020016040519081016040528092919081815260200182805461056b906131aa565b80156105b85780601f1061058d576101008083540402835291602001916105b8565b820191906000526020600020905b81548152906001019060200180831161059b57829003601f168201915b50505050509050919050565b6105f57f9f2df0fed2c77648de5860a4cc508cd0818c85b8b8a1ab4ceeef8d981c8956a66105f06115db565b610dc2565b610634576040517f08c379a000000000000000000000000000000000000000000000000000000000815260040161062b90612ddd565b60405180910390fd5b600560008381526020019081526020016000205461066e8260066000868152602001908152602001600020546115e390919063ffffffff16565b11156106af576040517f08c379a00000000000000000000000000000000000000000000000000000000081526004016106a690612d7d565b60405180910390fd5b6106d58160066000858152602001908152602001600020546115e390919063ffffffff16565b6006600084815260200190815260200160002081905550610707838383604051806020016040528060008152506115f9565b505050565b600060036000838152602001908152602001600020600101549050919050565b8151835114610770576040517f08c379a000000000000000000000000000000000000000000000000000000000815260040161076790612e9d565b60405180910390fd5b600073ffffffffffffffffffffffffffffffffffffffff168473ffffffffffffffffffffffffffffffffffffffff1614156107e0576040517f08c379a00000000000000000000000000000000000000000000000000000000081526004016107d790612d9d565b60405180910390fd5b6107e86115db565b73ffffffffffffffffffffffffffffffffffffffff168573ffffffffffffffffffffffffffffffffffffffff16148061082e575061082d856108286115db565b611085565b5b61086d576040517f08c379a000000000000000000000000000000000000000000000000000000000815260040161086490612dbd565b60405180910390fd5b60006108776115db565b905061088781878787878761178f565b60005b8451811015610a8d5760008582815181106108ce577f4e487b7100000000000000000000000000000000000000000000000000000000600052603260045260246000fd5b602002602001015190506000858381518110610913577f4e487b7100000000000000000000000000000000000000000000000000000000600052603260045260246000fd5b60200260200101519050600080600084815260200190815260200160002060008b73ffffffffffffffffffffffffffffffffffffffff1673ffffffffffffffffffffffffffffffffffffffff168152602001908152602001600020549050818110156109b4576040517f08c379a00000000000000000000000000000000000000000000000000000000081526004016109ab90612e3d565b60405180910390fd5b81816109c091906130b6565b60008085815260200190815260200160002060008c73ffffffffffffffffffffffffffffffffffffffff1673ffffffffffffffffffffffffffffffffffffffff168152602001908152602001600020819055508160008085815260200190815260200160002060008b73ffffffffffffffffffffffffffffffffffffffff1673ffffffffffffffffffffffffffffffffffffffff1681526020019081526020016000206000828254610a729190613060565b9250508190555050505080610a869061320d565b905061088a565b508473ffffffffffffffffffffffffffffffffffffffff168673ffffffffffffffffffffffffffffffffffffffff168273ffffffffffffffffffffffffffffffffffffffff167f4a39dc06d4c0dbc64b70af90fd698a233a518aa5d07e595d983b8c0526c8f7fb8787604051610b04929190612c0e565b60405180910390a4610b1a818787878787611797565b505050505050565b610b3b610b2e8361070c565b610b366115db565b610dc2565b610b7a576040517f08c379a0000000000000000000000000000000000000000000000000000000008152600401610b7190612cdd565b60405180910390fd5b610b84828261197e565b5050565b610b906115db565b73ffffffffffffffffffffffffffffffffffffffff168173ffffffffffffffffffffffffffffffffffffffff1614610bfd576040517f08c379a0000000000000000000000000000000000000000000000000000000008152600401610bf490612edd565b60405180910390fd5b610c078282611a5f565b5050565b60608151835114610c51576040517f08c379a0000000000000000000000000000000000000000000000000000000008152600401610c4890612e7d565b60405180910390fd5b6000835167ffffffffffffffff811115610c94577f4e487b7100000000000000000000000000000000000000000000000000000000600052604160045260246000fd5b604051908082528060200260200182016040528015610cc25781602001602082028036833780820191505090505b50905060005b8451811015610db157610d5b858281518110610d0d577f4e487b7100000000000000000000000000000000000000000000000000000000600052603260045260246000fd5b6020026020010151858381518110610d4e577f4e487b7100000000000000000000000000000000000000000000000000000000600052603260045260246000fd5b6020026020010151610455565b828281518110610d94577f4e487b7100000000000000000000000000000000000000000000000000000000600052603260045260246000fd5b60200260200101818152505080610daa9061320d565b9050610cc8565b508091505092915050565b60045481565b60006003600084815260200190815260200160002060000160008373ffffffffffffffffffffffffffffffffffffffff1673ffffffffffffffffffffffffffffffffffffffff16815260200190815260200160002060009054906101000a900460ff16905092915050565b60066020528060005260406000206000915090505481565b6000801b81565b8173ffffffffffffffffffffffffffffffffffffffff16610e6b6115db565b73ffffffffffffffffffffffffffffffffffffffff161415610ec2576040517f08c379a0000000000000000000000000000000000000000000000000000000008152600401610eb990612e5d565b60405180910390fd5b8060016000610ecf6115db565b73ffffffffffffffffffffffffffffffffffffffff1673ffffffffffffffffffffffffffffffffffffffff16815260200190815260200160002060008473ffffffffffffffffffffffffffffffffffffffff1673ffffffffffffffffffffffffffffffffffffffff16815260200190815260200160002060006101000a81548160ff0219169083151502179055508173ffffffffffffffffffffffffffffffffffffffff16610f7c6115db565b73ffffffffffffffffffffffffffffffffffffffff167f17307eab39ab6107e8899845ad3d59bd9653f200f220920489ca2b5937696c3183604051610fc19190612c45565b60405180910390a35050565b610fdf610fd86115db565b8383611b41565b5050565b60056020528060005260406000206000915090505481565b7f9f2df0fed2c77648de5860a4cc508cd0818c85b8b8a1ab4ceeef8d981c8956a681565b61103861102b8361070c565b6110336115db565b610dc2565b611077576040517f08c379a000000000000000000000000000000000000000000000000000000000815260040161106e90612d5d565b60405180910390fd5b6110818282611a5f565b5050565b6000600160008473ffffffffffffffffffffffffffffffffffffffff1673ffffffffffffffffffffffffffffffffffffffff16815260200190815260200160002060008373ffffffffffffffffffffffffffffffffffffffff1673ffffffffffffffffffffffffffffffffffffffff16815260200190815260200160002060009054906101000a900460ff16905092915050565b600073ffffffffffffffffffffffffffffffffffffffff168473ffffffffffffffffffffffffffffffffffffffff161415611189576040517f08c379a000000000000000000000000000000000000000000000000000000000815260040161118090612d9d565b60405180910390fd5b6111916115db565b73ffffffffffffffffffffffffffffffffffffffff168573ffffffffffffffffffffffffffffffffffffffff1614806111d757506111d6856111d16115db565b611085565b5b611216576040517f08c379a000000000000000000000000000000000000000000000000000000000815260040161120d90612d3d565b60405180910390fd5b60006112206115db565b905061124081878761123188611d67565b61123a88611d67565b8761178f565b600080600086815260200190815260200160002060008873ffffffffffffffffffffffffffffffffffffffff1673ffffffffffffffffffffffffffffffffffffffff168152602001908152602001600020549050838110156112d7576040517f08c379a00000000000000000000000000000000000000000000000000000000081526004016112ce90612e3d565b60405180910390fd5b83816112e391906130b6565b60008087815260200190815260200160002060008973ffffffffffffffffffffffffffffffffffffffff1673ffffffffffffffffffffffffffffffffffffffff168152602001908152602001600020819055508360008087815260200190815260200160002060008873ffffffffffffffffffffffffffffffffffffffff1673ffffffffffffffffffffffffffffffffffffffff16815260200190815260200160002060008282546113959190613060565b925050819055508573ffffffffffffffffffffffffffffffffffffffff168773ffffffffffffffffffffffffffffffffffffffff168373ffffffffffffffffffffffffffffffffffffffff167fc3d58168c5ae7397731d063d5bbf3d657854427343f4c083240f7aacaa2d0f628888604051611412929190612f18565b60405180910390a4611428828888888888611e2d565b50505050505050565b60006114647f9f2df0fed2c77648de5860a4cc508cd0818c85b8b8a1ab4ceeef8d981c8956a661145f6115db565b610dc2565b6114a3576040517f08c379a000000000000000000000000000000000000000000000000000000000815260040161149a90612ddd565b60405180910390fd5b600082116114e6576040517f08c379a00000000000000000000000000000000000000000000000000000000081526004016114dd90612e1d565b60405180910390fd5b6114fc60016004546115e390919063ffffffff16565b60048190555081600560006004548152602001908152602001600020819055507f62399d91d89d6e694d41e47f3e6010c0e0b4ec78ecdddb1c02d0e321780859b06004548360405161154f929190612f18565b60405180910390a16004549050919050565b60007f7965db0b000000000000000000000000000000000000000000000000000000007bffffffffffffffffffffffffffffffffffffffffffffffffffffffff1916827bffffffffffffffffffffffffffffffffffffffffffffffffffffffff191614806115d457506115d382612014565b5b9050919050565b600033905090565b600081836115f19190613060565b905092915050565b600073ffffffffffffffffffffffffffffffffffffffff168473ffffffffffffffffffffffffffffffffffffffff161415611669576040517f08c379a000000000000000000000000000000000000000000000000000000000815260040161166090612ebd565b60405180910390fd5b60006116736115db565b90506116948160008761168588611d67565b61168e88611d67565b8761178f565b8260008086815260200190815260200160002060008773ffffffffffffffffffffffffffffffffffffffff1673ffffffffffffffffffffffffffffffffffffffff16815260200190815260200160002060008282546116f39190613060565b925050819055508473ffffffffffffffffffffffffffffffffffffffff16600073ffffffffffffffffffffffffffffffffffffffff168273ffffffffffffffffffffffffffffffffffffffff167fc3d58168c5ae7397731d063d5bbf3d657854427343f4c083240f7aacaa2d0f628787604051611771929190612f18565b60405180910390a461178881600087878787611e2d565b5050505050565b505050505050565b6117b68473ffffffffffffffffffffffffffffffffffffffff166120f6565b15611976578373ffffffffffffffffffffffffffffffffffffffff1663bc197c8187878686866040518663ffffffff1660e01b81526004016117fc959493929190612b2a565b602060405180830381600087803b15801561181657600080fd5b505af192505050801561184757506040513d601f19601f8201168201806040525081019061184491906126d0565b60015b6118ed576118536132e3565b806308c379a014156118b0575061186861388e565b8061187357506118b2565b806040517f08c379a00000000000000000000000000000000000000000000000000000000081526004016118a79190612c7b565b60405180910390fd5b505b6040517f08c379a00000000000000000000000000000000000000000000000000000000081526004016118e490612c9d565b60405180910390fd5b63bc197c8160e01b7bffffffffffffffffffffffffffffffffffffffffffffffffffffffff1916817bffffffffffffffffffffffffffffffffffffffffffffffffffffffff191614611974576040517f08c379a000000000000000000000000000000000000000000000000000000000815260040161196b90612cbd565b60405180910390fd5b505b505050505050565b6119888282610dc2565b611a5b5760016003600084815260200190815260200160002060000160008373ffffffffffffffffffffffffffffffffffffffff1673ffffffffffffffffffffffffffffffffffffffff16815260200190815260200160002060006101000a81548160ff021916908315150217905550611a006115db565b73ffffffffffffffffffffffffffffffffffffffff168173ffffffffffffffffffffffffffffffffffffffff16837f2f8788117e7eff1d82e926ec794901d17c78024a50270940304540a733656f0d60405160405180910390a45b5050565b611a698282610dc2565b15611b3d5760006003600084815260200190815260200160002060000160008373ffffffffffffffffffffffffffffffffffffffff1673ffffffffffffffffffffffffffffffffffffffff16815260200190815260200160002060006101000a81548160ff021916908315150217905550611ae26115db565b73ffffffffffffffffffffffffffffffffffffffff168173ffffffffffffffffffffffffffffffffffffffff16837ff6391f5c32d9c69d2a47ea670b442974b53935d1edc7fd64eb21e047a839171b60405160405180910390a45b5050565b600073ffffffffffffffffffffffffffffffffffffffff168373ffffffffffffffffffffffffffffffffffffffff161415611bb1576040517f08c379a0000000000000000000000000000000000000000000000000000000008152600401611ba890612dfd565b60405180910390fd5b6000611bbb6115db565b9050611beb81856000611bcd87611d67565b611bd687611d67565b6040518060200160405280600081525061178f565b600080600085815260200190815260200160002060008673ffffffffffffffffffffffffffffffffffffffff1673ffffffffffffffffffffffffffffffffffffffff16815260200190815260200160002054905082811015611c82576040517f08c379a0000000000000000000000000000000000000000000000000000000008152600401611c7990612d1d565b60405180910390fd5b8281611c8e91906130b6565b60008086815260200190815260200160002060008773ffffffffffffffffffffffffffffffffffffffff1673ffffffffffffffffffffffffffffffffffffffff16815260200190815260200160002081905550600073ffffffffffffffffffffffffffffffffffffffff168573ffffffffffffffffffffffffffffffffffffffff168373ffffffffffffffffffffffffffffffffffffffff167fc3d58168c5ae7397731d063d5bbf3d657854427343f4c083240f7aacaa2d0f628787604051611d58929190612f18565b60405180910390a45050505050565b60606000600167ffffffffffffffff811115611dac577f4e487b7100000000000000000000000000000000000000000000000000000000600052604160045260246000fd5b604051908082528060200260200182016040528015611dda5781602001602082028036833780820191505090505b5090508281600081518110611e18577f4e487b7100000000000000000000000000000000000000000000000000000000600052603260045260246000fd5b60200260200101818152505080915050919050565b611e4c8473ffffffffffffffffffffffffffffffffffffffff166120f6565b1561200c578373ffffffffffffffffffffffffffffffffffffffff1663f23a6e6187878686866040518663ffffffff1660e01b8152600401611e92959493929190612b92565b602060405180830381600087803b158015611eac57600080fd5b505af1925050508015611edd57506040513d601f19601f82011682018060405250810190611eda91906126d0565b60015b611f8357611ee96132e3565b806308c379a01415611f465750611efe61388e565b80611f095750611f48565b806040517f08c379a0000000000000000000000000000000000000000000000000000000008152600401611f3d9190612c7b565b60405180910390fd5b505b6040517f08c379a0000000000000000000000000000000000000000000000000000000008152600401611f7a90612c9d565b60405180910390fd5b63f23a6e6160e01b7bffffffffffffffffffffffffffffffffffffffffffffffffffffffff1916817bffffffffffffffffffffffffffffffffffffffffffffffffffffffff19161461200a576040517f08c379a000000000000000000000000000000000000000000000000000000000815260040161200190612cbd565b60405180910390fd5b505b505050505050565b60007fd9b67a26000000000000000000000000000000000000000000000000000000007bffffffffffffffffffffffffffffffffffffffffffffffffffffffff1916827bffffffffffffffffffffffffffffffffffffffffffffffffffffffff191614806120df57507f0e89341c000000000000000000000000000000000000000000000000000000007bffffffffffffffffffffffffffffffffffffffffffffffffffffffff1916827bffffffffffffffffffffffffffffffffffffffffffffffffffffffff1916145b806120ef57506120ee82612109565b5b9050919050565b600080823b905060008111915050919050565b60007f01ffc9a7000000000000000000000000000000000000000000000000000000007bffffffffffffffffffffffffffffffffffffffffffffffffffffffff1916827bffffffffffffffffffffffffffffffffffffffffffffffffffffffff1916149050919050565b600061218661218184612f66565b612f41565b905080838252602082019050828560208602820111156121a557600080fd5b60005b858110156121d557816121bb8882612289565b8452602084019350602083019250506001810190506121a8565b5050509392505050565b60006121f26121ed84612f92565b612f41565b9050808382526020820190508285602086028201111561221157600080fd5b60005b8581101561224157816122278882612370565b845260208401935060208301925050600181019050612214565b5050509392505050565b600061225e61225984612fbe565b612f41565b90508281526020810184848401111561227657600080fd5b612281848285613168565b509392505050565b60008135905061229881613924565b92915050565b600082601f8301126122af57600080fd5b81356122bf848260208601612173565b91505092915050565b600082601f8301126122d957600080fd5b81356122e98482602086016121df565b91505092915050565b6000813590506123018161393b565b92915050565b60008135905061231681613952565b92915050565b60008135905061232b81613969565b92915050565b60008151905061234081613969565b92915050565b600082601f83011261235757600080fd5b813561236784826020860161224b565b91505092915050565b60008135905061237f81613980565b92915050565b6000806040838503121561239857600080fd5b60006123a685828601612289565b92505060206123b785828601612289565b9150509250929050565b600080600080600060a086880312156123d957600080fd5b60006123e788828901612289565b95505060206123f888828901612289565b945050604086013567ffffffffffffffff81111561241557600080fd5b612421888289016122c8565b935050606086013567ffffffffffffffff81111561243e57600080fd5b61244a888289016122c8565b925050608086013567ffffffffffffffff81111561246757600080fd5b61247388828901612346565b9150509295509295909350565b600080600080600060a0868803121561249857600080fd5b60006124a688828901612289565b95505060206124b788828901612289565b94505060406124c888828901612370565b93505060606124d988828901612370565b925050608086013567ffffffffffffffff8111156124f657600080fd5b61250288828901612346565b9150509295509295909350565b6000806040838503121561252257600080fd5b600061253085828601612289565b9250506020612541858286016122f2565b9150509250929050565b6000806040838503121561255e57600080fd5b600061256c85828601612289565b925050602061257d85828601612370565b9150509250929050565b60008060006060848603121561259c57600080fd5b60006125aa86828701612289565b93505060206125bb86828701612370565b92505060406125cc86828701612370565b9150509250925092565b600080604083850312156125e957600080fd5b600083013567ffffffffffffffff81111561260357600080fd5b61260f8582860161229e565b925050602083013567ffffffffffffffff81111561262c57600080fd5b612638858286016122c8565b9150509250929050565b60006020828403121561265457600080fd5b600061266284828501612307565b91505092915050565b6000806040838503121561267e57600080fd5b600061268c85828601612307565b925050602061269d85828601612289565b9150509250929050565b6000602082840312156126b957600080fd5b60006126c78482850161231c565b91505092915050565b6000602082840312156126e257600080fd5b60006126f084828501612331565b91505092915050565b60006020828403121561270b57600080fd5b600061271984828501612370565b91505092915050565b6000806040838503121561273557600080fd5b600061274385828601612370565b925050602061275485828601612370565b9150509250929050565b600061276a8383612b0c565b60208301905092915050565b61277f816130ea565b82525050565b600061279082612fff565b61279a818561302d565b93506127a583612fef565b8060005b838110156127d65781516127bd888261275e565b97506127c883613020565b9250506001810190506127a9565b5085935050505092915050565b6127ec816130fc565b82525050565b6127fb81613108565b82525050565b600061280c8261300a565b612816818561303e565b9350612826818560208601613177565b61282f81613305565b840191505092915050565b600061284582613015565b61284f818561304f565b935061285f818560208601613177565b61286881613305565b840191505092915050565b600061288060348361304f565b915061288b82613323565b604082019050919050565b60006128a360288361304f565b91506128ae82613372565b604082019050919050565b60006128c6602f8361304f565b91506128d1826133c1565b604082019050919050565b60006128e9602b8361304f565b91506128f482613410565b604082019050919050565b600061290c60248361304f565b91506129178261345f565b604082019050919050565b600061292f60298361304f565b915061293a826134ae565b604082019050919050565b600061295260308361304f565b915061295d826134fd565b604082019050919050565b600061297560158361304f565b91506129808261354c565b602082019050919050565b600061299860258361304f565b91506129a382613575565b604082019050919050565b60006129bb60328361304f565b91506129c6826135c4565b604082019050919050565b60006129de60168361304f565b91506129e982613613565b602082019050919050565b6000612a0160238361304f565b9150612a0c8261363c565b604082019050919050565b6000612a24601b8361304f565b9150612a2f8261368b565b602082019050919050565b6000612a47602a8361304f565b9150612a52826136b4565b604082019050919050565b6000612a6a60298361304f565b9150612a7582613703565b604082019050919050565b6000612a8d60298361304f565b9150612a9882613752565b604082019050919050565b6000612ab060288361304f565b9150612abb826137a1565b604082019050919050565b6000612ad360218361304f565b9150612ade826137f0565b604082019050919050565b6000612af6602f8361304f565b9150612b018261383f565b604082019050919050565b612b158161315e565b82525050565b612b248161315e565b82525050565b600060a082019050612b3f6000830188612776565b612b4c6020830187612776565b8181036040830152612b5e8186612785565b90508181036060830152612b728185612785565b90508181036080830152612b868184612801565b90509695505050505050565b600060a082019050612ba76000830188612776565b612bb46020830187612776565b612bc16040830186612b1b565b612bce6060830185612b1b565b8181036080830152612be08184612801565b90509695505050505050565b60006020820190508181036000830152612c068184612785565b905092915050565b60006040820190508181036000830152612c288185612785565b90508181036020830152612c3c8184612785565b90509392505050565b6000602082019050612c5a60008301846127e3565b92915050565b6000602082019050612c7560008301846127f2565b92915050565b60006020820190508181036000830152612c95818461283a565b905092915050565b60006020820190508181036000830152612cb681612873565b9050919050565b60006020820190508181036000830152612cd681612896565b9050919050565b60006020820190508181036000830152612cf6816128b9565b9050919050565b60006020820190508181036000830152612d16816128dc565b9050919050565b60006020820190508181036000830152612d36816128ff565b9050919050565b60006020820190508181036000830152612d5681612922565b9050919050565b60006020820190508181036000830152612d7681612945565b9050919050565b60006020820190508181036000830152612d9681612968565b9050919050565b60006020820190508181036000830152612db68161298b565b9050919050565b60006020820190508181036000830152612dd6816129ae565b9050919050565b60006020820190508181036000830152612df6816129d1565b9050919050565b60006020820190508181036000830152612e16816129f4565b9050919050565b60006020820190508181036000830152612e3681612a17565b9050919050565b60006020820190508181036000830152612e5681612a3a565b9050919050565b60006020820190508181036000830152612e7681612a5d565b9050919050565b60006020820190508181036000830152612e9681612a80565b9050919050565b60006020820190508181036000830152612eb681612aa3565b9050919050565b60006020820190508181036000830152612ed681612ac6565b9050919050565b60006020820190508181036000830152612ef681612ae9565b9050919050565b6000602082019050612f126000830184612b1b565b92915050565b6000604082019050612f2d6000830185612b1b565b612f3a6020830184612b1b565b9392505050565b6000612f4b612f5c565b9050612f5782826131dc565b919050565b6000604051905090565b600067ffffffffffffffff821115612f8157612f806132b4565b5b602082029050602081019050919050565b600067ffffffffffffffff821115612fad57612fac6132b4565b5b602082029050602081019050919050565b600067ffffffffffffffff821115612fd957612fd86132b4565b5b612fe282613305565b9050602081019050919050565b6000819050602082019050919050565b600081519050919050565b600081519050919050565b600081519050919050565b6000602082019050919050565b600082825260208201905092915050565b600082825260208201905092915050565b600082825260208201905092915050565b600061306b8261315e565b91506130768361315e565b9250827fffffffffffffffffffffffffffffffffffffffffffffffffffffffffffffffff038211156130ab576130aa613256565b5b828201905092915050565b60006130c18261315e565b91506130cc8361315e565b9250828210156130df576130de613256565b5b828203905092915050565b60006130f58261313e565b9050919050565b60008115159050919050565b6000819050919050565b60007fffffffff0000000000000000000000000000000000000000000000000000000082169050919050565b600073ffffffffffffffffffffffffffffffffffffffff82169050919050565b6000819050919050565b82818337600083830152505050565b60005b8381101561319557808201518184015260208101905061317a565b838111156131a4576000848401525b50505050565b600060028204905060018216806131c257607f821691505b602082108114156131d6576131d5613285565b5b50919050565b6131e582613305565b810181811067ffffffffffffffff82111715613204576132036132b4565b5b80604052505050565b60006132188261315e565b91507fffffffffffffffffffffffffffffffffffffffffffffffffffffffffffffffff82141561324b5761324a613256565b5b600182019050919050565b7f4e487b7100000000000000000000000000000000000000000000000000000000600052601160045260246000fd5b7f4e487b7100000000000000000000000000000000000000000000000000000000600052602260045260246000fd5b7f4e487b7100000000000000000000000000000000000000000000000000000000600052604160045260246000fd5b600060033d11156133025760046000803e6132ff600051613316565b90505b90565b6000601f19601f8301169050919050565b60008160e01c9050919050565b7f455243313135353a207472616e7366657220746f206e6f6e204552433131353560008201527f526563656976657220696d706c656d656e746572000000000000000000000000602082015250565b7f455243313135353a204552433131353552656365697665722072656a6563746560008201527f6420746f6b656e73000000000000000000000000000000000000000000000000602082015250565b7f416363657373436f6e74726f6c3a2073656e646572206d75737420626520616e60008201527f2061646d696e20746f206772616e740000000000000000000000000000000000602082015250565b7f455243313135353a2062616c616e636520717565727920666f7220746865207a60008201527f65726f2061646472657373000000000000000000000000000000000000000000602082015250565b7f455243313135353a206275726e20616d6f756e7420657863656564732062616c60008201527f616e636500000000000000000000000000000000000000000000000000000000602082015250565b7f455243313135353a2063616c6c6572206973206e6f74206f776e6572206e6f7260008201527f20617070726f7665640000000000000000000000000000000000000000000000602082015250565b7f416363657373436f6e74726f6c3a2073656e646572206d75737420626520616e60008201527f2061646d696e20746f207265766f6b6500000000000000000000000000000000602082015250565b7f546f74616c20737570706c7920726561636865642e0000000000000000000000600082015250565b7f455243313135353a207472616e7366657220746f20746865207a65726f20616460008201527f6472657373000000000000000000000000000000000000000000000000000000602082015250565b7f455243313135353a207472616e736665722063616c6c6572206973206e6f742060008201527f6f776e6572206e6f7220617070726f7665640000000000000000000000000000602082015250565b7f43616c6c6572206973206e6f742061206d696e74657200000000000000000000600082015250565b7f455243313135353a206275726e2066726f6d20746865207a65726f206164647260008201527f6573730000000000000000000000000000000000000000000000000000000000602082015250565b7f4d6178696d756d20737570706c792063616e206e6f7420626520300000000000600082015250565b7f455243313135353a20696e73756666696369656e742062616c616e636520666f60008201527f72207472616e7366657200000000000000000000000000000000000000000000602082015250565b7f455243313135353a2073657474696e6720617070726f76616c2073746174757360008201527f20666f722073656c660000000000000000000000000000000000000000000000602082015250565b7f455243313135353a206163636f756e747320616e6420696473206c656e67746860008201527f206d69736d617463680000000000000000000000000000000000000000000000602082015250565b7f455243313135353a2069647320616e6420616d6f756e7473206c656e6774682060008201527f6d69736d61746368000000000000000000000000000000000000000000000000602082015250565b7f455243313135353a206d696e7420746f20746865207a65726f2061646472657360008201527f7300000000000000000000000000000000000000000000000000000000000000602082015250565b7f416363657373436f6e74726f6c3a2063616e206f6e6c792072656e6f756e636560008201527f20726f6c657320666f722073656c660000000000000000000000000000000000602082015250565b600060443d101561389e57613921565b6138a6612f5c565b60043d036004823e80513d602482011167ffffffffffffffff821117156138ce575050613921565b808201805167ffffffffffffffff8111156138ec5750505050613921565b80602083010160043d038501811115613909575050505050613921565b613918826020018501866131dc565b82955050505050505b90565b61392d816130ea565b811461393857600080fd5b50565b613944816130fc565b811461394f57600080fd5b50565b61395b81613108565b811461396657600080fd5b50565b61397281613112565b811461397d57600080fd5b50565b6139898161315e565b811461399457600080fd5b5056fea2646970667358221220f8caa6beb6dc37088e945f0abba6edc27812d0390398303230a8668eade5279b64736f6c6343000803003368747470733a2f2f7777772e74726f747465722e66696e616e63652f6170692f4e4654732f",
  "immutableReferences": {},
  "source": "// SPDX-License-Identifier: MIT\npragma solidity >=0.6.12;\n\nimport \"@openzeppelin/contracts/token/ERC1155/ERC1155.sol\";\nimport \"@openzeppelin/contracts/access/AccessControl.sol\";\nimport \"@openzeppelin/contracts/utils/math/SafeMath.sol\";\n\ncontract TrotterNft is ERC1155, AccessControl {\n    using SafeMath for uint256;\n\n    constructor() ERC1155(\"https://www.trotter.finance/api/NFTs/\") {\n        _setupRole(DEFAULT_ADMIN_ROLE, _msgSender());\n    }\n\n    bytes32 public constant MINTER_ROLE = keccak256(\"MINTER_ROLE\");\n\n    uint256 public cards;\n    mapping(uint256 => uint256) public totalSupply;\n    mapping(uint256 => uint256) public circulatingSupply;\n\n    event CardAdded(uint256 id, uint256 maxSupply);\n\n    /**\n     * @notice Creates a new card for unique `NFT`.\n     *\n     * This signifies each unique NFT,\n     *\n     * Each NFT can appear more than once, this is where to declare it before minting a copy.\n     *\n     * The less amount an NFT can be minted determines the value,\n     * Low amount of an NFT in circulation makes it rare and more expensive.\n     *\n     * @param maxSupply The max supply of the NFTs on this card.\n     */\n    function addCard(uint256 maxSupply) public returns (uint256) {\n        require(hasRole(MINTER_ROLE, _msgSender()), \"Caller is not a minter\");\n        require(maxSupply > 0, \"Maximum supply can not be 0\");\n        cards = cards.add(1);\n        totalSupply[cards] = maxSupply;\n        emit CardAdded(cards, maxSupply);\n        return cards;\n    }\n\n    /**\n     * @notice Mints a new NFT to an NFT card.\n     *\n     * @param to Address to receive the new minted NFT.\n     * @param id The card id to mint NFT from.\n     * @param amount The amount of NFT to mint on this card.\n     */\n    function mint(\n        address to,\n        uint256 id,\n        uint256 amount\n    ) public {\n        require(hasRole(MINTER_ROLE, _msgSender()), \"Caller is not a minter\");\n        require(\n            circulatingSupply[id].add(amount) <= totalSupply[id],\n            \"Total supply reached.\"\n        );\n        circulatingSupply[id] = circulatingSupply[id].add(amount);\n        _mint(to, id, amount, \"\");\n    }\n\n    /**\n     * @notice Burn an NFT from NFT card.\n     *\n     * @param id The card id to burn NFT from.\n     * @param amount The amount of NFT to burn from this card.\n     */\n    function burn(uint256 id, uint256 amount) public {\n        _burn(_msgSender(), id, amount);\n    }\n\n    /**\n     * @dev ERC1155 and AccessControl include supportsInterface so we need to override both\n     */\n    function supportsInterface(bytes4 interfaceId)\n        public\n        view\n        virtual\n        override(ERC1155, AccessControl)\n        returns (bool)\n    {\n        return super.supportsInterface(interfaceId);\n    }\n}\n",
  "sourcePath": "/Users/Chris/Coding/Blockchain/trotter-market/contracts/TrotterNft.sol",
  "compiler": {
    "name": "solc",
    "version": "0.8.3+commit.8d00100c.Emscripten.clang"
  },
  "schemaVersion": "3.3.4",
  "updatedAt": "2021-03-29T11:19:53.382Z",
  "devdoc": {
    "kind": "dev",
    "methods": {
      "addCard(uint256)": {
        "params": {
          "maxSupply": "The max supply of the NFTs on this card."
        }
      },
      "balanceOf(address,uint256)": {
        "details": "See {IERC1155-balanceOf}. Requirements: - `account` cannot be the zero address."
      },
      "balanceOfBatch(address[],uint256[])": {
        "details": "See {IERC1155-balanceOfBatch}. Requirements: - `accounts` and `ids` must have the same length."
      },
      "burn(uint256,uint256)": {
        "params": {
          "amount": "The amount of NFT to burn from this card.",
          "id": "The card id to burn NFT from."
        }
      },
      "getRoleAdmin(bytes32)": {
        "details": "Returns the admin role that controls `role`. See {grantRole} and {revokeRole}. To change a role's admin, use {_setRoleAdmin}."
      },
      "grantRole(bytes32,address)": {
        "details": "Grants `role` to `account`. If `account` had not been already granted `role`, emits a {RoleGranted} event. Requirements: - the caller must have ``role``'s admin role."
      },
      "hasRole(bytes32,address)": {
        "details": "Returns `true` if `account` has been granted `role`."
      },
      "isApprovedForAll(address,address)": {
        "details": "See {IERC1155-isApprovedForAll}."
      },
      "mint(address,uint256,uint256)": {
        "params": {
          "amount": "The amount of NFT to mint on this card.",
          "id": "The card id to mint NFT from.",
          "to": "Address to receive the new minted NFT."
        }
      },
      "renounceRole(bytes32,address)": {
        "details": "Revokes `role` from the calling account. Roles are often managed via {grantRole} and {revokeRole}: this function's purpose is to provide a mechanism for accounts to lose their privileges if they are compromised (such as when a trusted device is misplaced). If the calling account had been granted `role`, emits a {RoleRevoked} event. Requirements: - the caller must be `account`."
      },
      "revokeRole(bytes32,address)": {
        "details": "Revokes `role` from `account`. If `account` had been granted `role`, emits a {RoleRevoked} event. Requirements: - the caller must have ``role``'s admin role."
      },
      "safeBatchTransferFrom(address,address,uint256[],uint256[],bytes)": {
        "details": "See {IERC1155-safeBatchTransferFrom}."
      },
      "safeTransferFrom(address,address,uint256,uint256,bytes)": {
        "details": "See {IERC1155-safeTransferFrom}."
      },
      "setApprovalForAll(address,bool)": {
        "details": "See {IERC1155-setApprovalForAll}."
      },
      "supportsInterface(bytes4)": {
        "details": "ERC1155 and AccessControl include supportsInterface so we need to override both"
      },
      "uri(uint256)": {
        "details": "See {IERC1155MetadataURI-uri}. This implementation returns the same URI for *all* token types. It relies on the token type ID substitution mechanism https://eips.ethereum.org/EIPS/eip-1155#metadata[defined in the EIP]. Clients calling this function must replace the `\\{id\\}` substring with the actual token type ID."
      }
    },
    "version": 1
  },
  "userdoc": {
    "kind": "user",
    "methods": {
      "addCard(uint256)": {
        "notice": "Creates a new card for unique `NFT`. This signifies each unique NFT, Each NFT can appear more than once, this is where to declare it before minting a copy. The less amount an NFT can be minted determines the value, Low amount of an NFT in circulation makes it rare and more expensive."
      },
      "burn(uint256,uint256)": {
        "notice": "Burn an NFT from NFT card."
      },
      "mint(address,uint256,uint256)": {
        "notice": "Mints a new NFT to an NFT card."
      }
    },
    "version": 1
  }
}