{
  "contractName": "TrotterNft",
  "abi": [
    {
      "inputs": [],
      "stateMutability": "nonpayable",
      "type": "constructor"
    },
    {
      "anonymous": false,
      "inputs": [
        {
          "indexed": true,
          "internalType": "address",
          "name": "account",
          "type": "address"
        },
        {
          "indexed": true,
          "internalType": "address",
          "name": "operator",
          "type": "address"
        },
        {
          "indexed": false,
          "internalType": "bool",
          "name": "approved",
          "type": "bool"
        }
      ],
      "name": "ApprovalForAll",
      "type": "event"
    },
    {
      "anonymous": false,
      "inputs": [
        {
          "indexed": false,
          "internalType": "uint256",
          "name": "id",
          "type": "uint256"
        },
        {
          "indexed": false,
          "internalType": "uint256",
          "name": "maxSupply",
          "type": "uint256"
        }
      ],
      "name": "CardAdded",
      "type": "event"
    },
    {
      "anonymous": false,
      "inputs": [
        {
          "indexed": true,
          "internalType": "bytes32",
          "name": "role",
          "type": "bytes32"
        },
        {
          "indexed": true,
          "internalType": "bytes32",
          "name": "previousAdminRole",
          "type": "bytes32"
        },
        {
          "indexed": true,
          "internalType": "bytes32",
          "name": "newAdminRole",
          "type": "bytes32"
        }
      ],
      "name": "RoleAdminChanged",
      "type": "event"
    },
    {
      "anonymous": false,
      "inputs": [
        {
          "indexed": true,
          "internalType": "bytes32",
          "name": "role",
          "type": "bytes32"
        },
        {
          "indexed": true,
          "internalType": "address",
          "name": "account",
          "type": "address"
        },
        {
          "indexed": true,
          "internalType": "address",
          "name": "sender",
          "type": "address"
        }
      ],
      "name": "RoleGranted",
      "type": "event"
    },
    {
      "anonymous": false,
      "inputs": [
        {
          "indexed": true,
          "internalType": "bytes32",
          "name": "role",
          "type": "bytes32"
        },
        {
          "indexed": true,
          "internalType": "address",
          "name": "account",
          "type": "address"
        },
        {
          "indexed": true,
          "internalType": "address",
          "name": "sender",
          "type": "address"
        }
      ],
      "name": "RoleRevoked",
      "type": "event"
    },
    {
      "anonymous": false,
      "inputs": [
        {
          "indexed": true,
          "internalType": "address",
          "name": "operator",
          "type": "address"
        },
        {
          "indexed": true,
          "internalType": "address",
          "name": "from",
          "type": "address"
        },
        {
          "indexed": true,
          "internalType": "address",
          "name": "to",
          "type": "address"
        },
        {
          "indexed": false,
          "internalType": "uint256[]",
          "name": "ids",
          "type": "uint256[]"
        },
        {
          "indexed": false,
          "internalType": "uint256[]",
          "name": "values",
          "type": "uint256[]"
        }
      ],
      "name": "TransferBatch",
      "type": "event"
    },
    {
      "anonymous": false,
      "inputs": [
        {
          "indexed": true,
          "internalType": "address",
          "name": "operator",
          "type": "address"
        },
        {
          "indexed": true,
          "internalType": "address",
          "name": "from",
          "type": "address"
        },
        {
          "indexed": true,
          "internalType": "address",
          "name": "to",
          "type": "address"
        },
        {
          "indexed": false,
          "internalType": "uint256",
          "name": "id",
          "type": "uint256"
        },
        {
          "indexed": false,
          "internalType": "uint256",
          "name": "value",
          "type": "uint256"
        }
      ],
      "name": "TransferSingle",
      "type": "event"
    },
    {
      "anonymous": false,
      "inputs": [
        {
          "indexed": false,
          "internalType": "string",
          "name": "value",
          "type": "string"
        },
        {
          "indexed": true,
          "internalType": "uint256",
          "name": "id",
          "type": "uint256"
        }
      ],
      "name": "URI",
      "type": "event"
    },
    {
      "inputs": [],
      "name": "DEFAULT_ADMIN_ROLE",
      "outputs": [
        {
          "internalType": "bytes32",
          "name": "",
          "type": "bytes32"
        }
      ],
      "stateMutability": "view",
      "type": "function",
      "constant": true
    },
    {
      "inputs": [],
      "name": "MINTER_ROLE",
      "outputs": [
        {
          "internalType": "bytes32",
          "name": "",
          "type": "bytes32"
        }
      ],
      "stateMutability": "view",
      "type": "function",
      "constant": true
    },
    {
      "inputs": [
        {
          "internalType": "address",
          "name": "account",
          "type": "address"
        },
        {
          "internalType": "uint256",
          "name": "id",
          "type": "uint256"
        }
      ],
      "name": "balanceOf",
      "outputs": [
        {
          "internalType": "uint256",
          "name": "",
          "type": "uint256"
        }
      ],
      "stateMutability": "view",
      "type": "function",
      "constant": true
    },
    {
      "inputs": [
        {
          "internalType": "address[]",
          "name": "accounts",
          "type": "address[]"
        },
        {
          "internalType": "uint256[]",
          "name": "ids",
          "type": "uint256[]"
        }
      ],
      "name": "balanceOfBatch",
      "outputs": [
        {
          "internalType": "uint256[]",
          "name": "",
          "type": "uint256[]"
        }
      ],
      "stateMutability": "view",
      "type": "function",
      "constant": true
    },
    {
      "inputs": [],
      "name": "cards",
      "outputs": [
        {
          "internalType": "uint256",
          "name": "",
          "type": "uint256"
        }
      ],
      "stateMutability": "view",
      "type": "function",
      "constant": true
    },
    {
      "inputs": [
        {
          "internalType": "uint256",
          "name": "",
          "type": "uint256"
        }
      ],
      "name": "circulatingSupply",
      "outputs": [
        {
          "internalType": "uint256",
          "name": "",
          "type": "uint256"
        }
      ],
      "stateMutability": "view",
      "type": "function",
      "constant": true
    },
    {
      "inputs": [
        {
          "internalType": "bytes32",
          "name": "role",
          "type": "bytes32"
        }
      ],
      "name": "getRoleAdmin",
      "outputs": [
        {
          "internalType": "bytes32",
          "name": "",
          "type": "bytes32"
        }
      ],
      "stateMutability": "view",
      "type": "function",
      "constant": true
    },
    {
      "inputs": [
        {
          "internalType": "bytes32",
          "name": "role",
          "type": "bytes32"
        },
        {
          "internalType": "address",
          "name": "account",
          "type": "address"
        }
      ],
      "name": "grantRole",
      "outputs": [],
      "stateMutability": "nonpayable",
      "type": "function"
    },
    {
      "inputs": [
        {
          "internalType": "bytes32",
          "name": "role",
          "type": "bytes32"
        },
        {
          "internalType": "address",
          "name": "account",
          "type": "address"
        }
      ],
      "name": "hasRole",
      "outputs": [
        {
          "internalType": "bool",
          "name": "",
          "type": "bool"
        }
      ],
      "stateMutability": "view",
      "type": "function",
      "constant": true
    },
    {
      "inputs": [
        {
          "internalType": "address",
          "name": "account",
          "type": "address"
        },
        {
          "internalType": "address",
          "name": "operator",
          "type": "address"
        }
      ],
      "name": "isApprovedForAll",
      "outputs": [
        {
          "internalType": "bool",
          "name": "",
          "type": "bool"
        }
      ],
      "stateMutability": "view",
      "type": "function",
      "constant": true
    },
    {
      "inputs": [
        {
          "internalType": "uint256",
          "name": "",
          "type": "uint256"
        }
      ],
      "name": "nfts",
      "outputs": [
        {
          "internalType": "string",
          "name": "name",
          "type": "string"
        },
        {
          "internalType": "string",
          "name": "ipfsHash",
          "type": "string"
        }
      ],
      "stateMutability": "view",
      "type": "function",
      "constant": true
    },
    {
      "inputs": [
        {
          "internalType": "bytes32",
          "name": "role",
          "type": "bytes32"
        },
        {
          "internalType": "address",
          "name": "account",
          "type": "address"
        }
      ],
      "name": "renounceRole",
      "outputs": [],
      "stateMutability": "nonpayable",
      "type": "function"
    },
    {
      "inputs": [
        {
          "internalType": "bytes32",
          "name": "role",
          "type": "bytes32"
        },
        {
          "internalType": "address",
          "name": "account",
          "type": "address"
        }
      ],
      "name": "revokeRole",
      "outputs": [],
      "stateMutability": "nonpayable",
      "type": "function"
    },
    {
      "inputs": [
        {
          "internalType": "address",
          "name": "from",
          "type": "address"
        },
        {
          "internalType": "address",
          "name": "to",
          "type": "address"
        },
        {
          "internalType": "uint256[]",
          "name": "ids",
          "type": "uint256[]"
        },
        {
          "internalType": "uint256[]",
          "name": "amounts",
          "type": "uint256[]"
        },
        {
          "internalType": "bytes",
          "name": "data",
          "type": "bytes"
        }
      ],
      "name": "safeBatchTransferFrom",
      "outputs": [],
      "stateMutability": "nonpayable",
      "type": "function"
    },
    {
      "inputs": [
        {
          "internalType": "address",
          "name": "from",
          "type": "address"
        },
        {
          "internalType": "address",
          "name": "to",
          "type": "address"
        },
        {
          "internalType": "uint256",
          "name": "id",
          "type": "uint256"
        },
        {
          "internalType": "uint256",
          "name": "amount",
          "type": "uint256"
        },
        {
          "internalType": "bytes",
          "name": "data",
          "type": "bytes"
        }
      ],
      "name": "safeTransferFrom",
      "outputs": [],
      "stateMutability": "nonpayable",
      "type": "function"
    },
    {
      "inputs": [
        {
          "internalType": "address",
          "name": "operator",
          "type": "address"
        },
        {
          "internalType": "bool",
          "name": "approved",
          "type": "bool"
        }
      ],
      "name": "setApprovalForAll",
      "outputs": [],
      "stateMutability": "nonpayable",
      "type": "function"
    },
    {
      "inputs": [
        {
          "internalType": "uint256",
          "name": "",
          "type": "uint256"
        }
      ],
      "name": "totalSupply",
      "outputs": [
        {
          "internalType": "uint256",
          "name": "",
          "type": "uint256"
        }
      ],
      "stateMutability": "view",
      "type": "function",
      "constant": true
    },
    {
      "inputs": [
        {
          "internalType": "uint256",
          "name": "",
          "type": "uint256"
        }
      ],
      "name": "uri",
      "outputs": [
        {
          "internalType": "string",
          "name": "",
          "type": "string"
        }
      ],
      "stateMutability": "view",
      "type": "function",
      "constant": true
    },
    {
      "inputs": [],
      "name": "contractURI",
      "outputs": [
        {
          "internalType": "string",
          "name": "",
          "type": "string"
        }
      ],
      "stateMutability": "view",
      "type": "function",
      "constant": true
    },
    {
      "inputs": [
        {
          "internalType": "string",
          "name": "name",
          "type": "string"
        },
        {
          "internalType": "string",
          "name": "ipfsHash",
          "type": "string"
        },
        {
          "internalType": "address",
          "name": "newOwner",
          "type": "address"
        },
        {
          "internalType": "uint256",
          "name": "maxSupply",
          "type": "uint256"
        },
        {
          "internalType": "uint256",
          "name": "initialSupply",
          "type": "uint256"
        }
      ],
      "name": "createNftCard",
      "outputs": [],
      "stateMutability": "nonpayable",
      "type": "function"
    },
    {
      "inputs": [
        {
          "internalType": "uint256",
          "name": "maxSupply",
          "type": "uint256"
        }
      ],
      "name": "addCard",
      "outputs": [
        {
          "internalType": "uint256",
          "name": "",
          "type": "uint256"
        }
      ],
      "stateMutability": "nonpayable",
      "type": "function"
    },
    {
      "inputs": [
        {
          "internalType": "address",
          "name": "to",
          "type": "address"
        },
        {
          "internalType": "uint256",
          "name": "id",
          "type": "uint256"
        },
        {
          "internalType": "uint256",
          "name": "amount",
          "type": "uint256"
        }
      ],
      "name": "mint",
      "outputs": [],
      "stateMutability": "nonpayable",
      "type": "function"
    },
    {
      "inputs": [
        {
          "internalType": "uint256",
          "name": "id",
          "type": "uint256"
        },
        {
          "internalType": "uint256",
          "name": "amount",
          "type": "uint256"
        }
      ],
      "name": "burn",
      "outputs": [],
      "stateMutability": "nonpayable",
      "type": "function"
    },
    {
      "inputs": [
        {
          "internalType": "bytes4",
          "name": "interfaceId",
          "type": "bytes4"
        }
      ],
      "name": "supportsInterface",
      "outputs": [
        {
          "internalType": "bool",
          "name": "",
          "type": "bool"
        }
      ],
      "stateMutability": "view",
      "type": "function",
      "constant": true
    }
  ],
  "bytecode": "0x60806040523480156200001157600080fd5b5060405180606001604052806025815260200162004290602591396200003d816200006860201b60201c565b50620000626000801b620000566200008460201b60201c565b6200008c60201b60201c565b62000314565b806002908051906020019062000080929190620001ff565b5050565b600033905090565b6200009e8282620000a260201b60201c565b5050565b620000b482826200019460201b60201c565b620001905760016003600084815260200190815260200160002060000160008373ffffffffffffffffffffffffffffffffffffffff1673ffffffffffffffffffffffffffffffffffffffff16815260200190815260200160002060006101000a81548160ff021916908315150217905550620001356200008460201b60201c565b73ffffffffffffffffffffffffffffffffffffffff168173ffffffffffffffffffffffffffffffffffffffff16837f2f8788117e7eff1d82e926ec794901d17c78024a50270940304540a733656f0d60405160405180910390a45b5050565b60006003600084815260200190815260200160002060000160008373ffffffffffffffffffffffffffffffffffffffff1673ffffffffffffffffffffffffffffffffffffffff16815260200190815260200160002060009054906101000a900460ff16905092915050565b8280546200020d90620002af565b90600052602060002090601f0160209004810192826200023157600085556200027d565b82601f106200024c57805160ff19168380011785556200027d565b828001600101855582156200027d579182015b828111156200027c5782518255916020019190600101906200025f565b5b5090506200028c919062000290565b5090565b5b80821115620002ab57600081600090555060010162000291565b5090565b60006002820490506001821680620002c857607f821691505b60208210811415620002df57620002de620002e5565b5b50919050565b7f4e487b7100000000000000000000000000000000000000000000000000000000600052602260045260246000fd5b613f6c80620003246000396000f3fe608060405234801561001057600080fd5b50600436106101575760003560e01c806392ff6aea116100c3578063d547741f1161007c578063d547741f1461040f578063e8a3d4851461042b578063e985e9c514610449578063e9c635be14610479578063f242432a14610495578063f9e53755146104b157610157565b806392ff6aea1461033b578063a217fddf1461036b578063a22cb46514610389578063b390c0ab146103a5578063bd85b039146103c1578063d5391393146103f157610157565b80632eb2c2d6116101155780632eb2c2d6146102695780632f2ff15d1461028557806336568abe146102a15780634e1273f4146102bd57806358a4903f146102ed57806391d148541461030b57610157565b8062fdd58e1461015c57806301ffc9a71461018c5780630e89341c146101bc578063156e29f6146101ec578063248a9ca314610208578063265aa62114610238575b600080fd5b6101766004803603810190610171919061296f565b6104e1565b6040516101839190613442565b60405180910390f35b6101a660048036038101906101a19190612acb565b6105aa565b6040516101b39190613133565b60405180910390f35b6101d660048036038101906101d19190612bc4565b6105bc565b6040516101e39190613169565b60405180910390f35b610206600480360381019061020191906129ab565b610650565b005b610222600480360381019061021d9190612a66565b610798565b60405161022f919061314e565b60405180910390f35b610252600480360381019061024d9190612bc4565b6107b8565b60405161026092919061318b565b60405180910390f35b610283600480360381019061027e91906127e5565b6108fc565b005b61029f600480360381019061029a9190612a8f565b610cf2565b005b6102bb60048036038101906102b69190612a8f565b610d58565b005b6102d760048036038101906102d291906129fa565b610ddb565b6040516102e491906130da565b60405180910390f35b6102f5610f8c565b6040516103029190613442565b60405180910390f35b61032560048036038101906103209190612a8f565b610f92565b6040516103329190613133565b60405180910390f35b61035560048036038101906103509190612bc4565b610ffd565b6040516103629190613442565b60405180910390f35b610373611015565b604051610380919061314e565b60405180910390f35b6103a3600480360381019061039e9190612933565b61101c565b005b6103bf60048036038101906103ba9190612bed565b61119d565b005b6103db60048036038101906103d69190612bc4565b6111f0565b6040516103e89190613442565b60405180910390f35b6103f9611208565b604051610406919061314e565b60405180910390f35b61042960048036038101906104249190612a8f565b61122c565b005b610433611292565b6040516104409190613169565b60405180910390f35b610463600480360381019061045e91906127a9565b6112a3565b6040516104709190613133565b60405180910390f35b610493600480360381019061048e9190612b1d565b611337565b005b6104af60048036038101906104aa91906128a4565b61141c565b005b6104cb60048036038101906104c69190612bc4565b611734565b6040516104d89190613442565b60405180910390f35b60008073ffffffffffffffffffffffffffffffffffffffff168373ffffffffffffffffffffffffffffffffffffffff161415610552576040517f08c379a000000000000000000000000000000000000000000000000000000000815260040161054990613222565b60405180910390fd5b60008083815260200190815260200160002060008473ffffffffffffffffffffffffffffffffffffffff1673ffffffffffffffffffffffffffffffffffffffff16815260200190815260200160002054905092915050565b60006105b582611864565b9050919050565b6060600280546105cb90613720565b80601f01602080910402602001604051908101604052809291908181526020018280546105f790613720565b80156106445780601f1061061957610100808354040283529160200191610644565b820191906000526020600020905b81548152906001019060200180831161062757829003601f168201915b50505050509050919050565b6106817f9f2df0fed2c77648de5860a4cc508cd0818c85b8b8a1ab4ceeef8d981c8956a661067c6118de565b610f92565b6106c0576040517f08c379a00000000000000000000000000000000000000000000000000000000081526004016106b790613322565b60405180910390fd5b60066000838152602001908152602001600020546106fa8260076000868152602001908152602001600020546118e690919063ffffffff16565b111561073b576040517f08c379a0000000000000000000000000000000000000000000000000000000008152600401610732906132c2565b60405180910390fd5b610756838383604051806020016040528060008152506118fc565b61077c8160076000858152602001908152602001600020546118e690919063ffffffff16565b6007600084815260200190815260200160002081905550505050565b600060036000838152602001908152602001600020600101549050919050565b600581815481106107c857600080fd5b90600052602060002090600202016000915090508060000180546107eb90613720565b80601f016020809104026020016040519081016040528092919081815260200182805461081790613720565b80156108645780601f1061083957610100808354040283529160200191610864565b820191906000526020600020905b81548152906001019060200180831161084757829003601f168201915b50505050509080600101805461087990613720565b80601f01602080910402602001604051908101604052809291908181526020018280546108a590613720565b80156108f25780601f106108c7576101008083540402835291602001916108f2565b820191906000526020600020905b8154815290600101906020018083116108d557829003601f168201915b5050505050905082565b8151835114610940576040517f08c379a0000000000000000000000000000000000000000000000000000000008152600401610937906133e2565b60405180910390fd5b600073ffffffffffffffffffffffffffffffffffffffff168473ffffffffffffffffffffffffffffffffffffffff1614156109b0576040517f08c379a00000000000000000000000000000000000000000000000000000000081526004016109a7906132e2565b60405180910390fd5b6109b86118de565b73ffffffffffffffffffffffffffffffffffffffff168573ffffffffffffffffffffffffffffffffffffffff1614806109fe57506109fd856109f86118de565b6112a3565b5b610a3d576040517f08c379a0000000000000000000000000000000000000000000000000000000008152600401610a3490613302565b60405180910390fd5b6000610a476118de565b9050610a57818787878787611a92565b60005b8451811015610c5d576000858281518110610a9e577f4e487b7100000000000000000000000000000000000000000000000000000000600052603260045260246000fd5b602002602001015190506000858381518110610ae3577f4e487b7100000000000000000000000000000000000000000000000000000000600052603260045260246000fd5b60200260200101519050600080600084815260200190815260200160002060008b73ffffffffffffffffffffffffffffffffffffffff1673ffffffffffffffffffffffffffffffffffffffff16815260200190815260200160002054905081811015610b84576040517f08c379a0000000000000000000000000000000000000000000000000000000008152600401610b7b90613382565b60405180910390fd5b8181610b90919061362c565b60008085815260200190815260200160002060008c73ffffffffffffffffffffffffffffffffffffffff1673ffffffffffffffffffffffffffffffffffffffff168152602001908152602001600020819055508160008085815260200190815260200160002060008b73ffffffffffffffffffffffffffffffffffffffff1673ffffffffffffffffffffffffffffffffffffffff1681526020019081526020016000206000828254610c4291906135d6565b9250508190555050505080610c5690613783565b9050610a5a565b508473ffffffffffffffffffffffffffffffffffffffff168673ffffffffffffffffffffffffffffffffffffffff168273ffffffffffffffffffffffffffffffffffffffff167f4a39dc06d4c0dbc64b70af90fd698a233a518aa5d07e595d983b8c0526c8f7fb8787604051610cd49291906130fc565b60405180910390a4610cea818787878787611a9a565b505050505050565b610d0b610cfe83610798565b610d066118de565b610f92565b610d4a576040517f08c379a0000000000000000000000000000000000000000000000000000000008152600401610d4190613202565b60405180910390fd5b610d548282611c81565b5050565b610d606118de565b73ffffffffffffffffffffffffffffffffffffffff168173ffffffffffffffffffffffffffffffffffffffff1614610dcd576040517f08c379a0000000000000000000000000000000000000000000000000000000008152600401610dc490613422565b60405180910390fd5b610dd78282611d62565b5050565b60608151835114610e21576040517f08c379a0000000000000000000000000000000000000000000000000000000008152600401610e18906133c2565b60405180910390fd5b6000835167ffffffffffffffff811115610e64577f4e487b7100000000000000000000000000000000000000000000000000000000600052604160045260246000fd5b604051908082528060200260200182016040528015610e925781602001602082028036833780820191505090505b50905060005b8451811015610f8157610f2b858281518110610edd577f4e487b7100000000000000000000000000000000000000000000000000000000600052603260045260246000fd5b6020026020010151858381518110610f1e577f4e487b7100000000000000000000000000000000000000000000000000000000600052603260045260246000fd5b60200260200101516104e1565b828281518110610f64577f4e487b7100000000000000000000000000000000000000000000000000000000600052603260045260246000fd5b60200260200101818152505080610f7a90613783565b9050610e98565b508091505092915050565b60045481565b60006003600084815260200190815260200160002060000160008373ffffffffffffffffffffffffffffffffffffffff1673ffffffffffffffffffffffffffffffffffffffff16815260200190815260200160002060009054906101000a900460ff16905092915050565b60076020528060005260406000206000915090505481565b6000801b81565b8173ffffffffffffffffffffffffffffffffffffffff1661103b6118de565b73ffffffffffffffffffffffffffffffffffffffff161415611092576040517f08c379a0000000000000000000000000000000000000000000000000000000008152600401611089906133a2565b60405180910390fd5b806001600061109f6118de565b73ffffffffffffffffffffffffffffffffffffffff1673ffffffffffffffffffffffffffffffffffffffff16815260200190815260200160002060008473ffffffffffffffffffffffffffffffffffffffff1673ffffffffffffffffffffffffffffffffffffffff16815260200190815260200160002060006101000a81548160ff0219169083151502179055508173ffffffffffffffffffffffffffffffffffffffff1661114c6118de565b73ffffffffffffffffffffffffffffffffffffffff167f17307eab39ab6107e8899845ad3d59bd9653f200f220920489ca2b5937696c31836040516111919190613133565b60405180910390a35050565b6111af6111a86118de565b8383611e44565b6111d581600760008581526020019081526020016000205461206a90919063ffffffff16565b60076000848152602001908152602001600020819055505050565b60066020528060005260406000206000915090505481565b7f9f2df0fed2c77648de5860a4cc508cd0818c85b8b8a1ab4ceeef8d981c8956a681565b61124561123883610798565b6112406118de565b610f92565b611284576040517f08c379a000000000000000000000000000000000000000000000000000000000815260040161127b906132a2565b60405180910390fd5b61128e8282611d62565b5050565b606061129e60006105bc565b905090565b6000600160008473ffffffffffffffffffffffffffffffffffffffff1673ffffffffffffffffffffffffffffffffffffffff16815260200190815260200160002060008373ffffffffffffffffffffffffffffffffffffffff1673ffffffffffffffffffffffffffffffffffffffff16815260200190815260200160002060009054906101000a900460ff16905092915050565b6000811161137a576040517f08c379a000000000000000000000000000000000000000000000000000000000815260040161137190613282565b60405180910390fd5b60006040518060400160405280878152602001868152509050600061139e84611734565b9050600582908060018154018082558091505060019003906000526020600020906002020160009091909190915060008201518160000190805190602001906113e892919061248c565b50602082015181600101908051906020019061140592919061248c565b505050611413858285610650565b50505050505050565b600073ffffffffffffffffffffffffffffffffffffffff168473ffffffffffffffffffffffffffffffffffffffff16141561148c576040517f08c379a0000000000000000000000000000000000000000000000000000000008152600401611483906132e2565b60405180910390fd5b6114946118de565b73ffffffffffffffffffffffffffffffffffffffff168573ffffffffffffffffffffffffffffffffffffffff1614806114da57506114d9856114d46118de565b6112a3565b5b611519576040517f08c379a000000000000000000000000000000000000000000000000000000000815260040161151090613262565b60405180910390fd5b60006115236118de565b905061154381878761153488612080565b61153d88612080565b87611a92565b600080600086815260200190815260200160002060008873ffffffffffffffffffffffffffffffffffffffff1673ffffffffffffffffffffffffffffffffffffffff168152602001908152602001600020549050838110156115da576040517f08c379a00000000000000000000000000000000000000000000000000000000081526004016115d190613382565b60405180910390fd5b83816115e6919061362c565b60008087815260200190815260200160002060008973ffffffffffffffffffffffffffffffffffffffff1673ffffffffffffffffffffffffffffffffffffffff168152602001908152602001600020819055508360008087815260200190815260200160002060008873ffffffffffffffffffffffffffffffffffffffff1673ffffffffffffffffffffffffffffffffffffffff168152602001908152602001600020600082825461169891906135d6565b925050819055508573ffffffffffffffffffffffffffffffffffffffff168773ffffffffffffffffffffffffffffffffffffffff168373ffffffffffffffffffffffffffffffffffffffff167fc3d58168c5ae7397731d063d5bbf3d657854427343f4c083240f7aacaa2d0f62888860405161171592919061345d565b60405180910390a461172b828888888888612146565b50505050505050565b60006117677f9f2df0fed2c77648de5860a4cc508cd0818c85b8b8a1ab4ceeef8d981c8956a66117626118de565b610f92565b6117a6576040517f08c379a000000000000000000000000000000000000000000000000000000000815260040161179d90613322565b60405180910390fd5b600082116117e9576040517f08c379a00000000000000000000000000000000000000000000000000000000081526004016117e090613362565b60405180910390fd5b6117ff60016004546118e690919063ffffffff16565b60048190555081600660006004548152602001908152602001600020819055507f62399d91d89d6e694d41e47f3e6010c0e0b4ec78ecdddb1c02d0e321780859b06004548360405161185292919061345d565b60405180910390a16004549050919050565b60007f7965db0b000000000000000000000000000000000000000000000000000000007bffffffffffffffffffffffffffffffffffffffffffffffffffffffff1916827bffffffffffffffffffffffffffffffffffffffffffffffffffffffff191614806118d757506118d68261232d565b5b9050919050565b600033905090565b600081836118f491906135d6565b905092915050565b600073ffffffffffffffffffffffffffffffffffffffff168473ffffffffffffffffffffffffffffffffffffffff16141561196c576040517f08c379a000000000000000000000000000000000000000000000000000000000815260040161196390613402565b60405180910390fd5b60006119766118de565b90506119978160008761198888612080565b61199188612080565b87611a92565b8260008086815260200190815260200160002060008773ffffffffffffffffffffffffffffffffffffffff1673ffffffffffffffffffffffffffffffffffffffff16815260200190815260200160002060008282546119f691906135d6565b925050819055508473ffffffffffffffffffffffffffffffffffffffff16600073ffffffffffffffffffffffffffffffffffffffff168273ffffffffffffffffffffffffffffffffffffffff167fc3d58168c5ae7397731d063d5bbf3d657854427343f4c083240f7aacaa2d0f628787604051611a7492919061345d565b60405180910390a4611a8b81600087878787612146565b5050505050565b505050505050565b611ab98473ffffffffffffffffffffffffffffffffffffffff1661240f565b15611c79578373ffffffffffffffffffffffffffffffffffffffff1663bc197c8187878686866040518663ffffffff1660e01b8152600401611aff959493929190613018565b602060405180830381600087803b158015611b1957600080fd5b505af1925050508015611b4a57506040513d601f19601f82011682018060405250810190611b479190612af4565b60015b611bf057611b56613859565b806308c379a01415611bb35750611b6b613e2d565b80611b765750611bb5565b806040517f08c379a0000000000000000000000000000000000000000000000000000000008152600401611baa9190613169565b60405180910390fd5b505b6040517f08c379a0000000000000000000000000000000000000000000000000000000008152600401611be7906131c2565b60405180910390fd5b63bc197c8160e01b7bffffffffffffffffffffffffffffffffffffffffffffffffffffffff1916817bffffffffffffffffffffffffffffffffffffffffffffffffffffffff191614611c77576040517f08c379a0000000000000000000000000000000000000000000000000000000008152600401611c6e906131e2565b60405180910390fd5b505b505050505050565b611c8b8282610f92565b611d5e5760016003600084815260200190815260200160002060000160008373ffffffffffffffffffffffffffffffffffffffff1673ffffffffffffffffffffffffffffffffffffffff16815260200190815260200160002060006101000a81548160ff021916908315150217905550611d036118de565b73ffffffffffffffffffffffffffffffffffffffff168173ffffffffffffffffffffffffffffffffffffffff16837f2f8788117e7eff1d82e926ec794901d17c78024a50270940304540a733656f0d60405160405180910390a45b5050565b611d6c8282610f92565b15611e405760006003600084815260200190815260200160002060000160008373ffffffffffffffffffffffffffffffffffffffff1673ffffffffffffffffffffffffffffffffffffffff16815260200190815260200160002060006101000a81548160ff021916908315150217905550611de56118de565b73ffffffffffffffffffffffffffffffffffffffff168173ffffffffffffffffffffffffffffffffffffffff16837ff6391f5c32d9c69d2a47ea670b442974b53935d1edc7fd64eb21e047a839171b60405160405180910390a45b5050565b600073ffffffffffffffffffffffffffffffffffffffff168373ffffffffffffffffffffffffffffffffffffffff161415611eb4576040517f08c379a0000000000000000000000000000000000000000000000000000000008152600401611eab90613342565b60405180910390fd5b6000611ebe6118de565b9050611eee81856000611ed087612080565b611ed987612080565b60405180602001604052806000815250611a92565b600080600085815260200190815260200160002060008673ffffffffffffffffffffffffffffffffffffffff1673ffffffffffffffffffffffffffffffffffffffff16815260200190815260200160002054905082811015611f85576040517f08c379a0000000000000000000000000000000000000000000000000000000008152600401611f7c90613242565b60405180910390fd5b8281611f91919061362c565b60008086815260200190815260200160002060008773ffffffffffffffffffffffffffffffffffffffff1673ffffffffffffffffffffffffffffffffffffffff16815260200190815260200160002081905550600073ffffffffffffffffffffffffffffffffffffffff168573ffffffffffffffffffffffffffffffffffffffff168373ffffffffffffffffffffffffffffffffffffffff167fc3d58168c5ae7397731d063d5bbf3d657854427343f4c083240f7aacaa2d0f62878760405161205b92919061345d565b60405180910390a45050505050565b60008183612078919061362c565b905092915050565b60606000600167ffffffffffffffff8111156120c5577f4e487b7100000000000000000000000000000000000000000000000000000000600052604160045260246000fd5b6040519080825280602002602001820160405280156120f35781602001602082028036833780820191505090505b5090508281600081518110612131577f4e487b7100000000000000000000000000000000000000000000000000000000600052603260045260246000fd5b60200260200101818152505080915050919050565b6121658473ffffffffffffffffffffffffffffffffffffffff1661240f565b15612325578373ffffffffffffffffffffffffffffffffffffffff1663f23a6e6187878686866040518663ffffffff1660e01b81526004016121ab959493929190613080565b602060405180830381600087803b1580156121c557600080fd5b505af19250505080156121f657506040513d601f19601f820116820180604052508101906121f39190612af4565b60015b61229c57612202613859565b806308c379a0141561225f5750612217613e2d565b806122225750612261565b806040517f08c379a00000000000000000000000000000000000000000000000000000000081526004016122569190613169565b60405180910390fd5b505b6040517f08c379a0000000000000000000000000000000000000000000000000000000008152600401612293906131c2565b60405180910390fd5b63f23a6e6160e01b7bffffffffffffffffffffffffffffffffffffffffffffffffffffffff1916817bffffffffffffffffffffffffffffffffffffffffffffffffffffffff191614612323576040517f08c379a000000000000000000000000000000000000000000000000000000000815260040161231a906131e2565b60405180910390fd5b505b505050505050565b60007fd9b67a26000000000000000000000000000000000000000000000000000000007bffffffffffffffffffffffffffffffffffffffffffffffffffffffff1916827bffffffffffffffffffffffffffffffffffffffffffffffffffffffff191614806123f857507f0e89341c000000000000000000000000000000000000000000000000000000007bffffffffffffffffffffffffffffffffffffffffffffffffffffffff1916827bffffffffffffffffffffffffffffffffffffffffffffffffffffffff1916145b80612408575061240782612422565b5b9050919050565b600080823b905060008111915050919050565b60007f01ffc9a7000000000000000000000000000000000000000000000000000000007bffffffffffffffffffffffffffffffffffffffffffffffffffffffff1916827bffffffffffffffffffffffffffffffffffffffffffffffffffffffff1916149050919050565b82805461249890613720565b90600052602060002090601f0160209004810192826124ba5760008555612501565b82601f106124d357805160ff1916838001178555612501565b82800160010185558215612501579182015b828111156125005782518255916020019190600101906124e5565b5b50905061250e9190612512565b5090565b5b8082111561252b576000816000905550600101612513565b5090565b600061254261253d846134ab565b613486565b9050808382526020820190508285602086028201111561256157600080fd5b60005b8581101561259157816125778882612683565b845260208401935060208301925050600181019050612564565b5050509392505050565b60006125ae6125a9846134d7565b613486565b905080838252602082019050828560208602820111156125cd57600080fd5b60005b858110156125fd57816125e38882612794565b8452602084019350602083019250506001810190506125d0565b5050509392505050565b600061261a61261584613503565b613486565b90508281526020810184848401111561263257600080fd5b61263d8482856136de565b509392505050565b600061265861265384613534565b613486565b90508281526020810184848401111561267057600080fd5b61267b8482856136de565b509392505050565b60008135905061269281613ec3565b92915050565b600082601f8301126126a957600080fd5b81356126b984826020860161252f565b91505092915050565b600082601f8301126126d357600080fd5b81356126e384826020860161259b565b91505092915050565b6000813590506126fb81613eda565b92915050565b60008135905061271081613ef1565b92915050565b60008135905061272581613f08565b92915050565b60008151905061273a81613f08565b92915050565b600082601f83011261275157600080fd5b8135612761848260208601612607565b91505092915050565b600082601f83011261277b57600080fd5b813561278b848260208601612645565b91505092915050565b6000813590506127a381613f1f565b92915050565b600080604083850312156127bc57600080fd5b60006127ca85828601612683565b92505060206127db85828601612683565b9150509250929050565b600080600080600060a086880312156127fd57600080fd5b600061280b88828901612683565b955050602061281c88828901612683565b945050604086013567ffffffffffffffff81111561283957600080fd5b612845888289016126c2565b935050606086013567ffffffffffffffff81111561286257600080fd5b61286e888289016126c2565b925050608086013567ffffffffffffffff81111561288b57600080fd5b61289788828901612740565b9150509295509295909350565b600080600080600060a086880312156128bc57600080fd5b60006128ca88828901612683565b95505060206128db88828901612683565b94505060406128ec88828901612794565b93505060606128fd88828901612794565b925050608086013567ffffffffffffffff81111561291a57600080fd5b61292688828901612740565b9150509295509295909350565b6000806040838503121561294657600080fd5b600061295485828601612683565b9250506020612965858286016126ec565b9150509250929050565b6000806040838503121561298257600080fd5b600061299085828601612683565b92505060206129a185828601612794565b9150509250929050565b6000806000606084860312156129c057600080fd5b60006129ce86828701612683565b93505060206129df86828701612794565b92505060406129f086828701612794565b9150509250925092565b60008060408385031215612a0d57600080fd5b600083013567ffffffffffffffff811115612a2757600080fd5b612a3385828601612698565b925050602083013567ffffffffffffffff811115612a5057600080fd5b612a5c858286016126c2565b9150509250929050565b600060208284031215612a7857600080fd5b6000612a8684828501612701565b91505092915050565b60008060408385031215612aa257600080fd5b6000612ab085828601612701565b9250506020612ac185828601612683565b9150509250929050565b600060208284031215612add57600080fd5b6000612aeb84828501612716565b91505092915050565b600060208284031215612b0657600080fd5b6000612b148482850161272b565b91505092915050565b600080600080600060a08688031215612b3557600080fd5b600086013567ffffffffffffffff811115612b4f57600080fd5b612b5b8882890161276a565b955050602086013567ffffffffffffffff811115612b7857600080fd5b612b848882890161276a565b9450506040612b9588828901612683565b9350506060612ba688828901612794565b9250506080612bb788828901612794565b9150509295509295909350565b600060208284031215612bd657600080fd5b6000612be484828501612794565b91505092915050565b60008060408385031215612c0057600080fd5b6000612c0e85828601612794565b9250506020612c1f85828601612794565b9150509250929050565b6000612c358383612ffa565b60208301905092915050565b612c4a81613660565b82525050565b6000612c5b82613575565b612c6581856135a3565b9350612c7083613565565b8060005b83811015612ca1578151612c888882612c29565b9750612c9383613596565b925050600181019050612c74565b5085935050505092915050565b612cb781613672565b82525050565b612cc68161367e565b82525050565b6000612cd782613580565b612ce181856135b4565b9350612cf18185602086016136ed565b612cfa8161387b565b840191505092915050565b6000612d108261358b565b612d1a81856135c5565b9350612d2a8185602086016136ed565b612d338161387b565b840191505092915050565b6000612d4b6034836135c5565b9150612d5682613899565b604082019050919050565b6000612d6e6028836135c5565b9150612d79826138e8565b604082019050919050565b6000612d91602f836135c5565b9150612d9c82613937565b604082019050919050565b6000612db4602b836135c5565b9150612dbf82613986565b604082019050919050565b6000612dd76024836135c5565b9150612de2826139d5565b604082019050919050565b6000612dfa6029836135c5565b9150612e0582613a24565b604082019050919050565b6000612e1d601a836135c5565b9150612e2882613a73565b602082019050919050565b6000612e406030836135c5565b9150612e4b82613a9c565b604082019050919050565b6000612e636015836135c5565b9150612e6e82613aeb565b602082019050919050565b6000612e866025836135c5565b9150612e9182613b14565b604082019050919050565b6000612ea96032836135c5565b9150612eb482613b63565b604082019050919050565b6000612ecc6016836135c5565b9150612ed782613bb2565b602082019050919050565b6000612eef6023836135c5565b9150612efa82613bdb565b604082019050919050565b6000612f12601b836135c5565b9150612f1d82613c2a565b602082019050919050565b6000612f35602a836135c5565b9150612f4082613c53565b604082019050919050565b6000612f586029836135c5565b9150612f6382613ca2565b604082019050919050565b6000612f7b6029836135c5565b9150612f8682613cf1565b604082019050919050565b6000612f9e6028836135c5565b9150612fa982613d40565b604082019050919050565b6000612fc16021836135c5565b9150612fcc82613d8f565b604082019050919050565b6000612fe4602f836135c5565b9150612fef82613dde565b604082019050919050565b613003816136d4565b82525050565b613012816136d4565b82525050565b600060a08201905061302d6000830188612c41565b61303a6020830187612c41565b818103604083015261304c8186612c50565b905081810360608301526130608185612c50565b905081810360808301526130748184612ccc565b90509695505050505050565b600060a0820190506130956000830188612c41565b6130a26020830187612c41565b6130af6040830186613009565b6130bc6060830185613009565b81810360808301526130ce8184612ccc565b90509695505050505050565b600060208201905081810360008301526130f48184612c50565b905092915050565b600060408201905081810360008301526131168185612c50565b9050818103602083015261312a8184612c50565b90509392505050565b60006020820190506131486000830184612cae565b92915050565b60006020820190506131636000830184612cbd565b92915050565b600060208201905081810360008301526131838184612d05565b905092915050565b600060408201905081810360008301526131a58185612d05565b905081810360208301526131b98184612d05565b90509392505050565b600060208201905081810360008301526131db81612d3e565b9050919050565b600060208201905081810360008301526131fb81612d61565b9050919050565b6000602082019050818103600083015261321b81612d84565b9050919050565b6000602082019050818103600083015261323b81612da7565b9050919050565b6000602082019050818103600083015261325b81612dca565b9050919050565b6000602082019050818103600083015261327b81612ded565b9050919050565b6000602082019050818103600083015261329b81612e10565b9050919050565b600060208201905081810360008301526132bb81612e33565b9050919050565b600060208201905081810360008301526132db81612e56565b9050919050565b600060208201905081810360008301526132fb81612e79565b9050919050565b6000602082019050818103600083015261331b81612e9c565b9050919050565b6000602082019050818103600083015261333b81612ebf565b9050919050565b6000602082019050818103600083015261335b81612ee2565b9050919050565b6000602082019050818103600083015261337b81612f05565b9050919050565b6000602082019050818103600083015261339b81612f28565b9050919050565b600060208201905081810360008301526133bb81612f4b565b9050919050565b600060208201905081810360008301526133db81612f6e565b9050919050565b600060208201905081810360008301526133fb81612f91565b9050919050565b6000602082019050818103600083015261341b81612fb4565b9050919050565b6000602082019050818103600083015261343b81612fd7565b9050919050565b60006020820190506134576000830184613009565b92915050565b60006040820190506134726000830185613009565b61347f6020830184613009565b9392505050565b60006134906134a1565b905061349c8282613752565b919050565b6000604051905090565b600067ffffffffffffffff8211156134c6576134c561382a565b5b602082029050602081019050919050565b600067ffffffffffffffff8211156134f2576134f161382a565b5b602082029050602081019050919050565b600067ffffffffffffffff82111561351e5761351d61382a565b5b6135278261387b565b9050602081019050919050565b600067ffffffffffffffff82111561354f5761354e61382a565b5b6135588261387b565b9050602081019050919050565b6000819050602082019050919050565b600081519050919050565b600081519050919050565b600081519050919050565b6000602082019050919050565b600082825260208201905092915050565b600082825260208201905092915050565b600082825260208201905092915050565b60006135e1826136d4565b91506135ec836136d4565b9250827fffffffffffffffffffffffffffffffffffffffffffffffffffffffffffffffff03821115613621576136206137cc565b5b828201905092915050565b6000613637826136d4565b9150613642836136d4565b925082821015613655576136546137cc565b5b828203905092915050565b600061366b826136b4565b9050919050565b60008115159050919050565b6000819050919050565b60007fffffffff0000000000000000000000000000000000000000000000000000000082169050919050565b600073ffffffffffffffffffffffffffffffffffffffff82169050919050565b6000819050919050565b82818337600083830152505050565b60005b8381101561370b5780820151818401526020810190506136f0565b8381111561371a576000848401525b50505050565b6000600282049050600182168061373857607f821691505b6020821081141561374c5761374b6137fb565b5b50919050565b61375b8261387b565b810181811067ffffffffffffffff8211171561377a5761377961382a565b5b80604052505050565b600061378e826136d4565b91507fffffffffffffffffffffffffffffffffffffffffffffffffffffffffffffffff8214156137c1576137c06137cc565b5b600182019050919050565b7f4e487b7100000000000000000000000000000000000000000000000000000000600052601160045260246000fd5b7f4e487b7100000000000000000000000000000000000000000000000000000000600052602260045260246000fd5b7f4e487b7100000000000000000000000000000000000000000000000000000000600052604160045260246000fd5b600060033d11156138785760046000803e61387560005161388c565b90505b90565b6000601f19601f8301169050919050565b60008160e01c9050919050565b7f455243313135353a207472616e7366657220746f206e6f6e204552433131353560008201527f526563656976657220696d706c656d656e746572000000000000000000000000602082015250565b7f455243313135353a204552433131353552656365697665722072656a6563746560008201527f6420746f6b656e73000000000000000000000000000000000000000000000000602082015250565b7f416363657373436f6e74726f6c3a2073656e646572206d75737420626520616e60008201527f2061646d696e20746f206772616e740000000000000000000000000000000000602082015250565b7f455243313135353a2062616c616e636520717565727920666f7220746865207a60008201527f65726f2061646472657373000000000000000000000000000000000000000000602082015250565b7f455243313135353a206275726e20616d6f756e7420657863656564732062616c60008201527f616e636500000000000000000000000000000000000000000000000000000000602082015250565b7f455243313135353a2063616c6c6572206973206e6f74206f776e6572206e6f7260008201527f20617070726f7665640000000000000000000000000000000000000000000000602082015250565b7f496e697469616c20737570706c79206c657373207468616e2031000000000000600082015250565b7f416363657373436f6e74726f6c3a2073656e646572206d75737420626520616e60008201527f2061646d696e20746f207265766f6b6500000000000000000000000000000000602082015250565b7f546f74616c20737570706c7920726561636865642e0000000000000000000000600082015250565b7f455243313135353a207472616e7366657220746f20746865207a65726f20616460008201527f6472657373000000000000000000000000000000000000000000000000000000602082015250565b7f455243313135353a207472616e736665722063616c6c6572206973206e6f742060008201527f6f776e6572206e6f7220617070726f7665640000000000000000000000000000602082015250565b7f43616c6c6572206973206e6f742061206d696e74657200000000000000000000600082015250565b7f455243313135353a206275726e2066726f6d20746865207a65726f206164647260008201527f6573730000000000000000000000000000000000000000000000000000000000602082015250565b7f4d6178696d756d20737570706c792063616e206e6f7420626520300000000000600082015250565b7f455243313135353a20696e73756666696369656e742062616c616e636520666f60008201527f72207472616e7366657200000000000000000000000000000000000000000000602082015250565b7f455243313135353a2073657474696e6720617070726f76616c2073746174757360008201527f20666f722073656c660000000000000000000000000000000000000000000000602082015250565b7f455243313135353a206163636f756e747320616e6420696473206c656e67746860008201527f206d69736d617463680000000000000000000000000000000000000000000000602082015250565b7f455243313135353a2069647320616e6420616d6f756e7473206c656e6774682060008201527f6d69736d61746368000000000000000000000000000000000000000000000000602082015250565b7f455243313135353a206d696e7420746f20746865207a65726f2061646472657360008201527f7300000000000000000000000000000000000000000000000000000000000000602082015250565b7f416363657373436f6e74726f6c3a2063616e206f6e6c792072656e6f756e636560008201527f20726f6c657320666f722073656c660000000000000000000000000000000000602082015250565b600060443d1015613e3d57613ec0565b613e456134a1565b60043d036004823e80513d602482011167ffffffffffffffff82111715613e6d575050613ec0565b808201805167ffffffffffffffff811115613e8b5750505050613ec0565b80602083010160043d038501811115613ea8575050505050613ec0565b613eb782602001850186613752565b82955050505050505b90565b613ecc81613660565b8114613ed757600080fd5b50565b613ee381613672565b8114613eee57600080fd5b50565b613efa8161367e565b8114613f0557600080fd5b50565b613f1181613688565b8114613f1c57600080fd5b50565b613f28816136d4565b8114613f3357600080fd5b5056fea26469706673582212208935854860e562e5c8135ab0b363e9da902746372a2df7d3e569799906ba16de64736f6c6343000803003368747470733a2f2f7777772e74726f747465722e66696e616e63652f6170692f4e4654732f",
  "immutableReferences": {},
  "source": "// SPDX-License-Identifier: MIT\npragma solidity >=0.6.12;\n\nimport \"@openzeppelin/contracts/token/ERC1155/ERC1155.sol\";\nimport \"@openzeppelin/contracts/access/AccessControl.sol\";\nimport \"@openzeppelin/contracts/utils/math/SafeMath.sol\";\n\ncontract TrotterNft is ERC1155, AccessControl {\n    using SafeMath for uint256;\n\n    constructor() ERC1155(\"https://www.trotter.finance/api/NFTs/\") {\n        _setupRole(DEFAULT_ADMIN_ROLE, _msgSender());\n    }\n\n    bytes32 public constant MINTER_ROLE = keccak256(\"MINTER_ROLE\");\n\n    struct nftMetadata {\n        string name;\n        string ipfsHash;\n    }\n\n    uint256 public cards;\n    nftMetadata[] public nfts;\n    mapping(uint256 => uint256) public totalSupply;\n    mapping(uint256 => uint256) public circulatingSupply;\n\n    event CardAdded(uint256 id, uint256 maxSupply);\n\n    /**\n     * @dev Get contract URL\n     */\n    function contractURI() public view returns (string memory) {\n        return string(uri(0));\n    }\n\n    /**\n     * @notice Creates nft card and mints a new NFT for first time.\n     *\n     * @param name Name of new NFT.\n     * @param ipfsHash ipfs hash of nft image the new minted NFT.\n     * @param newOwner Address to mint NFT to.\n     * @param maxSupply The max supply of NFT mintable.\n     * @param initialSupply The amount of NFT to mint initially.\n     */\n    function createNftCard(string memory name, string memory ipfsHash, address newOwner, uint256 maxSupply, uint256 initialSupply) public {\n        require(initialSupply > 0, \"Initial supply less than 1\");\n\n        nftMetadata memory newNft = nftMetadata({\n            name: name,\n            ipfsHash: ipfsHash\n        });\n\n        uint256 nftId = addCard(maxSupply);\n        nfts.push(newNft);\n        mint(newOwner, nftId, initialSupply);\n    }\n\n    /**\n     * @notice Creates a new card for unique `NFT`.\n     *\n     * This signifies each unique NFT,\n     *\n     * Each NFT can appear more than once, this is where to declare it before minting a copy.\n     *\n     * The less amount an NFT can be minted determines the value,\n     * Low amount of an NFT in circulation makes it rare and more expensive.\n     *\n     * @param maxSupply The max supply of the NFTs on this card.\n     */\n    function addCard(uint256 maxSupply) public returns (uint256) {\n        require(hasRole(MINTER_ROLE, _msgSender()), \"Caller is not a minter\");\n        require(maxSupply > 0, \"Maximum supply can not be 0\");\n        cards = cards.add(1);\n        totalSupply[cards] = maxSupply;\n        emit CardAdded(cards, maxSupply);\n        return cards;\n    }\n\n    /**\n     * @notice Mints a new NFT to an NFT card.\n     *\n     * @param to Address to receive the new minted NFT.\n     * @param id The card id to mint NFT from.\n     * @param amount The amount of NFT to mint on this card.\n     */\n    function mint(\n        address to,\n        uint256 id,\n        uint256 amount\n    ) public {\n        require(hasRole(MINTER_ROLE, _msgSender()), \"Caller is not a minter\");\n        require(\n            circulatingSupply[id].add(amount) <= totalSupply[id],\n            \"Total supply reached.\"\n        );\n\n        _mint(to, id, amount, \"\");\n        circulatingSupply[id] = circulatingSupply[id].add(amount);\n    }\n\n    /**\n     * @notice Burn an NFT from NFT card.\n     *\n     * @param id The card id to burn NFT from.\n     * @param amount The amount of NFT to burn from this card.\n     */\n    function burn(uint256 id, uint256 amount) public {\n        _burn(_msgSender(), id, amount);\n        circulatingSupply[id] = circulatingSupply[id].sub(amount);\n    }\n\n    /**\n     * @dev ERC1155 and AccessControl include supportsInterface so we need to override both\n     */\n    function supportsInterface(bytes4 interfaceId)\n        public\n        view\n        virtual\n        override(ERC1155, AccessControl)\n        returns (bool)\n    {\n        return super.supportsInterface(interfaceId);\n    }\n}\n",
  "sourcePath": "/Users/Chris/Coding/Blockchain/trotter-market/contracts/TrotterNft.sol",
  "compiler": {
    "name": "solc",
    "version": "0.8.3+commit.8d00100c.Emscripten.clang"
  },
  "schemaVersion": "3.3.4",
  "updatedAt": "2021-04-05T02:23:58.971Z",
  "networkType": "ethereum",
  "devdoc": {
    "kind": "dev",
    "methods": {
      "addCard(uint256)": {
        "params": {
          "maxSupply": "The max supply of the NFTs on this card."
        }
      },
      "balanceOf(address,uint256)": {
        "details": "See {IERC1155-balanceOf}. Requirements: - `account` cannot be the zero address."
      },
      "balanceOfBatch(address[],uint256[])": {
        "details": "See {IERC1155-balanceOfBatch}. Requirements: - `accounts` and `ids` must have the same length."
      },
      "burn(uint256,uint256)": {
        "params": {
          "amount": "The amount of NFT to burn from this card.",
          "id": "The card id to burn NFT from."
        }
      },
      "contractURI()": {
        "details": "Get contract URL"
      },
      "createNftCard(string,string,address,uint256,uint256)": {
        "params": {
          "initialSupply": "The amount of NFT to mint initially.",
          "ipfsHash": "ipfs hash of nft image the new minted NFT.",
          "maxSupply": "The max supply of NFT mintable.",
          "name": "Name of new NFT.",
          "newOwner": "Address to mint NFT to."
        }
      },
      "getRoleAdmin(bytes32)": {
        "details": "Returns the admin role that controls `role`. See {grantRole} and {revokeRole}. To change a role's admin, use {_setRoleAdmin}."
      },
      "grantRole(bytes32,address)": {
        "details": "Grants `role` to `account`. If `account` had not been already granted `role`, emits a {RoleGranted} event. Requirements: - the caller must have ``role``'s admin role."
      },
      "hasRole(bytes32,address)": {
        "details": "Returns `true` if `account` has been granted `role`."
      },
      "isApprovedForAll(address,address)": {
        "details": "See {IERC1155-isApprovedForAll}."
      },
      "mint(address,uint256,uint256)": {
        "params": {
          "amount": "The amount of NFT to mint on this card.",
          "id": "The card id to mint NFT from.",
          "to": "Address to receive the new minted NFT."
        }
      },
      "renounceRole(bytes32,address)": {
        "details": "Revokes `role` from the calling account. Roles are often managed via {grantRole} and {revokeRole}: this function's purpose is to provide a mechanism for accounts to lose their privileges if they are compromised (such as when a trusted device is misplaced). If the calling account had been granted `role`, emits a {RoleRevoked} event. Requirements: - the caller must be `account`."
      },
      "revokeRole(bytes32,address)": {
        "details": "Revokes `role` from `account`. If `account` had been granted `role`, emits a {RoleRevoked} event. Requirements: - the caller must have ``role``'s admin role."
      },
      "safeBatchTransferFrom(address,address,uint256[],uint256[],bytes)": {
        "details": "See {IERC1155-safeBatchTransferFrom}."
      },
      "safeTransferFrom(address,address,uint256,uint256,bytes)": {
        "details": "See {IERC1155-safeTransferFrom}."
      },
      "setApprovalForAll(address,bool)": {
        "details": "See {IERC1155-setApprovalForAll}."
      },
      "supportsInterface(bytes4)": {
        "details": "ERC1155 and AccessControl include supportsInterface so we need to override both"
      },
      "uri(uint256)": {
        "details": "See {IERC1155MetadataURI-uri}. This implementation returns the same URI for *all* token types. It relies on the token type ID substitution mechanism https://eips.ethereum.org/EIPS/eip-1155#metadata[defined in the EIP]. Clients calling this function must replace the `\\{id\\}` substring with the actual token type ID."
      }
    },
    "version": 1
  },
  "userdoc": {
    "kind": "user",
    "methods": {
      "addCard(uint256)": {
        "notice": "Creates a new card for unique `NFT`. This signifies each unique NFT, Each NFT can appear more than once, this is where to declare it before minting a copy. The less amount an NFT can be minted determines the value, Low amount of an NFT in circulation makes it rare and more expensive."
      },
      "burn(uint256,uint256)": {
        "notice": "Burn an NFT from NFT card."
      },
      "createNftCard(string,string,address,uint256,uint256)": {
        "notice": "Creates nft card and mints a new NFT for first time."
      },
      "mint(address,uint256,uint256)": {
        "notice": "Mints a new NFT to an NFT card."
      }
    },
    "version": 1
  }
}