{
  "contractName": "TrotterNft",
  "abi": [
    {
      "inputs": [],
      "stateMutability": "nonpayable",
      "type": "constructor"
    },
    {
      "anonymous": false,
      "inputs": [
        {
          "indexed": true,
          "internalType": "address",
          "name": "account",
          "type": "address"
        },
        {
          "indexed": true,
          "internalType": "address",
          "name": "operator",
          "type": "address"
        },
        {
          "indexed": false,
          "internalType": "bool",
          "name": "approved",
          "type": "bool"
        }
      ],
      "name": "ApprovalForAll",
      "type": "event"
    },
    {
      "anonymous": false,
      "inputs": [
        {
          "indexed": false,
          "internalType": "uint256",
          "name": "id",
          "type": "uint256"
        },
        {
          "indexed": false,
          "internalType": "uint256",
          "name": "maxSupply",
          "type": "uint256"
        }
      ],
      "name": "CardAdded",
      "type": "event"
    },
    {
      "anonymous": false,
      "inputs": [
        {
          "indexed": true,
          "internalType": "bytes32",
          "name": "role",
          "type": "bytes32"
        },
        {
          "indexed": true,
          "internalType": "bytes32",
          "name": "previousAdminRole",
          "type": "bytes32"
        },
        {
          "indexed": true,
          "internalType": "bytes32",
          "name": "newAdminRole",
          "type": "bytes32"
        }
      ],
      "name": "RoleAdminChanged",
      "type": "event"
    },
    {
      "anonymous": false,
      "inputs": [
        {
          "indexed": true,
          "internalType": "bytes32",
          "name": "role",
          "type": "bytes32"
        },
        {
          "indexed": true,
          "internalType": "address",
          "name": "account",
          "type": "address"
        },
        {
          "indexed": true,
          "internalType": "address",
          "name": "sender",
          "type": "address"
        }
      ],
      "name": "RoleGranted",
      "type": "event"
    },
    {
      "anonymous": false,
      "inputs": [
        {
          "indexed": true,
          "internalType": "bytes32",
          "name": "role",
          "type": "bytes32"
        },
        {
          "indexed": true,
          "internalType": "address",
          "name": "account",
          "type": "address"
        },
        {
          "indexed": true,
          "internalType": "address",
          "name": "sender",
          "type": "address"
        }
      ],
      "name": "RoleRevoked",
      "type": "event"
    },
    {
      "anonymous": false,
      "inputs": [
        {
          "indexed": true,
          "internalType": "address",
          "name": "operator",
          "type": "address"
        },
        {
          "indexed": true,
          "internalType": "address",
          "name": "from",
          "type": "address"
        },
        {
          "indexed": true,
          "internalType": "address",
          "name": "to",
          "type": "address"
        },
        {
          "indexed": false,
          "internalType": "uint256[]",
          "name": "ids",
          "type": "uint256[]"
        },
        {
          "indexed": false,
          "internalType": "uint256[]",
          "name": "values",
          "type": "uint256[]"
        }
      ],
      "name": "TransferBatch",
      "type": "event"
    },
    {
      "anonymous": false,
      "inputs": [
        {
          "indexed": true,
          "internalType": "address",
          "name": "operator",
          "type": "address"
        },
        {
          "indexed": true,
          "internalType": "address",
          "name": "from",
          "type": "address"
        },
        {
          "indexed": true,
          "internalType": "address",
          "name": "to",
          "type": "address"
        },
        {
          "indexed": false,
          "internalType": "uint256",
          "name": "id",
          "type": "uint256"
        },
        {
          "indexed": false,
          "internalType": "uint256",
          "name": "value",
          "type": "uint256"
        }
      ],
      "name": "TransferSingle",
      "type": "event"
    },
    {
      "anonymous": false,
      "inputs": [
        {
          "indexed": false,
          "internalType": "string",
          "name": "value",
          "type": "string"
        },
        {
          "indexed": true,
          "internalType": "uint256",
          "name": "id",
          "type": "uint256"
        }
      ],
      "name": "URI",
      "type": "event"
    },
    {
      "inputs": [],
      "name": "DEFAULT_ADMIN_ROLE",
      "outputs": [
        {
          "internalType": "bytes32",
          "name": "",
          "type": "bytes32"
        }
      ],
      "stateMutability": "view",
      "type": "function"
    },
    {
      "inputs": [],
      "name": "MINTER_ROLE",
      "outputs": [
        {
          "internalType": "bytes32",
          "name": "",
          "type": "bytes32"
        }
      ],
      "stateMutability": "view",
      "type": "function"
    },
    {
      "inputs": [
        {
          "internalType": "address",
          "name": "account",
          "type": "address"
        },
        {
          "internalType": "uint256",
          "name": "id",
          "type": "uint256"
        }
      ],
      "name": "balanceOf",
      "outputs": [
        {
          "internalType": "uint256",
          "name": "",
          "type": "uint256"
        }
      ],
      "stateMutability": "view",
      "type": "function"
    },
    {
      "inputs": [
        {
          "internalType": "address[]",
          "name": "accounts",
          "type": "address[]"
        },
        {
          "internalType": "uint256[]",
          "name": "ids",
          "type": "uint256[]"
        }
      ],
      "name": "balanceOfBatch",
      "outputs": [
        {
          "internalType": "uint256[]",
          "name": "",
          "type": "uint256[]"
        }
      ],
      "stateMutability": "view",
      "type": "function"
    },
    {
      "inputs": [],
      "name": "cards",
      "outputs": [
        {
          "internalType": "uint256",
          "name": "",
          "type": "uint256"
        }
      ],
      "stateMutability": "view",
      "type": "function"
    },
    {
      "inputs": [
        {
          "internalType": "uint256",
          "name": "",
          "type": "uint256"
        }
      ],
      "name": "circulatingSupply",
      "outputs": [
        {
          "internalType": "uint256",
          "name": "",
          "type": "uint256"
        }
      ],
      "stateMutability": "view",
      "type": "function"
    },
    {
      "inputs": [
        {
          "internalType": "bytes32",
          "name": "role",
          "type": "bytes32"
        }
      ],
      "name": "getRoleAdmin",
      "outputs": [
        {
          "internalType": "bytes32",
          "name": "",
          "type": "bytes32"
        }
      ],
      "stateMutability": "view",
      "type": "function"
    },
    {
      "inputs": [
        {
          "internalType": "bytes32",
          "name": "role",
          "type": "bytes32"
        },
        {
          "internalType": "address",
          "name": "account",
          "type": "address"
        }
      ],
      "name": "grantRole",
      "outputs": [],
      "stateMutability": "nonpayable",
      "type": "function"
    },
    {
      "inputs": [
        {
          "internalType": "bytes32",
          "name": "role",
          "type": "bytes32"
        },
        {
          "internalType": "address",
          "name": "account",
          "type": "address"
        }
      ],
      "name": "hasRole",
      "outputs": [
        {
          "internalType": "bool",
          "name": "",
          "type": "bool"
        }
      ],
      "stateMutability": "view",
      "type": "function"
    },
    {
      "inputs": [
        {
          "internalType": "address",
          "name": "account",
          "type": "address"
        },
        {
          "internalType": "address",
          "name": "operator",
          "type": "address"
        }
      ],
      "name": "isApprovedForAll",
      "outputs": [
        {
          "internalType": "bool",
          "name": "",
          "type": "bool"
        }
      ],
      "stateMutability": "view",
      "type": "function"
    },
    {
      "inputs": [
        {
          "internalType": "bytes32",
          "name": "role",
          "type": "bytes32"
        },
        {
          "internalType": "address",
          "name": "account",
          "type": "address"
        }
      ],
      "name": "renounceRole",
      "outputs": [],
      "stateMutability": "nonpayable",
      "type": "function"
    },
    {
      "inputs": [
        {
          "internalType": "bytes32",
          "name": "role",
          "type": "bytes32"
        },
        {
          "internalType": "address",
          "name": "account",
          "type": "address"
        }
      ],
      "name": "revokeRole",
      "outputs": [],
      "stateMutability": "nonpayable",
      "type": "function"
    },
    {
      "inputs": [
        {
          "internalType": "address",
          "name": "from",
          "type": "address"
        },
        {
          "internalType": "address",
          "name": "to",
          "type": "address"
        },
        {
          "internalType": "uint256[]",
          "name": "ids",
          "type": "uint256[]"
        },
        {
          "internalType": "uint256[]",
          "name": "amounts",
          "type": "uint256[]"
        },
        {
          "internalType": "bytes",
          "name": "data",
          "type": "bytes"
        }
      ],
      "name": "safeBatchTransferFrom",
      "outputs": [],
      "stateMutability": "nonpayable",
      "type": "function"
    },
    {
      "inputs": [
        {
          "internalType": "address",
          "name": "from",
          "type": "address"
        },
        {
          "internalType": "address",
          "name": "to",
          "type": "address"
        },
        {
          "internalType": "uint256",
          "name": "id",
          "type": "uint256"
        },
        {
          "internalType": "uint256",
          "name": "amount",
          "type": "uint256"
        },
        {
          "internalType": "bytes",
          "name": "data",
          "type": "bytes"
        }
      ],
      "name": "safeTransferFrom",
      "outputs": [],
      "stateMutability": "nonpayable",
      "type": "function"
    },
    {
      "inputs": [
        {
          "internalType": "address",
          "name": "operator",
          "type": "address"
        },
        {
          "internalType": "bool",
          "name": "approved",
          "type": "bool"
        }
      ],
      "name": "setApprovalForAll",
      "outputs": [],
      "stateMutability": "nonpayable",
      "type": "function"
    },
    {
      "inputs": [
        {
          "internalType": "uint256",
          "name": "",
          "type": "uint256"
        }
      ],
      "name": "totalSupply",
      "outputs": [
        {
          "internalType": "uint256",
          "name": "",
          "type": "uint256"
        }
      ],
      "stateMutability": "view",
      "type": "function"
    },
    {
      "inputs": [
        {
          "internalType": "uint256",
          "name": "",
          "type": "uint256"
        }
      ],
      "name": "uri",
      "outputs": [
        {
          "internalType": "string",
          "name": "",
          "type": "string"
        }
      ],
      "stateMutability": "view",
      "type": "function"
    },
    {
      "inputs": [],
      "name": "contractURI",
      "outputs": [
        {
          "internalType": "string",
          "name": "",
          "type": "string"
        }
      ],
      "stateMutability": "view",
      "type": "function"
    },
    {
      "inputs": [
        {
          "internalType": "uint256",
          "name": "maxSupply",
          "type": "uint256"
        }
      ],
      "name": "addCard",
      "outputs": [
        {
          "internalType": "uint256",
          "name": "",
          "type": "uint256"
        }
      ],
      "stateMutability": "nonpayable",
      "type": "function"
    },
    {
      "inputs": [
        {
          "internalType": "address",
          "name": "to",
          "type": "address"
        },
        {
          "internalType": "uint256",
          "name": "id",
          "type": "uint256"
        },
        {
          "internalType": "uint256",
          "name": "amount",
          "type": "uint256"
        }
      ],
      "name": "mint",
      "outputs": [],
      "stateMutability": "nonpayable",
      "type": "function"
    },
    {
      "inputs": [
        {
          "internalType": "uint256",
          "name": "id",
          "type": "uint256"
        },
        {
          "internalType": "uint256",
          "name": "amount",
          "type": "uint256"
        }
      ],
      "name": "burn",
      "outputs": [],
      "stateMutability": "nonpayable",
      "type": "function"
    },
    {
      "inputs": [
        {
          "internalType": "bytes4",
          "name": "interfaceId",
          "type": "bytes4"
        }
      ],
      "name": "supportsInterface",
      "outputs": [
        {
          "internalType": "bool",
          "name": "",
          "type": "bool"
        }
      ],
      "stateMutability": "view",
      "type": "function"
    }
  ],
  "bytecode": "0x60806040523480156200001157600080fd5b5060405180606001604052806025815260200162003d2b602591396200003d816200006860201b60201c565b50620000626000801b620000566200008460201b60201c565b6200008c60201b60201c565b62000314565b806002908051906020019062000080929190620001ff565b5050565b600033905090565b6200009e8282620000a260201b60201c565b5050565b620000b482826200019460201b60201c565b620001905760016003600084815260200190815260200160002060000160008373ffffffffffffffffffffffffffffffffffffffff1673ffffffffffffffffffffffffffffffffffffffff16815260200190815260200160002060006101000a81548160ff021916908315150217905550620001356200008460201b60201c565b73ffffffffffffffffffffffffffffffffffffffff168173ffffffffffffffffffffffffffffffffffffffff16837f2f8788117e7eff1d82e926ec794901d17c78024a50270940304540a733656f0d60405160405180910390a45b5050565b60006003600084815260200190815260200160002060000160008373ffffffffffffffffffffffffffffffffffffffff1673ffffffffffffffffffffffffffffffffffffffff16815260200190815260200160002060009054906101000a900460ff16905092915050565b8280546200020d90620002af565b90600052602060002090601f0160209004810192826200023157600085556200027d565b82601f106200024c57805160ff19168380011785556200027d565b828001600101855582156200027d579182015b828111156200027c5782518255916020019190600101906200025f565b5b5090506200028c919062000290565b5090565b5b80821115620002ab57600081600090555060010162000291565b5090565b60006002820490506001821680620002c857607f821691505b60208210811415620002df57620002de620002e5565b5b50919050565b7f4e487b7100000000000000000000000000000000000000000000000000000000600052602260045260246000fd5b613a0780620003246000396000f3fe608060405234801561001057600080fd5b50600436106101415760003560e01c806392ff6aea116100b8578063d53913931161007c578063d5391393146103aa578063d547741f146103c8578063e8a3d485146103e4578063e985e9c514610402578063f242432a14610432578063f9e537551461044e57610141565b806392ff6aea146102f4578063a217fddf14610324578063a22cb46514610342578063b390c0ab1461035e578063bd85b0391461037a57610141565b80632eb2c2d61161010a5780632eb2c2d6146102225780632f2ff15d1461023e57806336568abe1461025a5780634e1273f41461027657806358a4903f146102a657806391d14854146102c457610141565b8062fdd58e1461014657806301ffc9a7146101765780630e89341c146101a6578063156e29f6146101d6578063248a9ca3146101f2575b600080fd5b610160600480360381019061015b9190612585565b61047e565b60405161016d9190612f37565b60405180910390f35b610190600480360381019061018b91906126e1565b610547565b60405161019d9190612c7f565b60405180910390f35b6101c060048036038101906101bb9190612733565b610559565b6040516101cd9190612cb5565b60405180910390f35b6101f060048036038101906101eb91906125c1565b6105ed565b005b61020c6004803603810190610207919061267c565b610735565b6040516102199190612c9a565b60405180910390f35b61023c600480360381019061023791906123fb565b610755565b005b610258600480360381019061025391906126a5565b610b4b565b005b610274600480360381019061026f91906126a5565b610bb1565b005b610290600480360381019061028b9190612610565b610c34565b60405161029d9190612c26565b60405180910390f35b6102ae610de5565b6040516102bb9190612f37565b60405180910390f35b6102de60048036038101906102d991906126a5565b610deb565b6040516102eb9190612c7f565b60405180910390f35b61030e60048036038101906103099190612733565b610e56565b60405161031b9190612f37565b60405180910390f35b61032c610e6e565b6040516103399190612c9a565b60405180910390f35b61035c60048036038101906103579190612549565b610e75565b005b6103786004803603810190610373919061275c565b610ff6565b005b610394600480360381019061038f9190612733565b61100c565b6040516103a19190612f37565b60405180910390f35b6103b2611024565b6040516103bf9190612c9a565b60405180910390f35b6103e260048036038101906103dd91906126a5565b611048565b005b6103ec6110ae565b6040516103f99190612cb5565b60405180910390f35b61041c600480360381019061041791906123bf565b6110bf565b6040516104299190612c7f565b60405180910390f35b61044c600480360381019061044791906124ba565b611153565b005b61046860048036038101906104639190612733565b61146b565b6040516104759190612f37565b60405180910390f35b60008073ffffffffffffffffffffffffffffffffffffffff168373ffffffffffffffffffffffffffffffffffffffff1614156104ef576040517f08c379a00000000000000000000000000000000000000000000000000000000081526004016104e690612d37565b60405180910390fd5b60008083815260200190815260200160002060008473ffffffffffffffffffffffffffffffffffffffff1673ffffffffffffffffffffffffffffffffffffffff16815260200190815260200160002054905092915050565b60006105528261159b565b9050919050565b606060028054610568906131e4565b80601f0160208091040260200160405190810160405280929190818152602001828054610594906131e4565b80156105e15780601f106105b6576101008083540402835291602001916105e1565b820191906000526020600020905b8154815290600101906020018083116105c457829003601f168201915b50505050509050919050565b61061e7f9f2df0fed2c77648de5860a4cc508cd0818c85b8b8a1ab4ceeef8d981c8956a6610619611615565b610deb565b61065d576040517f08c379a000000000000000000000000000000000000000000000000000000000815260040161065490612e17565b60405180910390fd5b600560008381526020019081526020016000205461069782600660008681526020019081526020016000205461161d90919063ffffffff16565b11156106d8576040517f08c379a00000000000000000000000000000000000000000000000000000000081526004016106cf90612db7565b60405180910390fd5b6106fe81600660008581526020019081526020016000205461161d90919063ffffffff16565b600660008481526020019081526020016000208190555061073083838360405180602001604052806000815250611633565b505050565b600060036000838152602001908152602001600020600101549050919050565b8151835114610799576040517f08c379a000000000000000000000000000000000000000000000000000000000815260040161079090612ed7565b60405180910390fd5b600073ffffffffffffffffffffffffffffffffffffffff168473ffffffffffffffffffffffffffffffffffffffff161415610809576040517f08c379a000000000000000000000000000000000000000000000000000000000815260040161080090612dd7565b60405180910390fd5b610811611615565b73ffffffffffffffffffffffffffffffffffffffff168573ffffffffffffffffffffffffffffffffffffffff161480610857575061085685610851611615565b6110bf565b5b610896576040517f08c379a000000000000000000000000000000000000000000000000000000000815260040161088d90612df7565b60405180910390fd5b60006108a0611615565b90506108b08187878787876117c9565b60005b8451811015610ab65760008582815181106108f7577f4e487b7100000000000000000000000000000000000000000000000000000000600052603260045260246000fd5b60200260200101519050600085838151811061093c577f4e487b7100000000000000000000000000000000000000000000000000000000600052603260045260246000fd5b60200260200101519050600080600084815260200190815260200160002060008b73ffffffffffffffffffffffffffffffffffffffff1673ffffffffffffffffffffffffffffffffffffffff168152602001908152602001600020549050818110156109dd576040517f08c379a00000000000000000000000000000000000000000000000000000000081526004016109d490612e77565b60405180910390fd5b81816109e991906130f0565b60008085815260200190815260200160002060008c73ffffffffffffffffffffffffffffffffffffffff1673ffffffffffffffffffffffffffffffffffffffff168152602001908152602001600020819055508160008085815260200190815260200160002060008b73ffffffffffffffffffffffffffffffffffffffff1673ffffffffffffffffffffffffffffffffffffffff1681526020019081526020016000206000828254610a9b919061309a565b9250508190555050505080610aaf90613247565b90506108b3565b508473ffffffffffffffffffffffffffffffffffffffff168673ffffffffffffffffffffffffffffffffffffffff168273ffffffffffffffffffffffffffffffffffffffff167f4a39dc06d4c0dbc64b70af90fd698a233a518aa5d07e595d983b8c0526c8f7fb8787604051610b2d929190612c48565b60405180910390a4610b438187878787876117d1565b505050505050565b610b64610b5783610735565b610b5f611615565b610deb565b610ba3576040517f08c379a0000000000000000000000000000000000000000000000000000000008152600401610b9a90612d17565b60405180910390fd5b610bad82826119b8565b5050565b610bb9611615565b73ffffffffffffffffffffffffffffffffffffffff168173ffffffffffffffffffffffffffffffffffffffff1614610c26576040517f08c379a0000000000000000000000000000000000000000000000000000000008152600401610c1d90612f17565b60405180910390fd5b610c308282611a99565b5050565b60608151835114610c7a576040517f08c379a0000000000000000000000000000000000000000000000000000000008152600401610c7190612eb7565b60405180910390fd5b6000835167ffffffffffffffff811115610cbd577f4e487b7100000000000000000000000000000000000000000000000000000000600052604160045260246000fd5b604051908082528060200260200182016040528015610ceb5781602001602082028036833780820191505090505b50905060005b8451811015610dda57610d84858281518110610d36577f4e487b7100000000000000000000000000000000000000000000000000000000600052603260045260246000fd5b6020026020010151858381518110610d77577f4e487b7100000000000000000000000000000000000000000000000000000000600052603260045260246000fd5b602002602001015161047e565b828281518110610dbd577f4e487b7100000000000000000000000000000000000000000000000000000000600052603260045260246000fd5b60200260200101818152505080610dd390613247565b9050610cf1565b508091505092915050565b60045481565b60006003600084815260200190815260200160002060000160008373ffffffffffffffffffffffffffffffffffffffff1673ffffffffffffffffffffffffffffffffffffffff16815260200190815260200160002060009054906101000a900460ff16905092915050565b60066020528060005260406000206000915090505481565b6000801b81565b8173ffffffffffffffffffffffffffffffffffffffff16610e94611615565b73ffffffffffffffffffffffffffffffffffffffff161415610eeb576040517f08c379a0000000000000000000000000000000000000000000000000000000008152600401610ee290612e97565b60405180910390fd5b8060016000610ef8611615565b73ffffffffffffffffffffffffffffffffffffffff1673ffffffffffffffffffffffffffffffffffffffff16815260200190815260200160002060008473ffffffffffffffffffffffffffffffffffffffff1673ffffffffffffffffffffffffffffffffffffffff16815260200190815260200160002060006101000a81548160ff0219169083151502179055508173ffffffffffffffffffffffffffffffffffffffff16610fa5611615565b73ffffffffffffffffffffffffffffffffffffffff167f17307eab39ab6107e8899845ad3d59bd9653f200f220920489ca2b5937696c3183604051610fea9190612c7f565b60405180910390a35050565b611008611001611615565b8383611b7b565b5050565b60056020528060005260406000206000915090505481565b7f9f2df0fed2c77648de5860a4cc508cd0818c85b8b8a1ab4ceeef8d981c8956a681565b61106161105483610735565b61105c611615565b610deb565b6110a0576040517f08c379a000000000000000000000000000000000000000000000000000000000815260040161109790612d97565b60405180910390fd5b6110aa8282611a99565b5050565b60606110ba6000610559565b905090565b6000600160008473ffffffffffffffffffffffffffffffffffffffff1673ffffffffffffffffffffffffffffffffffffffff16815260200190815260200160002060008373ffffffffffffffffffffffffffffffffffffffff1673ffffffffffffffffffffffffffffffffffffffff16815260200190815260200160002060009054906101000a900460ff16905092915050565b600073ffffffffffffffffffffffffffffffffffffffff168473ffffffffffffffffffffffffffffffffffffffff1614156111c3576040517f08c379a00000000000000000000000000000000000000000000000000000000081526004016111ba90612dd7565b60405180910390fd5b6111cb611615565b73ffffffffffffffffffffffffffffffffffffffff168573ffffffffffffffffffffffffffffffffffffffff16148061121157506112108561120b611615565b6110bf565b5b611250576040517f08c379a000000000000000000000000000000000000000000000000000000000815260040161124790612d77565b60405180910390fd5b600061125a611615565b905061127a81878761126b88611da1565b61127488611da1565b876117c9565b600080600086815260200190815260200160002060008873ffffffffffffffffffffffffffffffffffffffff1673ffffffffffffffffffffffffffffffffffffffff16815260200190815260200160002054905083811015611311576040517f08c379a000000000000000000000000000000000000000000000000000000000815260040161130890612e77565b60405180910390fd5b838161131d91906130f0565b60008087815260200190815260200160002060008973ffffffffffffffffffffffffffffffffffffffff1673ffffffffffffffffffffffffffffffffffffffff168152602001908152602001600020819055508360008087815260200190815260200160002060008873ffffffffffffffffffffffffffffffffffffffff1673ffffffffffffffffffffffffffffffffffffffff16815260200190815260200160002060008282546113cf919061309a565b925050819055508573ffffffffffffffffffffffffffffffffffffffff168773ffffffffffffffffffffffffffffffffffffffff168373ffffffffffffffffffffffffffffffffffffffff167fc3d58168c5ae7397731d063d5bbf3d657854427343f4c083240f7aacaa2d0f62888860405161144c929190612f52565b60405180910390a4611462828888888888611e67565b50505050505050565b600061149e7f9f2df0fed2c77648de5860a4cc508cd0818c85b8b8a1ab4ceeef8d981c8956a6611499611615565b610deb565b6114dd576040517f08c379a00000000000000000000000000000000000000000000000000000000081526004016114d490612e17565b60405180910390fd5b60008211611520576040517f08c379a000000000000000000000000000000000000000000000000000000000815260040161151790612e57565b60405180910390fd5b611536600160045461161d90919063ffffffff16565b60048190555081600560006004548152602001908152602001600020819055507f62399d91d89d6e694d41e47f3e6010c0e0b4ec78ecdddb1c02d0e321780859b060045483604051611589929190612f52565b60405180910390a16004549050919050565b60007f7965db0b000000000000000000000000000000000000000000000000000000007bffffffffffffffffffffffffffffffffffffffffffffffffffffffff1916827bffffffffffffffffffffffffffffffffffffffffffffffffffffffff1916148061160e575061160d8261204e565b5b9050919050565b600033905090565b6000818361162b919061309a565b905092915050565b600073ffffffffffffffffffffffffffffffffffffffff168473ffffffffffffffffffffffffffffffffffffffff1614156116a3576040517f08c379a000000000000000000000000000000000000000000000000000000000815260040161169a90612ef7565b60405180910390fd5b60006116ad611615565b90506116ce816000876116bf88611da1565b6116c888611da1565b876117c9565b8260008086815260200190815260200160002060008773ffffffffffffffffffffffffffffffffffffffff1673ffffffffffffffffffffffffffffffffffffffff168152602001908152602001600020600082825461172d919061309a565b925050819055508473ffffffffffffffffffffffffffffffffffffffff16600073ffffffffffffffffffffffffffffffffffffffff168273ffffffffffffffffffffffffffffffffffffffff167fc3d58168c5ae7397731d063d5bbf3d657854427343f4c083240f7aacaa2d0f6287876040516117ab929190612f52565b60405180910390a46117c281600087878787611e67565b5050505050565b505050505050565b6117f08473ffffffffffffffffffffffffffffffffffffffff16612130565b156119b0578373ffffffffffffffffffffffffffffffffffffffff1663bc197c8187878686866040518663ffffffff1660e01b8152600401611836959493929190612b64565b602060405180830381600087803b15801561185057600080fd5b505af192505050801561188157506040513d601f19601f8201168201806040525081019061187e919061270a565b60015b6119275761188d61331d565b806308c379a014156118ea57506118a26138c8565b806118ad57506118ec565b806040517f08c379a00000000000000000000000000000000000000000000000000000000081526004016118e19190612cb5565b60405180910390fd5b505b6040517f08c379a000000000000000000000000000000000000000000000000000000000815260040161191e90612cd7565b60405180910390fd5b63bc197c8160e01b7bffffffffffffffffffffffffffffffffffffffffffffffffffffffff1916817bffffffffffffffffffffffffffffffffffffffffffffffffffffffff1916146119ae576040517f08c379a00000000000000000000000000000000000000000000000000000000081526004016119a590612cf7565b60405180910390fd5b505b505050505050565b6119c28282610deb565b611a955760016003600084815260200190815260200160002060000160008373ffffffffffffffffffffffffffffffffffffffff1673ffffffffffffffffffffffffffffffffffffffff16815260200190815260200160002060006101000a81548160ff021916908315150217905550611a3a611615565b73ffffffffffffffffffffffffffffffffffffffff168173ffffffffffffffffffffffffffffffffffffffff16837f2f8788117e7eff1d82e926ec794901d17c78024a50270940304540a733656f0d60405160405180910390a45b5050565b611aa38282610deb565b15611b775760006003600084815260200190815260200160002060000160008373ffffffffffffffffffffffffffffffffffffffff1673ffffffffffffffffffffffffffffffffffffffff16815260200190815260200160002060006101000a81548160ff021916908315150217905550611b1c611615565b73ffffffffffffffffffffffffffffffffffffffff168173ffffffffffffffffffffffffffffffffffffffff16837ff6391f5c32d9c69d2a47ea670b442974b53935d1edc7fd64eb21e047a839171b60405160405180910390a45b5050565b600073ffffffffffffffffffffffffffffffffffffffff168373ffffffffffffffffffffffffffffffffffffffff161415611beb576040517f08c379a0000000000000000000000000000000000000000000000000000000008152600401611be290612e37565b60405180910390fd5b6000611bf5611615565b9050611c2581856000611c0787611da1565b611c1087611da1565b604051806020016040528060008152506117c9565b600080600085815260200190815260200160002060008673ffffffffffffffffffffffffffffffffffffffff1673ffffffffffffffffffffffffffffffffffffffff16815260200190815260200160002054905082811015611cbc576040517f08c379a0000000000000000000000000000000000000000000000000000000008152600401611cb390612d57565b60405180910390fd5b8281611cc891906130f0565b60008086815260200190815260200160002060008773ffffffffffffffffffffffffffffffffffffffff1673ffffffffffffffffffffffffffffffffffffffff16815260200190815260200160002081905550600073ffffffffffffffffffffffffffffffffffffffff168573ffffffffffffffffffffffffffffffffffffffff168373ffffffffffffffffffffffffffffffffffffffff167fc3d58168c5ae7397731d063d5bbf3d657854427343f4c083240f7aacaa2d0f628787604051611d92929190612f52565b60405180910390a45050505050565b60606000600167ffffffffffffffff811115611de6577f4e487b7100000000000000000000000000000000000000000000000000000000600052604160045260246000fd5b604051908082528060200260200182016040528015611e145781602001602082028036833780820191505090505b5090508281600081518110611e52577f4e487b7100000000000000000000000000000000000000000000000000000000600052603260045260246000fd5b60200260200101818152505080915050919050565b611e868473ffffffffffffffffffffffffffffffffffffffff16612130565b15612046578373ffffffffffffffffffffffffffffffffffffffff1663f23a6e6187878686866040518663ffffffff1660e01b8152600401611ecc959493929190612bcc565b602060405180830381600087803b158015611ee657600080fd5b505af1925050508015611f1757506040513d601f19601f82011682018060405250810190611f14919061270a565b60015b611fbd57611f2361331d565b806308c379a01415611f805750611f386138c8565b80611f435750611f82565b806040517f08c379a0000000000000000000000000000000000000000000000000000000008152600401611f779190612cb5565b60405180910390fd5b505b6040517f08c379a0000000000000000000000000000000000000000000000000000000008152600401611fb490612cd7565b60405180910390fd5b63f23a6e6160e01b7bffffffffffffffffffffffffffffffffffffffffffffffffffffffff1916817bffffffffffffffffffffffffffffffffffffffffffffffffffffffff191614612044576040517f08c379a000000000000000000000000000000000000000000000000000000000815260040161203b90612cf7565b60405180910390fd5b505b505050505050565b60007fd9b67a26000000000000000000000000000000000000000000000000000000007bffffffffffffffffffffffffffffffffffffffffffffffffffffffff1916827bffffffffffffffffffffffffffffffffffffffffffffffffffffffff1916148061211957507f0e89341c000000000000000000000000000000000000000000000000000000007bffffffffffffffffffffffffffffffffffffffffffffffffffffffff1916827bffffffffffffffffffffffffffffffffffffffffffffffffffffffff1916145b80612129575061212882612143565b5b9050919050565b600080823b905060008111915050919050565b60007f01ffc9a7000000000000000000000000000000000000000000000000000000007bffffffffffffffffffffffffffffffffffffffffffffffffffffffff1916827bffffffffffffffffffffffffffffffffffffffffffffffffffffffff1916149050919050565b60006121c06121bb84612fa0565b612f7b565b905080838252602082019050828560208602820111156121df57600080fd5b60005b8581101561220f57816121f588826122c3565b8452602084019350602083019250506001810190506121e2565b5050509392505050565b600061222c61222784612fcc565b612f7b565b9050808382526020820190508285602086028201111561224b57600080fd5b60005b8581101561227b578161226188826123aa565b84526020840193506020830192505060018101905061224e565b5050509392505050565b600061229861229384612ff8565b612f7b565b9050828152602081018484840111156122b057600080fd5b6122bb8482856131a2565b509392505050565b6000813590506122d28161395e565b92915050565b600082601f8301126122e957600080fd5b81356122f98482602086016121ad565b91505092915050565b600082601f83011261231357600080fd5b8135612323848260208601612219565b91505092915050565b60008135905061233b81613975565b92915050565b6000813590506123508161398c565b92915050565b600081359050612365816139a3565b92915050565b60008151905061237a816139a3565b92915050565b600082601f83011261239157600080fd5b81356123a1848260208601612285565b91505092915050565b6000813590506123b9816139ba565b92915050565b600080604083850312156123d257600080fd5b60006123e0858286016122c3565b92505060206123f1858286016122c3565b9150509250929050565b600080600080600060a0868803121561241357600080fd5b6000612421888289016122c3565b9550506020612432888289016122c3565b945050604086013567ffffffffffffffff81111561244f57600080fd5b61245b88828901612302565b935050606086013567ffffffffffffffff81111561247857600080fd5b61248488828901612302565b925050608086013567ffffffffffffffff8111156124a157600080fd5b6124ad88828901612380565b9150509295509295909350565b600080600080600060a086880312156124d257600080fd5b60006124e0888289016122c3565b95505060206124f1888289016122c3565b9450506040612502888289016123aa565b9350506060612513888289016123aa565b925050608086013567ffffffffffffffff81111561253057600080fd5b61253c88828901612380565b9150509295509295909350565b6000806040838503121561255c57600080fd5b600061256a858286016122c3565b925050602061257b8582860161232c565b9150509250929050565b6000806040838503121561259857600080fd5b60006125a6858286016122c3565b92505060206125b7858286016123aa565b9150509250929050565b6000806000606084860312156125d657600080fd5b60006125e4868287016122c3565b93505060206125f5868287016123aa565b9250506040612606868287016123aa565b9150509250925092565b6000806040838503121561262357600080fd5b600083013567ffffffffffffffff81111561263d57600080fd5b612649858286016122d8565b925050602083013567ffffffffffffffff81111561266657600080fd5b61267285828601612302565b9150509250929050565b60006020828403121561268e57600080fd5b600061269c84828501612341565b91505092915050565b600080604083850312156126b857600080fd5b60006126c685828601612341565b92505060206126d7858286016122c3565b9150509250929050565b6000602082840312156126f357600080fd5b600061270184828501612356565b91505092915050565b60006020828403121561271c57600080fd5b600061272a8482850161236b565b91505092915050565b60006020828403121561274557600080fd5b6000612753848285016123aa565b91505092915050565b6000806040838503121561276f57600080fd5b600061277d858286016123aa565b925050602061278e858286016123aa565b9150509250929050565b60006127a48383612b46565b60208301905092915050565b6127b981613124565b82525050565b60006127ca82613039565b6127d48185613067565b93506127df83613029565b8060005b838110156128105781516127f78882612798565b97506128028361305a565b9250506001810190506127e3565b5085935050505092915050565b61282681613136565b82525050565b61283581613142565b82525050565b600061284682613044565b6128508185613078565b93506128608185602086016131b1565b6128698161333f565b840191505092915050565b600061287f8261304f565b6128898185613089565b93506128998185602086016131b1565b6128a28161333f565b840191505092915050565b60006128ba603483613089565b91506128c58261335d565b604082019050919050565b60006128dd602883613089565b91506128e8826133ac565b604082019050919050565b6000612900602f83613089565b915061290b826133fb565b604082019050919050565b6000612923602b83613089565b915061292e8261344a565b604082019050919050565b6000612946602483613089565b915061295182613499565b604082019050919050565b6000612969602983613089565b9150612974826134e8565b604082019050919050565b600061298c603083613089565b915061299782613537565b604082019050919050565b60006129af601583613089565b91506129ba82613586565b602082019050919050565b60006129d2602583613089565b91506129dd826135af565b604082019050919050565b60006129f5603283613089565b9150612a00826135fe565b604082019050919050565b6000612a18601683613089565b9150612a238261364d565b602082019050919050565b6000612a3b602383613089565b9150612a4682613676565b604082019050919050565b6000612a5e601b83613089565b9150612a69826136c5565b602082019050919050565b6000612a81602a83613089565b9150612a8c826136ee565b604082019050919050565b6000612aa4602983613089565b9150612aaf8261373d565b604082019050919050565b6000612ac7602983613089565b9150612ad28261378c565b604082019050919050565b6000612aea602883613089565b9150612af5826137db565b604082019050919050565b6000612b0d602183613089565b9150612b188261382a565b604082019050919050565b6000612b30602f83613089565b9150612b3b82613879565b604082019050919050565b612b4f81613198565b82525050565b612b5e81613198565b82525050565b600060a082019050612b7960008301886127b0565b612b8660208301876127b0565b8181036040830152612b9881866127bf565b90508181036060830152612bac81856127bf565b90508181036080830152612bc0818461283b565b90509695505050505050565b600060a082019050612be160008301886127b0565b612bee60208301876127b0565b612bfb6040830186612b55565b612c086060830185612b55565b8181036080830152612c1a818461283b565b90509695505050505050565b60006020820190508181036000830152612c4081846127bf565b905092915050565b60006040820190508181036000830152612c6281856127bf565b90508181036020830152612c7681846127bf565b90509392505050565b6000602082019050612c94600083018461281d565b92915050565b6000602082019050612caf600083018461282c565b92915050565b60006020820190508181036000830152612ccf8184612874565b905092915050565b60006020820190508181036000830152612cf0816128ad565b9050919050565b60006020820190508181036000830152612d10816128d0565b9050919050565b60006020820190508181036000830152612d30816128f3565b9050919050565b60006020820190508181036000830152612d5081612916565b9050919050565b60006020820190508181036000830152612d7081612939565b9050919050565b60006020820190508181036000830152612d908161295c565b9050919050565b60006020820190508181036000830152612db08161297f565b9050919050565b60006020820190508181036000830152612dd0816129a2565b9050919050565b60006020820190508181036000830152612df0816129c5565b9050919050565b60006020820190508181036000830152612e10816129e8565b9050919050565b60006020820190508181036000830152612e3081612a0b565b9050919050565b60006020820190508181036000830152612e5081612a2e565b9050919050565b60006020820190508181036000830152612e7081612a51565b9050919050565b60006020820190508181036000830152612e9081612a74565b9050919050565b60006020820190508181036000830152612eb081612a97565b9050919050565b60006020820190508181036000830152612ed081612aba565b9050919050565b60006020820190508181036000830152612ef081612add565b9050919050565b60006020820190508181036000830152612f1081612b00565b9050919050565b60006020820190508181036000830152612f3081612b23565b9050919050565b6000602082019050612f4c6000830184612b55565b92915050565b6000604082019050612f676000830185612b55565b612f746020830184612b55565b9392505050565b6000612f85612f96565b9050612f918282613216565b919050565b6000604051905090565b600067ffffffffffffffff821115612fbb57612fba6132ee565b5b602082029050602081019050919050565b600067ffffffffffffffff821115612fe757612fe66132ee565b5b602082029050602081019050919050565b600067ffffffffffffffff821115613013576130126132ee565b5b61301c8261333f565b9050602081019050919050565b6000819050602082019050919050565b600081519050919050565b600081519050919050565b600081519050919050565b6000602082019050919050565b600082825260208201905092915050565b600082825260208201905092915050565b600082825260208201905092915050565b60006130a582613198565b91506130b083613198565b9250827fffffffffffffffffffffffffffffffffffffffffffffffffffffffffffffffff038211156130e5576130e4613290565b5b828201905092915050565b60006130fb82613198565b915061310683613198565b92508282101561311957613118613290565b5b828203905092915050565b600061312f82613178565b9050919050565b60008115159050919050565b6000819050919050565b60007fffffffff0000000000000000000000000000000000000000000000000000000082169050919050565b600073ffffffffffffffffffffffffffffffffffffffff82169050919050565b6000819050919050565b82818337600083830152505050565b60005b838110156131cf5780820151818401526020810190506131b4565b838111156131de576000848401525b50505050565b600060028204905060018216806131fc57607f821691505b602082108114156132105761320f6132bf565b5b50919050565b61321f8261333f565b810181811067ffffffffffffffff8211171561323e5761323d6132ee565b5b80604052505050565b600061325282613198565b91507fffffffffffffffffffffffffffffffffffffffffffffffffffffffffffffffff82141561328557613284613290565b5b600182019050919050565b7f4e487b7100000000000000000000000000000000000000000000000000000000600052601160045260246000fd5b7f4e487b7100000000000000000000000000000000000000000000000000000000600052602260045260246000fd5b7f4e487b7100000000000000000000000000000000000000000000000000000000600052604160045260246000fd5b600060033d111561333c5760046000803e613339600051613350565b90505b90565b6000601f19601f8301169050919050565b60008160e01c9050919050565b7f455243313135353a207472616e7366657220746f206e6f6e204552433131353560008201527f526563656976657220696d706c656d656e746572000000000000000000000000602082015250565b7f455243313135353a204552433131353552656365697665722072656a6563746560008201527f6420746f6b656e73000000000000000000000000000000000000000000000000602082015250565b7f416363657373436f6e74726f6c3a2073656e646572206d75737420626520616e60008201527f2061646d696e20746f206772616e740000000000000000000000000000000000602082015250565b7f455243313135353a2062616c616e636520717565727920666f7220746865207a60008201527f65726f2061646472657373000000000000000000000000000000000000000000602082015250565b7f455243313135353a206275726e20616d6f756e7420657863656564732062616c60008201527f616e636500000000000000000000000000000000000000000000000000000000602082015250565b7f455243313135353a2063616c6c6572206973206e6f74206f776e6572206e6f7260008201527f20617070726f7665640000000000000000000000000000000000000000000000602082015250565b7f416363657373436f6e74726f6c3a2073656e646572206d75737420626520616e60008201527f2061646d696e20746f207265766f6b6500000000000000000000000000000000602082015250565b7f546f74616c20737570706c7920726561636865642e0000000000000000000000600082015250565b7f455243313135353a207472616e7366657220746f20746865207a65726f20616460008201527f6472657373000000000000000000000000000000000000000000000000000000602082015250565b7f455243313135353a207472616e736665722063616c6c6572206973206e6f742060008201527f6f776e6572206e6f7220617070726f7665640000000000000000000000000000602082015250565b7f43616c6c6572206973206e6f742061206d696e74657200000000000000000000600082015250565b7f455243313135353a206275726e2066726f6d20746865207a65726f206164647260008201527f6573730000000000000000000000000000000000000000000000000000000000602082015250565b7f4d6178696d756d20737570706c792063616e206e6f7420626520300000000000600082015250565b7f455243313135353a20696e73756666696369656e742062616c616e636520666f60008201527f72207472616e7366657200000000000000000000000000000000000000000000602082015250565b7f455243313135353a2073657474696e6720617070726f76616c2073746174757360008201527f20666f722073656c660000000000000000000000000000000000000000000000602082015250565b7f455243313135353a206163636f756e747320616e6420696473206c656e67746860008201527f206d69736d617463680000000000000000000000000000000000000000000000602082015250565b7f455243313135353a2069647320616e6420616d6f756e7473206c656e6774682060008201527f6d69736d61746368000000000000000000000000000000000000000000000000602082015250565b7f455243313135353a206d696e7420746f20746865207a65726f2061646472657360008201527f7300000000000000000000000000000000000000000000000000000000000000602082015250565b7f416363657373436f6e74726f6c3a2063616e206f6e6c792072656e6f756e636560008201527f20726f6c657320666f722073656c660000000000000000000000000000000000602082015250565b600060443d10156138d85761395b565b6138e0612f96565b60043d036004823e80513d602482011167ffffffffffffffff8211171561390857505061395b565b808201805167ffffffffffffffff811115613926575050505061395b565b80602083010160043d03850181111561394357505050505061395b565b61395282602001850186613216565b82955050505050505b90565b61396781613124565b811461397257600080fd5b50565b61397e81613136565b811461398957600080fd5b50565b61399581613142565b81146139a057600080fd5b50565b6139ac8161314c565b81146139b757600080fd5b50565b6139c381613198565b81146139ce57600080fd5b5056fea2646970667358221220d18ed9aa90ddfbb5b885b485ccc6ca698fc7f53eee5c3ed26015eb711895d2af64736f6c6343000803003368747470733a2f2f7777772e74726f747465722e66696e616e63652f6170692f4e4654732f",
  "immutableReferences": {},
  "source": "// SPDX-License-Identifier: MIT\npragma solidity >=0.6.12;\n\nimport \"@openzeppelin/contracts/token/ERC1155/ERC1155.sol\";\nimport \"@openzeppelin/contracts/access/AccessControl.sol\";\nimport \"@openzeppelin/contracts/utils/math/SafeMath.sol\";\n\ncontract TrotterNft is ERC1155, AccessControl {\n    using SafeMath for uint256;\n\n    constructor() ERC1155(\"https://www.trotter.finance/api/NFTs/\") {\n        _setupRole(DEFAULT_ADMIN_ROLE, _msgSender());\n    }\n\n    bytes32 public constant MINTER_ROLE = keccak256(\"MINTER_ROLE\");\n\n    uint256 public cards;\n    mapping(uint256 => uint256) public totalSupply;\n    mapping(uint256 => uint256) public circulatingSupply;\n\n    event CardAdded(uint256 id, uint256 maxSupply);\n\n    /**\n     * @dev Get contract URL\n     */\n    function contractURI() public view returns (string memory) {\n        return string(uri(0));\n    }\n\n    /**\n     * @notice Creates a new card for unique `NFT`.\n     *\n     * This signifies each unique NFT,\n     *\n     * Each NFT can appear more than once, this is where to declare it before minting a copy.\n     *\n     * The less amount an NFT can be minted determines the value,\n     * Low amount of an NFT in circulation makes it rare and more expensive.\n     *\n     * @param maxSupply The max supply of the NFTs on this card.\n     */\n    function addCard(uint256 maxSupply) public returns (uint256) {\n        require(hasRole(MINTER_ROLE, _msgSender()), \"Caller is not a minter\");\n        require(maxSupply > 0, \"Maximum supply can not be 0\");\n        cards = cards.add(1);\n        totalSupply[cards] = maxSupply;\n        emit CardAdded(cards, maxSupply);\n        return cards;\n    }\n\n    /**\n     * @notice Mints a new NFT to an NFT card.\n     *\n     * @param to Address to receive the new minted NFT.\n     * @param id The card id to mint NFT from.\n     * @param amount The amount of NFT to mint on this card.\n     */\n    function mint(\n        address to,\n        uint256 id,\n        uint256 amount\n    ) public {\n        require(hasRole(MINTER_ROLE, _msgSender()), \"Caller is not a minter\");\n        require(\n            circulatingSupply[id].add(amount) <= totalSupply[id],\n            \"Total supply reached.\"\n        );\n        circulatingSupply[id] = circulatingSupply[id].add(amount);\n        _mint(to, id, amount, \"\");\n    }\n\n    /**\n     * @notice Burn an NFT from NFT card.\n     *\n     * @param id The card id to burn NFT from.\n     * @param amount The amount of NFT to burn from this card.\n     */\n    function burn(uint256 id, uint256 amount) public {\n        _burn(_msgSender(), id, amount);\n    }\n\n    /**\n     * @dev ERC1155 and AccessControl include supportsInterface so we need to override both\n     */\n    function supportsInterface(bytes4 interfaceId)\n        public\n        view\n        virtual\n        override(ERC1155, AccessControl)\n        returns (bool)\n    {\n        return super.supportsInterface(interfaceId);\n    }\n}\n",
  "sourcePath": "/Users/Chris/Coding/Blockchain/trotter-market/contracts/TrotterNft.sol",
  "compiler": {
    "name": "solc",
    "version": "0.8.3+commit.8d00100c.Emscripten.clang"
  },
  "schemaVersion": "3.3.4",
  "updatedAt": "2021-03-29T12:04:47.512Z",
  "devdoc": {
    "kind": "dev",
    "methods": {
      "addCard(uint256)": {
        "params": {
          "maxSupply": "The max supply of the NFTs on this card."
        }
      },
      "balanceOf(address,uint256)": {
        "details": "See {IERC1155-balanceOf}. Requirements: - `account` cannot be the zero address."
      },
      "balanceOfBatch(address[],uint256[])": {
        "details": "See {IERC1155-balanceOfBatch}. Requirements: - `accounts` and `ids` must have the same length."
      },
      "burn(uint256,uint256)": {
        "params": {
          "amount": "The amount of NFT to burn from this card.",
          "id": "The card id to burn NFT from."
        }
      },
      "contractURI()": {
        "details": "Get contract URL"
      },
      "getRoleAdmin(bytes32)": {
        "details": "Returns the admin role that controls `role`. See {grantRole} and {revokeRole}. To change a role's admin, use {_setRoleAdmin}."
      },
      "grantRole(bytes32,address)": {
        "details": "Grants `role` to `account`. If `account` had not been already granted `role`, emits a {RoleGranted} event. Requirements: - the caller must have ``role``'s admin role."
      },
      "hasRole(bytes32,address)": {
        "details": "Returns `true` if `account` has been granted `role`."
      },
      "isApprovedForAll(address,address)": {
        "details": "See {IERC1155-isApprovedForAll}."
      },
      "mint(address,uint256,uint256)": {
        "params": {
          "amount": "The amount of NFT to mint on this card.",
          "id": "The card id to mint NFT from.",
          "to": "Address to receive the new minted NFT."
        }
      },
      "renounceRole(bytes32,address)": {
        "details": "Revokes `role` from the calling account. Roles are often managed via {grantRole} and {revokeRole}: this function's purpose is to provide a mechanism for accounts to lose their privileges if they are compromised (such as when a trusted device is misplaced). If the calling account had been granted `role`, emits a {RoleRevoked} event. Requirements: - the caller must be `account`."
      },
      "revokeRole(bytes32,address)": {
        "details": "Revokes `role` from `account`. If `account` had been granted `role`, emits a {RoleRevoked} event. Requirements: - the caller must have ``role``'s admin role."
      },
      "safeBatchTransferFrom(address,address,uint256[],uint256[],bytes)": {
        "details": "See {IERC1155-safeBatchTransferFrom}."
      },
      "safeTransferFrom(address,address,uint256,uint256,bytes)": {
        "details": "See {IERC1155-safeTransferFrom}."
      },
      "setApprovalForAll(address,bool)": {
        "details": "See {IERC1155-setApprovalForAll}."
      },
      "supportsInterface(bytes4)": {
        "details": "ERC1155 and AccessControl include supportsInterface so we need to override both"
      },
      "uri(uint256)": {
        "details": "See {IERC1155MetadataURI-uri}. This implementation returns the same URI for *all* token types. It relies on the token type ID substitution mechanism https://eips.ethereum.org/EIPS/eip-1155#metadata[defined in the EIP]. Clients calling this function must replace the `\\{id\\}` substring with the actual token type ID."
      }
    },
    "version": 1
  },
  "userdoc": {
    "kind": "user",
    "methods": {
      "addCard(uint256)": {
        "notice": "Creates a new card for unique `NFT`. This signifies each unique NFT, Each NFT can appear more than once, this is where to declare it before minting a copy. The less amount an NFT can be minted determines the value, Low amount of an NFT in circulation makes it rare and more expensive."
      },
      "burn(uint256,uint256)": {
        "notice": "Burn an NFT from NFT card."
      },
      "mint(address,uint256,uint256)": {
        "notice": "Mints a new NFT to an NFT card."
      }
    },
    "version": 1
  }
}