{
  "contractName": "TrotterNft",
  "abi": [
    {
      "inputs": [],
      "stateMutability": "nonpayable",
      "type": "constructor"
    },
    {
      "anonymous": false,
      "inputs": [
        {
          "indexed": true,
          "internalType": "address",
          "name": "account",
          "type": "address"
        },
        {
          "indexed": true,
          "internalType": "address",
          "name": "operator",
          "type": "address"
        },
        {
          "indexed": false,
          "internalType": "bool",
          "name": "approved",
          "type": "bool"
        }
      ],
      "name": "ApprovalForAll",
      "type": "event"
    },
    {
      "anonymous": false,
      "inputs": [
        {
          "indexed": false,
          "internalType": "uint256",
          "name": "id",
          "type": "uint256"
        },
        {
          "indexed": false,
          "internalType": "uint256",
          "name": "maxSupply",
          "type": "uint256"
        }
      ],
      "name": "CardAdded",
      "type": "event"
    },
    {
      "anonymous": false,
      "inputs": [
        {
          "indexed": true,
          "internalType": "bytes32",
          "name": "role",
          "type": "bytes32"
        },
        {
          "indexed": true,
          "internalType": "bytes32",
          "name": "previousAdminRole",
          "type": "bytes32"
        },
        {
          "indexed": true,
          "internalType": "bytes32",
          "name": "newAdminRole",
          "type": "bytes32"
        }
      ],
      "name": "RoleAdminChanged",
      "type": "event"
    },
    {
      "anonymous": false,
      "inputs": [
        {
          "indexed": true,
          "internalType": "bytes32",
          "name": "role",
          "type": "bytes32"
        },
        {
          "indexed": true,
          "internalType": "address",
          "name": "account",
          "type": "address"
        },
        {
          "indexed": true,
          "internalType": "address",
          "name": "sender",
          "type": "address"
        }
      ],
      "name": "RoleGranted",
      "type": "event"
    },
    {
      "anonymous": false,
      "inputs": [
        {
          "indexed": true,
          "internalType": "bytes32",
          "name": "role",
          "type": "bytes32"
        },
        {
          "indexed": true,
          "internalType": "address",
          "name": "account",
          "type": "address"
        },
        {
          "indexed": true,
          "internalType": "address",
          "name": "sender",
          "type": "address"
        }
      ],
      "name": "RoleRevoked",
      "type": "event"
    },
    {
      "anonymous": false,
      "inputs": [
        {
          "indexed": true,
          "internalType": "address",
          "name": "operator",
          "type": "address"
        },
        {
          "indexed": true,
          "internalType": "address",
          "name": "from",
          "type": "address"
        },
        {
          "indexed": true,
          "internalType": "address",
          "name": "to",
          "type": "address"
        },
        {
          "indexed": false,
          "internalType": "uint256[]",
          "name": "ids",
          "type": "uint256[]"
        },
        {
          "indexed": false,
          "internalType": "uint256[]",
          "name": "values",
          "type": "uint256[]"
        }
      ],
      "name": "TransferBatch",
      "type": "event"
    },
    {
      "anonymous": false,
      "inputs": [
        {
          "indexed": true,
          "internalType": "address",
          "name": "operator",
          "type": "address"
        },
        {
          "indexed": true,
          "internalType": "address",
          "name": "from",
          "type": "address"
        },
        {
          "indexed": true,
          "internalType": "address",
          "name": "to",
          "type": "address"
        },
        {
          "indexed": false,
          "internalType": "uint256",
          "name": "id",
          "type": "uint256"
        },
        {
          "indexed": false,
          "internalType": "uint256",
          "name": "value",
          "type": "uint256"
        }
      ],
      "name": "TransferSingle",
      "type": "event"
    },
    {
      "anonymous": false,
      "inputs": [
        {
          "indexed": false,
          "internalType": "string",
          "name": "value",
          "type": "string"
        },
        {
          "indexed": true,
          "internalType": "uint256",
          "name": "id",
          "type": "uint256"
        }
      ],
      "name": "URI",
      "type": "event"
    },
    {
      "inputs": [],
      "name": "DEFAULT_ADMIN_ROLE",
      "outputs": [
        {
          "internalType": "bytes32",
          "name": "",
          "type": "bytes32"
        }
      ],
      "stateMutability": "view",
      "type": "function"
    },
    {
      "inputs": [],
      "name": "MINTER_ROLE",
      "outputs": [
        {
          "internalType": "bytes32",
          "name": "",
          "type": "bytes32"
        }
      ],
      "stateMutability": "view",
      "type": "function"
    },
    {
      "inputs": [
        {
          "internalType": "address",
          "name": "account",
          "type": "address"
        },
        {
          "internalType": "uint256",
          "name": "id",
          "type": "uint256"
        }
      ],
      "name": "balanceOf",
      "outputs": [
        {
          "internalType": "uint256",
          "name": "",
          "type": "uint256"
        }
      ],
      "stateMutability": "view",
      "type": "function"
    },
    {
      "inputs": [
        {
          "internalType": "address[]",
          "name": "accounts",
          "type": "address[]"
        },
        {
          "internalType": "uint256[]",
          "name": "ids",
          "type": "uint256[]"
        }
      ],
      "name": "balanceOfBatch",
      "outputs": [
        {
          "internalType": "uint256[]",
          "name": "",
          "type": "uint256[]"
        }
      ],
      "stateMutability": "view",
      "type": "function"
    },
    {
      "inputs": [],
      "name": "cards",
      "outputs": [
        {
          "internalType": "uint256",
          "name": "",
          "type": "uint256"
        }
      ],
      "stateMutability": "view",
      "type": "function"
    },
    {
      "inputs": [
        {
          "internalType": "uint256",
          "name": "",
          "type": "uint256"
        }
      ],
      "name": "circulatingSupply",
      "outputs": [
        {
          "internalType": "uint256",
          "name": "",
          "type": "uint256"
        }
      ],
      "stateMutability": "view",
      "type": "function"
    },
    {
      "inputs": [
        {
          "internalType": "bytes32",
          "name": "role",
          "type": "bytes32"
        }
      ],
      "name": "getRoleAdmin",
      "outputs": [
        {
          "internalType": "bytes32",
          "name": "",
          "type": "bytes32"
        }
      ],
      "stateMutability": "view",
      "type": "function"
    },
    {
      "inputs": [
        {
          "internalType": "bytes32",
          "name": "role",
          "type": "bytes32"
        },
        {
          "internalType": "address",
          "name": "account",
          "type": "address"
        }
      ],
      "name": "grantRole",
      "outputs": [],
      "stateMutability": "nonpayable",
      "type": "function"
    },
    {
      "inputs": [
        {
          "internalType": "bytes32",
          "name": "role",
          "type": "bytes32"
        },
        {
          "internalType": "address",
          "name": "account",
          "type": "address"
        }
      ],
      "name": "hasRole",
      "outputs": [
        {
          "internalType": "bool",
          "name": "",
          "type": "bool"
        }
      ],
      "stateMutability": "view",
      "type": "function"
    },
    {
      "inputs": [
        {
          "internalType": "address",
          "name": "account",
          "type": "address"
        },
        {
          "internalType": "address",
          "name": "operator",
          "type": "address"
        }
      ],
      "name": "isApprovedForAll",
      "outputs": [
        {
          "internalType": "bool",
          "name": "",
          "type": "bool"
        }
      ],
      "stateMutability": "view",
      "type": "function"
    },
    {
      "inputs": [
        {
          "internalType": "uint256",
          "name": "",
          "type": "uint256"
        },
        {
          "internalType": "address",
          "name": "",
          "type": "address"
        }
      ],
      "name": "nfts",
      "outputs": [
        {
          "internalType": "string",
          "name": "name",
          "type": "string"
        },
        {
          "internalType": "string",
          "name": "ipfsHash",
          "type": "string"
        },
        {
          "internalType": "enum TrotterNft.statusEnum",
          "name": "status",
          "type": "uint8"
        }
      ],
      "stateMutability": "view",
      "type": "function"
    },
    {
      "inputs": [
        {
          "internalType": "bytes32",
          "name": "role",
          "type": "bytes32"
        },
        {
          "internalType": "address",
          "name": "account",
          "type": "address"
        }
      ],
      "name": "renounceRole",
      "outputs": [],
      "stateMutability": "nonpayable",
      "type": "function"
    },
    {
      "inputs": [
        {
          "internalType": "bytes32",
          "name": "role",
          "type": "bytes32"
        },
        {
          "internalType": "address",
          "name": "account",
          "type": "address"
        }
      ],
      "name": "revokeRole",
      "outputs": [],
      "stateMutability": "nonpayable",
      "type": "function"
    },
    {
      "inputs": [
        {
          "internalType": "address",
          "name": "from",
          "type": "address"
        },
        {
          "internalType": "address",
          "name": "to",
          "type": "address"
        },
        {
          "internalType": "uint256[]",
          "name": "ids",
          "type": "uint256[]"
        },
        {
          "internalType": "uint256[]",
          "name": "amounts",
          "type": "uint256[]"
        },
        {
          "internalType": "bytes",
          "name": "data",
          "type": "bytes"
        }
      ],
      "name": "safeBatchTransferFrom",
      "outputs": [],
      "stateMutability": "nonpayable",
      "type": "function"
    },
    {
      "inputs": [
        {
          "internalType": "address",
          "name": "from",
          "type": "address"
        },
        {
          "internalType": "address",
          "name": "to",
          "type": "address"
        },
        {
          "internalType": "uint256",
          "name": "id",
          "type": "uint256"
        },
        {
          "internalType": "uint256",
          "name": "amount",
          "type": "uint256"
        },
        {
          "internalType": "bytes",
          "name": "data",
          "type": "bytes"
        }
      ],
      "name": "safeTransferFrom",
      "outputs": [],
      "stateMutability": "nonpayable",
      "type": "function"
    },
    {
      "inputs": [
        {
          "internalType": "address",
          "name": "operator",
          "type": "address"
        },
        {
          "internalType": "bool",
          "name": "approved",
          "type": "bool"
        }
      ],
      "name": "setApprovalForAll",
      "outputs": [],
      "stateMutability": "nonpayable",
      "type": "function"
    },
    {
      "inputs": [
        {
          "internalType": "uint256",
          "name": "",
          "type": "uint256"
        }
      ],
      "name": "totalSupply",
      "outputs": [
        {
          "internalType": "uint256",
          "name": "",
          "type": "uint256"
        }
      ],
      "stateMutability": "view",
      "type": "function"
    },
    {
      "inputs": [
        {
          "internalType": "uint256",
          "name": "",
          "type": "uint256"
        }
      ],
      "name": "uri",
      "outputs": [
        {
          "internalType": "string",
          "name": "",
          "type": "string"
        }
      ],
      "stateMutability": "view",
      "type": "function"
    },
    {
      "inputs": [],
      "name": "contractURI",
      "outputs": [
        {
          "internalType": "string",
          "name": "",
          "type": "string"
        }
      ],
      "stateMutability": "view",
      "type": "function"
    },
    {
      "inputs": [
        {
          "internalType": "string",
          "name": "name",
          "type": "string"
        },
        {
          "internalType": "string",
          "name": "ipfsHash",
          "type": "string"
        },
        {
          "internalType": "address",
          "name": "newOwner",
          "type": "address"
        },
        {
          "internalType": "uint256",
          "name": "maxSupply",
          "type": "uint256"
        },
        {
          "internalType": "uint256",
          "name": "initialSupply",
          "type": "uint256"
        }
      ],
      "name": "createNftCard",
      "outputs": [],
      "stateMutability": "nonpayable",
      "type": "function"
    },
    {
      "inputs": [
        {
          "internalType": "uint256",
          "name": "maxSupply",
          "type": "uint256"
        }
      ],
      "name": "addCard",
      "outputs": [
        {
          "internalType": "uint256",
          "name": "",
          "type": "uint256"
        }
      ],
      "stateMutability": "nonpayable",
      "type": "function"
    },
    {
      "inputs": [
        {
          "internalType": "address",
          "name": "to",
          "type": "address"
        },
        {
          "internalType": "uint256",
          "name": "id",
          "type": "uint256"
        },
        {
          "internalType": "uint256",
          "name": "amount",
          "type": "uint256"
        }
      ],
      "name": "mint",
      "outputs": [],
      "stateMutability": "nonpayable",
      "type": "function"
    },
    {
      "inputs": [
        {
          "internalType": "uint256",
          "name": "id",
          "type": "uint256"
        },
        {
          "internalType": "uint256",
          "name": "amount",
          "type": "uint256"
        }
      ],
      "name": "burn",
      "outputs": [],
      "stateMutability": "nonpayable",
      "type": "function"
    },
    {
      "inputs": [
        {
          "internalType": "bytes4",
          "name": "interfaceId",
          "type": "bytes4"
        }
      ],
      "name": "supportsInterface",
      "outputs": [
        {
          "internalType": "bool",
          "name": "",
          "type": "bool"
        }
      ],
      "stateMutability": "view",
      "type": "function"
    }
  ],
  "bytecode": "0x60806040523480156200001157600080fd5b50604051806060016040528060258152602001620044eb602591396200003d816200006860201b60201c565b50620000626000801b620000566200008460201b60201c565b6200008c60201b60201c565b62000314565b806002908051906020019062000080929190620001ff565b5050565b600033905090565b6200009e8282620000a260201b60201c565b5050565b620000b482826200019460201b60201c565b620001905760016003600084815260200190815260200160002060000160008373ffffffffffffffffffffffffffffffffffffffff1673ffffffffffffffffffffffffffffffffffffffff16815260200190815260200160002060006101000a81548160ff021916908315150217905550620001356200008460201b60201c565b73ffffffffffffffffffffffffffffffffffffffff168173ffffffffffffffffffffffffffffffffffffffff16837f2f8788117e7eff1d82e926ec794901d17c78024a50270940304540a733656f0d60405160405180910390a45b5050565b60006003600084815260200190815260200160002060000160008373ffffffffffffffffffffffffffffffffffffffff1673ffffffffffffffffffffffffffffffffffffffff16815260200190815260200160002060009054906101000a900460ff16905092915050565b8280546200020d90620002af565b90600052602060002090601f0160209004810192826200023157600085556200027d565b82601f106200024c57805160ff19168380011785556200027d565b828001600101855582156200027d579182015b828111156200027c5782518255916020019190600101906200025f565b5b5090506200028c919062000290565b5090565b5b80821115620002ab57600081600090555060010162000291565b5090565b60006002820490506001821680620002c857607f821691505b60208210811415620002df57620002de620002e5565b5b50919050565b7f4e487b7100000000000000000000000000000000000000000000000000000000600052602260045260246000fd5b6141c780620003246000396000f3fe608060405234801561001057600080fd5b50600436106101575760003560e01c8063a217fddf116100c3578063d547741f1161007c578063d547741f14610410578063e8a3d4851461042c578063e985e9c51461044a578063e9c635be1461047a578063f242432a14610496578063f9e53755146104b257610157565b8063a217fddf1461033a578063a22cb46514610358578063ae431d4f14610374578063b390c0ab146103a6578063bd85b039146103c2578063d5391393146103f257610157565b80632f2ff15d116101155780632f2ff15d1461025457806336568abe146102705780634e1273f41461028c57806358a4903f146102bc57806391d14854146102da57806392ff6aea1461030a57610157565b8062fdd58e1461015c57806301ffc9a71461018c5780630e89341c146101bc578063156e29f6146101ec578063248a9ca3146102085780632eb2c2d614610238575b600080fd5b61017660048036038101906101719190612b09565b6104e2565b6040516101839190613635565b60405180910390f35b6101a660048036038101906101a19190612c65565b6105ab565b6040516101b39190613318565b60405180910390f35b6101d660048036038101906101d19190612d5e565b6105bd565b6040516101e3919061334e565b60405180910390f35b61020660048036038101906102019190612b45565b610651565b005b610222600480360381019061021d9190612c00565b610799565b60405161022f9190613333565b60405180910390f35b610252600480360381019061024d919061297f565b6107b9565b005b61026e60048036038101906102699190612c29565b610baf565b005b61028a60048036038101906102859190612c29565b610c15565b005b6102a660048036038101906102a19190612b94565b610c98565b6040516102b391906132bf565b60405180910390f35b6102c4610e49565b6040516102d19190613635565b60405180910390f35b6102f460048036038101906102ef9190612c29565b610e4f565b6040516103019190613318565b60405180910390f35b610324600480360381019061031f9190612d5e565b610eba565b6040516103319190613635565b60405180910390f35b610342610ed2565b60405161034f9190613333565b60405180910390f35b610372600480360381019061036d9190612acd565b610ed9565b005b61038e60048036038101906103899190612d87565b61105a565b60405161039d93929190613370565b60405180910390f35b6103c060048036038101906103bb9190612dc3565b6111ae565b005b6103dc60048036038101906103d79190612d5e565b61128f565b6040516103e99190613635565b60405180910390f35b6103fa6112a7565b6040516104079190613333565b60405180910390f35b61042a60048036038101906104259190612c29565b6112cb565b005b610434611331565b604051610441919061334e565b60405180910390f35b610464600480360381019061045f9190612943565b611342565b6040516104719190613318565b60405180910390f35b610494600480360381019061048f9190612cb7565b6113d6565b005b6104b060048036038101906104ab9190612a3e565b611576565b005b6104cc60048036038101906104c79190612d5e565b61188e565b6040516104d99190613635565b60405180910390f35b60008073ffffffffffffffffffffffffffffffffffffffff168373ffffffffffffffffffffffffffffffffffffffff161415610553576040517f08c379a000000000000000000000000000000000000000000000000000000000815260040161054a90613415565b60405180910390fd5b60008083815260200190815260200160002060008473ffffffffffffffffffffffffffffffffffffffff1673ffffffffffffffffffffffffffffffffffffffff16815260200190815260200160002054905092915050565b60006105b6826119be565b9050919050565b6060600280546105cc90613938565b80601f01602080910402602001604051908101604052809291908181526020018280546105f890613938565b80156106455780601f1061061a57610100808354040283529160200191610645565b820191906000526020600020905b81548152906001019060200180831161062857829003601f168201915b50505050509050919050565b6106827f9f2df0fed2c77648de5860a4cc508cd0818c85b8b8a1ab4ceeef8d981c8956a661067d611a38565b610e4f565b6106c1576040517f08c379a00000000000000000000000000000000000000000000000000000000081526004016106b890613515565b60405180910390fd5b60056000838152602001908152602001600020546106fb826006600086815260200190815260200160002054611a4090919063ffffffff16565b111561073c576040517f08c379a0000000000000000000000000000000000000000000000000000000008152600401610733906134b5565b60405180910390fd5b610762816006600085815260200190815260200160002054611a4090919063ffffffff16565b600660008481526020019081526020016000208190555061079483838360405180602001604052806000815250611a56565b505050565b600060036000838152602001908152602001600020600101549050919050565b81518351146107fd576040517f08c379a00000000000000000000000000000000000000000000000000000000081526004016107f4906135d5565b60405180910390fd5b600073ffffffffffffffffffffffffffffffffffffffff168473ffffffffffffffffffffffffffffffffffffffff16141561086d576040517f08c379a0000000000000000000000000000000000000000000000000000000008152600401610864906134d5565b60405180910390fd5b610875611a38565b73ffffffffffffffffffffffffffffffffffffffff168573ffffffffffffffffffffffffffffffffffffffff1614806108bb57506108ba856108b5611a38565b611342565b5b6108fa576040517f08c379a00000000000000000000000000000000000000000000000000000000081526004016108f1906134f5565b60405180910390fd5b6000610904611a38565b9050610914818787878787611bec565b60005b8451811015610b1a57600085828151811061095b577f4e487b7100000000000000000000000000000000000000000000000000000000600052603260045260246000fd5b6020026020010151905060008583815181106109a0577f4e487b7100000000000000000000000000000000000000000000000000000000600052603260045260246000fd5b60200260200101519050600080600084815260200190815260200160002060008b73ffffffffffffffffffffffffffffffffffffffff1673ffffffffffffffffffffffffffffffffffffffff16815260200190815260200160002054905081811015610a41576040517f08c379a0000000000000000000000000000000000000000000000000000000008152600401610a3890613575565b60405180910390fd5b8181610a4d919061381f565b60008085815260200190815260200160002060008c73ffffffffffffffffffffffffffffffffffffffff1673ffffffffffffffffffffffffffffffffffffffff168152602001908152602001600020819055508160008085815260200190815260200160002060008b73ffffffffffffffffffffffffffffffffffffffff1673ffffffffffffffffffffffffffffffffffffffff1681526020019081526020016000206000828254610aff91906137c9565b9250508190555050505080610b139061399b565b9050610917565b508473ffffffffffffffffffffffffffffffffffffffff168673ffffffffffffffffffffffffffffffffffffffff168273ffffffffffffffffffffffffffffffffffffffff167f4a39dc06d4c0dbc64b70af90fd698a233a518aa5d07e595d983b8c0526c8f7fb8787604051610b919291906132e1565b60405180910390a4610ba7818787878787611bf4565b505050505050565b610bc8610bbb83610799565b610bc3611a38565b610e4f565b610c07576040517f08c379a0000000000000000000000000000000000000000000000000000000008152600401610bfe906133f5565b60405180910390fd5b610c118282611ddb565b5050565b610c1d611a38565b73ffffffffffffffffffffffffffffffffffffffff168173ffffffffffffffffffffffffffffffffffffffff1614610c8a576040517f08c379a0000000000000000000000000000000000000000000000000000000008152600401610c8190613615565b60405180910390fd5b610c948282611ebc565b5050565b60608151835114610cde576040517f08c379a0000000000000000000000000000000000000000000000000000000008152600401610cd5906135b5565b60405180910390fd5b6000835167ffffffffffffffff811115610d21577f4e487b7100000000000000000000000000000000000000000000000000000000600052604160045260246000fd5b604051908082528060200260200182016040528015610d4f5781602001602082028036833780820191505090505b50905060005b8451811015610e3e57610de8858281518110610d9a577f4e487b7100000000000000000000000000000000000000000000000000000000600052603260045260246000fd5b6020026020010151858381518110610ddb577f4e487b7100000000000000000000000000000000000000000000000000000000600052603260045260246000fd5b60200260200101516104e2565b828281518110610e21577f4e487b7100000000000000000000000000000000000000000000000000000000600052603260045260246000fd5b60200260200101818152505080610e379061399b565b9050610d55565b508091505092915050565b60045481565b60006003600084815260200190815260200160002060000160008373ffffffffffffffffffffffffffffffffffffffff1673ffffffffffffffffffffffffffffffffffffffff16815260200190815260200160002060009054906101000a900460ff16905092915050565b60066020528060005260406000206000915090505481565b6000801b81565b8173ffffffffffffffffffffffffffffffffffffffff16610ef8611a38565b73ffffffffffffffffffffffffffffffffffffffff161415610f4f576040517f08c379a0000000000000000000000000000000000000000000000000000000008152600401610f4690613595565b60405180910390fd5b8060016000610f5c611a38565b73ffffffffffffffffffffffffffffffffffffffff1673ffffffffffffffffffffffffffffffffffffffff16815260200190815260200160002060008473ffffffffffffffffffffffffffffffffffffffff1673ffffffffffffffffffffffffffffffffffffffff16815260200190815260200160002060006101000a81548160ff0219169083151502179055508173ffffffffffffffffffffffffffffffffffffffff16611009611a38565b73ffffffffffffffffffffffffffffffffffffffff167f17307eab39ab6107e8899845ad3d59bd9653f200f220920489ca2b5937696c318360405161104e9190613318565b60405180910390a35050565b60076020528160005260406000206020528060005260406000206000915091505080600001805461108a90613938565b80601f01602080910402602001604051908101604052809291908181526020018280546110b690613938565b80156111035780601f106110d857610100808354040283529160200191611103565b820191906000526020600020905b8154815290600101906020018083116110e657829003601f168201915b50505050509080600101805461111890613938565b80601f016020809104026020016040519081016040528092919081815260200182805461114490613938565b80156111915780601f1061116657610100808354040283529160200191611191565b820191906000526020600020905b81548152906001019060200180831161117457829003601f168201915b5050505050908060020160009054906101000a900460ff16905083565b6111c06111b9611a38565b8383611f9e565b6007600083815260200190815260200160002060006111dd611a38565b73ffffffffffffffffffffffffffffffffffffffff1673ffffffffffffffffffffffffffffffffffffffff1681526020019081526020016000206000808201600061122891906125e6565b60018201600061123891906125e6565b6002820160006101000a81549060ff021916905550506112748160066000858152602001908152602001600020546121c490919063ffffffff16565b60066000848152602001908152602001600020819055505050565b60056020528060005260406000206000915090505481565b7f9f2df0fed2c77648de5860a4cc508cd0818c85b8b8a1ab4ceeef8d981c8956a681565b6112e46112d783610799565b6112df611a38565b610e4f565b611323576040517f08c379a000000000000000000000000000000000000000000000000000000000815260040161131a90613495565b60405180910390fd5b61132d8282611ebc565b5050565b606061133d60006105bd565b905090565b6000600160008473ffffffffffffffffffffffffffffffffffffffff1673ffffffffffffffffffffffffffffffffffffffff16815260200190815260200160002060008373ffffffffffffffffffffffffffffffffffffffff1673ffffffffffffffffffffffffffffffffffffffff16815260200190815260200160002060009054906101000a900460ff16905092915050565b60008111611419576040517f08c379a000000000000000000000000000000000000000000000000000000000815260040161141090613475565b60405180910390fd5b600060405180606001604052808781526020018681526020016000600381111561146c577f4e487b7100000000000000000000000000000000000000000000000000000000600052602160045260246000fd5b8152509050600061147c8461188e565b9050816007600083815260200190815260200160002060008773ffffffffffffffffffffffffffffffffffffffff1673ffffffffffffffffffffffffffffffffffffffff16815260200190815260200160002060008201518160000190805190602001906114eb929190612626565b506020820151816001019080519060200190611508929190612626565b5060408201518160020160006101000a81548160ff0219169083600381111561155a577f4e487b7100000000000000000000000000000000000000000000000000000000600052602160045260246000fd5b021790555090505061156d858285610651565b50505050505050565b600073ffffffffffffffffffffffffffffffffffffffff168473ffffffffffffffffffffffffffffffffffffffff1614156115e6576040517f08c379a00000000000000000000000000000000000000000000000000000000081526004016115dd906134d5565b60405180910390fd5b6115ee611a38565b73ffffffffffffffffffffffffffffffffffffffff168573ffffffffffffffffffffffffffffffffffffffff16148061163457506116338561162e611a38565b611342565b5b611673576040517f08c379a000000000000000000000000000000000000000000000000000000000815260040161166a90613455565b60405180910390fd5b600061167d611a38565b905061169d81878761168e886121da565b611697886121da565b87611bec565b600080600086815260200190815260200160002060008873ffffffffffffffffffffffffffffffffffffffff1673ffffffffffffffffffffffffffffffffffffffff16815260200190815260200160002054905083811015611734576040517f08c379a000000000000000000000000000000000000000000000000000000000815260040161172b90613575565b60405180910390fd5b8381611740919061381f565b60008087815260200190815260200160002060008973ffffffffffffffffffffffffffffffffffffffff1673ffffffffffffffffffffffffffffffffffffffff168152602001908152602001600020819055508360008087815260200190815260200160002060008873ffffffffffffffffffffffffffffffffffffffff1673ffffffffffffffffffffffffffffffffffffffff16815260200190815260200160002060008282546117f291906137c9565b925050819055508573ffffffffffffffffffffffffffffffffffffffff168773ffffffffffffffffffffffffffffffffffffffff168373ffffffffffffffffffffffffffffffffffffffff167fc3d58168c5ae7397731d063d5bbf3d657854427343f4c083240f7aacaa2d0f62888860405161186f929190613650565b60405180910390a46118858288888888886122a0565b50505050505050565b60006118c17f9f2df0fed2c77648de5860a4cc508cd0818c85b8b8a1ab4ceeef8d981c8956a66118bc611a38565b610e4f565b611900576040517f08c379a00000000000000000000000000000000000000000000000000000000081526004016118f790613515565b60405180910390fd5b60008211611943576040517f08c379a000000000000000000000000000000000000000000000000000000000815260040161193a90613555565b60405180910390fd5b6119596001600454611a4090919063ffffffff16565b60048190555081600560006004548152602001908152602001600020819055507f62399d91d89d6e694d41e47f3e6010c0e0b4ec78ecdddb1c02d0e321780859b0600454836040516119ac929190613650565b60405180910390a16004549050919050565b60007f7965db0b000000000000000000000000000000000000000000000000000000007bffffffffffffffffffffffffffffffffffffffffffffffffffffffff1916827bffffffffffffffffffffffffffffffffffffffffffffffffffffffff19161480611a315750611a3082612487565b5b9050919050565b600033905090565b60008183611a4e91906137c9565b905092915050565b600073ffffffffffffffffffffffffffffffffffffffff168473ffffffffffffffffffffffffffffffffffffffff161415611ac6576040517f08c379a0000000000000000000000000000000000000000000000000000000008152600401611abd906135f5565b60405180910390fd5b6000611ad0611a38565b9050611af181600087611ae2886121da565b611aeb886121da565b87611bec565b8260008086815260200190815260200160002060008773ffffffffffffffffffffffffffffffffffffffff1673ffffffffffffffffffffffffffffffffffffffff1681526020019081526020016000206000828254611b5091906137c9565b925050819055508473ffffffffffffffffffffffffffffffffffffffff16600073ffffffffffffffffffffffffffffffffffffffff168273ffffffffffffffffffffffffffffffffffffffff167fc3d58168c5ae7397731d063d5bbf3d657854427343f4c083240f7aacaa2d0f628787604051611bce929190613650565b60405180910390a4611be5816000878787876122a0565b5050505050565b505050505050565b611c138473ffffffffffffffffffffffffffffffffffffffff16612569565b15611dd3578373ffffffffffffffffffffffffffffffffffffffff1663bc197c8187878686866040518663ffffffff1660e01b8152600401611c599594939291906131fd565b602060405180830381600087803b158015611c7357600080fd5b505af1925050508015611ca457506040513d601f19601f82011682018060405250810190611ca19190612c8e565b60015b611d4a57611cb0613aa0565b806308c379a01415611d0d5750611cc5614074565b80611cd05750611d0f565b806040517f08c379a0000000000000000000000000000000000000000000000000000000008152600401611d04919061334e565b60405180910390fd5b505b6040517f08c379a0000000000000000000000000000000000000000000000000000000008152600401611d41906133b5565b60405180910390fd5b63bc197c8160e01b7bffffffffffffffffffffffffffffffffffffffffffffffffffffffff1916817bffffffffffffffffffffffffffffffffffffffffffffffffffffffff191614611dd1576040517f08c379a0000000000000000000000000000000000000000000000000000000008152600401611dc8906133d5565b60405180910390fd5b505b505050505050565b611de58282610e4f565b611eb85760016003600084815260200190815260200160002060000160008373ffffffffffffffffffffffffffffffffffffffff1673ffffffffffffffffffffffffffffffffffffffff16815260200190815260200160002060006101000a81548160ff021916908315150217905550611e5d611a38565b73ffffffffffffffffffffffffffffffffffffffff168173ffffffffffffffffffffffffffffffffffffffff16837f2f8788117e7eff1d82e926ec794901d17c78024a50270940304540a733656f0d60405160405180910390a45b5050565b611ec68282610e4f565b15611f9a5760006003600084815260200190815260200160002060000160008373ffffffffffffffffffffffffffffffffffffffff1673ffffffffffffffffffffffffffffffffffffffff16815260200190815260200160002060006101000a81548160ff021916908315150217905550611f3f611a38565b73ffffffffffffffffffffffffffffffffffffffff168173ffffffffffffffffffffffffffffffffffffffff16837ff6391f5c32d9c69d2a47ea670b442974b53935d1edc7fd64eb21e047a839171b60405160405180910390a45b5050565b600073ffffffffffffffffffffffffffffffffffffffff168373ffffffffffffffffffffffffffffffffffffffff16141561200e576040517f08c379a000000000000000000000000000000000000000000000000000000000815260040161200590613535565b60405180910390fd5b6000612018611a38565b90506120488185600061202a876121da565b612033876121da565b60405180602001604052806000815250611bec565b600080600085815260200190815260200160002060008673ffffffffffffffffffffffffffffffffffffffff1673ffffffffffffffffffffffffffffffffffffffff168152602001908152602001600020549050828110156120df576040517f08c379a00000000000000000000000000000000000000000000000000000000081526004016120d690613435565b60405180910390fd5b82816120eb919061381f565b60008086815260200190815260200160002060008773ffffffffffffffffffffffffffffffffffffffff1673ffffffffffffffffffffffffffffffffffffffff16815260200190815260200160002081905550600073ffffffffffffffffffffffffffffffffffffffff168573ffffffffffffffffffffffffffffffffffffffff168373ffffffffffffffffffffffffffffffffffffffff167fc3d58168c5ae7397731d063d5bbf3d657854427343f4c083240f7aacaa2d0f6287876040516121b5929190613650565b60405180910390a45050505050565b600081836121d2919061381f565b905092915050565b60606000600167ffffffffffffffff81111561221f577f4e487b7100000000000000000000000000000000000000000000000000000000600052604160045260246000fd5b60405190808252806020026020018201604052801561224d5781602001602082028036833780820191505090505b509050828160008151811061228b577f4e487b7100000000000000000000000000000000000000000000000000000000600052603260045260246000fd5b60200260200101818152505080915050919050565b6122bf8473ffffffffffffffffffffffffffffffffffffffff16612569565b1561247f578373ffffffffffffffffffffffffffffffffffffffff1663f23a6e6187878686866040518663ffffffff1660e01b8152600401612305959493929190613265565b602060405180830381600087803b15801561231f57600080fd5b505af192505050801561235057506040513d601f19601f8201168201806040525081019061234d9190612c8e565b60015b6123f65761235c613aa0565b806308c379a014156123b95750612371614074565b8061237c57506123bb565b806040517f08c379a00000000000000000000000000000000000000000000000000000000081526004016123b0919061334e565b60405180910390fd5b505b6040517f08c379a00000000000000000000000000000000000000000000000000000000081526004016123ed906133b5565b60405180910390fd5b63f23a6e6160e01b7bffffffffffffffffffffffffffffffffffffffffffffffffffffffff1916817bffffffffffffffffffffffffffffffffffffffffffffffffffffffff19161461247d576040517f08c379a0000000000000000000000000000000000000000000000000000000008152600401612474906133d5565b60405180910390fd5b505b505050505050565b60007fd9b67a26000000000000000000000000000000000000000000000000000000007bffffffffffffffffffffffffffffffffffffffffffffffffffffffff1916827bffffffffffffffffffffffffffffffffffffffffffffffffffffffff1916148061255257507f0e89341c000000000000000000000000000000000000000000000000000000007bffffffffffffffffffffffffffffffffffffffffffffffffffffffff1916827bffffffffffffffffffffffffffffffffffffffffffffffffffffffff1916145b8061256257506125618261257c565b5b9050919050565b600080823b905060008111915050919050565b60007f01ffc9a7000000000000000000000000000000000000000000000000000000007bffffffffffffffffffffffffffffffffffffffffffffffffffffffff1916827bffffffffffffffffffffffffffffffffffffffffffffffffffffffff1916149050919050565b5080546125f290613938565b6000825580601f106126045750612623565b601f01602090049060005260206000209081019061262291906126ac565b5b50565b82805461263290613938565b90600052602060002090601f016020900481019282612654576000855561269b565b82601f1061266d57805160ff191683800117855561269b565b8280016001018555821561269b579182015b8281111561269a57825182559160200191906001019061267f565b5b5090506126a891906126ac565b5090565b5b808211156126c55760008160009055506001016126ad565b5090565b60006126dc6126d78461369e565b613679565b905080838252602082019050828560208602820111156126fb57600080fd5b60005b8581101561272b5781612711888261281d565b8452602084019350602083019250506001810190506126fe565b5050509392505050565b6000612748612743846136ca565b613679565b9050808382526020820190508285602086028201111561276757600080fd5b60005b85811015612797578161277d888261292e565b84526020840193506020830192505060018101905061276a565b5050509392505050565b60006127b46127af846136f6565b613679565b9050828152602081018484840111156127cc57600080fd5b6127d78482856138f6565b509392505050565b60006127f26127ed84613727565b613679565b90508281526020810184848401111561280a57600080fd5b6128158482856138f6565b509392505050565b60008135905061282c8161411e565b92915050565b600082601f83011261284357600080fd5b81356128538482602086016126c9565b91505092915050565b600082601f83011261286d57600080fd5b813561287d848260208601612735565b91505092915050565b60008135905061289581614135565b92915050565b6000813590506128aa8161414c565b92915050565b6000813590506128bf81614163565b92915050565b6000815190506128d481614163565b92915050565b600082601f8301126128eb57600080fd5b81356128fb8482602086016127a1565b91505092915050565b600082601f83011261291557600080fd5b81356129258482602086016127df565b91505092915050565b60008135905061293d8161417a565b92915050565b6000806040838503121561295657600080fd5b60006129648582860161281d565b92505060206129758582860161281d565b9150509250929050565b600080600080600060a0868803121561299757600080fd5b60006129a58882890161281d565b95505060206129b68882890161281d565b945050604086013567ffffffffffffffff8111156129d357600080fd5b6129df8882890161285c565b935050606086013567ffffffffffffffff8111156129fc57600080fd5b612a088882890161285c565b925050608086013567ffffffffffffffff811115612a2557600080fd5b612a31888289016128da565b9150509295509295909350565b600080600080600060a08688031215612a5657600080fd5b6000612a648882890161281d565b9550506020612a758882890161281d565b9450506040612a868882890161292e565b9350506060612a978882890161292e565b925050608086013567ffffffffffffffff811115612ab457600080fd5b612ac0888289016128da565b9150509295509295909350565b60008060408385031215612ae057600080fd5b6000612aee8582860161281d565b9250506020612aff85828601612886565b9150509250929050565b60008060408385031215612b1c57600080fd5b6000612b2a8582860161281d565b9250506020612b3b8582860161292e565b9150509250929050565b600080600060608486031215612b5a57600080fd5b6000612b688682870161281d565b9350506020612b798682870161292e565b9250506040612b8a8682870161292e565b9150509250925092565b60008060408385031215612ba757600080fd5b600083013567ffffffffffffffff811115612bc157600080fd5b612bcd85828601612832565b925050602083013567ffffffffffffffff811115612bea57600080fd5b612bf68582860161285c565b9150509250929050565b600060208284031215612c1257600080fd5b6000612c208482850161289b565b91505092915050565b60008060408385031215612c3c57600080fd5b6000612c4a8582860161289b565b9250506020612c5b8582860161281d565b9150509250929050565b600060208284031215612c7757600080fd5b6000612c85848285016128b0565b91505092915050565b600060208284031215612ca057600080fd5b6000612cae848285016128c5565b91505092915050565b600080600080600060a08688031215612ccf57600080fd5b600086013567ffffffffffffffff811115612ce957600080fd5b612cf588828901612904565b955050602086013567ffffffffffffffff811115612d1257600080fd5b612d1e88828901612904565b9450506040612d2f8882890161281d565b9350506060612d408882890161292e565b9250506080612d518882890161292e565b9150509295509295909350565b600060208284031215612d7057600080fd5b6000612d7e8482850161292e565b91505092915050565b60008060408385031215612d9a57600080fd5b6000612da88582860161292e565b9250506020612db98582860161281d565b9150509250929050565b60008060408385031215612dd657600080fd5b6000612de48582860161292e565b9250506020612df58582860161292e565b9150509250929050565b6000612e0b83836131df565b60208301905092915050565b612e2081613853565b82525050565b6000612e3182613768565b612e3b8185613796565b9350612e4683613758565b8060005b83811015612e77578151612e5e8882612dff565b9750612e6983613789565b925050600181019050612e4a565b5085935050505092915050565b612e8d81613865565b82525050565b612e9c81613871565b82525050565b6000612ead82613773565b612eb781856137a7565b9350612ec7818560208601613905565b612ed081613ac2565b840191505092915050565b612ee4816138e4565b82525050565b6000612ef58261377e565b612eff81856137b8565b9350612f0f818560208601613905565b612f1881613ac2565b840191505092915050565b6000612f306034836137b8565b9150612f3b82613ae0565b604082019050919050565b6000612f536028836137b8565b9150612f5e82613b2f565b604082019050919050565b6000612f76602f836137b8565b9150612f8182613b7e565b604082019050919050565b6000612f99602b836137b8565b9150612fa482613bcd565b604082019050919050565b6000612fbc6024836137b8565b9150612fc782613c1c565b604082019050919050565b6000612fdf6029836137b8565b9150612fea82613c6b565b604082019050919050565b6000613002601a836137b8565b915061300d82613cba565b602082019050919050565b60006130256030836137b8565b915061303082613ce3565b604082019050919050565b60006130486015836137b8565b915061305382613d32565b602082019050919050565b600061306b6025836137b8565b915061307682613d5b565b604082019050919050565b600061308e6032836137b8565b915061309982613daa565b604082019050919050565b60006130b16016836137b8565b91506130bc82613df9565b602082019050919050565b60006130d46023836137b8565b91506130df82613e22565b604082019050919050565b60006130f7601b836137b8565b915061310282613e71565b602082019050919050565b600061311a602a836137b8565b915061312582613e9a565b604082019050919050565b600061313d6029836137b8565b915061314882613ee9565b604082019050919050565b60006131606029836137b8565b915061316b82613f38565b604082019050919050565b60006131836028836137b8565b915061318e82613f87565b604082019050919050565b60006131a66021836137b8565b91506131b182613fd6565b604082019050919050565b60006131c9602f836137b8565b91506131d482614025565b604082019050919050565b6131e8816138da565b82525050565b6131f7816138da565b82525050565b600060a0820190506132126000830188612e17565b61321f6020830187612e17565b81810360408301526132318186612e26565b905081810360608301526132458185612e26565b905081810360808301526132598184612ea2565b90509695505050505050565b600060a08201905061327a6000830188612e17565b6132876020830187612e17565b61329460408301866131ee565b6132a160608301856131ee565b81810360808301526132b38184612ea2565b90509695505050505050565b600060208201905081810360008301526132d98184612e26565b905092915050565b600060408201905081810360008301526132fb8185612e26565b9050818103602083015261330f8184612e26565b90509392505050565b600060208201905061332d6000830184612e84565b92915050565b60006020820190506133486000830184612e93565b92915050565b600060208201905081810360008301526133688184612eea565b905092915050565b6000606082019050818103600083015261338a8186612eea565b9050818103602083015261339e8185612eea565b90506133ad6040830184612edb565b949350505050565b600060208201905081810360008301526133ce81612f23565b9050919050565b600060208201905081810360008301526133ee81612f46565b9050919050565b6000602082019050818103600083015261340e81612f69565b9050919050565b6000602082019050818103600083015261342e81612f8c565b9050919050565b6000602082019050818103600083015261344e81612faf565b9050919050565b6000602082019050818103600083015261346e81612fd2565b9050919050565b6000602082019050818103600083015261348e81612ff5565b9050919050565b600060208201905081810360008301526134ae81613018565b9050919050565b600060208201905081810360008301526134ce8161303b565b9050919050565b600060208201905081810360008301526134ee8161305e565b9050919050565b6000602082019050818103600083015261350e81613081565b9050919050565b6000602082019050818103600083015261352e816130a4565b9050919050565b6000602082019050818103600083015261354e816130c7565b9050919050565b6000602082019050818103600083015261356e816130ea565b9050919050565b6000602082019050818103600083015261358e8161310d565b9050919050565b600060208201905081810360008301526135ae81613130565b9050919050565b600060208201905081810360008301526135ce81613153565b9050919050565b600060208201905081810360008301526135ee81613176565b9050919050565b6000602082019050818103600083015261360e81613199565b9050919050565b6000602082019050818103600083015261362e816131bc565b9050919050565b600060208201905061364a60008301846131ee565b92915050565b600060408201905061366560008301856131ee565b61367260208301846131ee565b9392505050565b6000613683613694565b905061368f828261396a565b919050565b6000604051905090565b600067ffffffffffffffff8211156136b9576136b8613a71565b5b602082029050602081019050919050565b600067ffffffffffffffff8211156136e5576136e4613a71565b5b602082029050602081019050919050565b600067ffffffffffffffff82111561371157613710613a71565b5b61371a82613ac2565b9050602081019050919050565b600067ffffffffffffffff82111561374257613741613a71565b5b61374b82613ac2565b9050602081019050919050565b6000819050602082019050919050565b600081519050919050565b600081519050919050565b600081519050919050565b6000602082019050919050565b600082825260208201905092915050565b600082825260208201905092915050565b600082825260208201905092915050565b60006137d4826138da565b91506137df836138da565b9250827fffffffffffffffffffffffffffffffffffffffffffffffffffffffffffffffff03821115613814576138136139e4565b5b828201905092915050565b600061382a826138da565b9150613835836138da565b925082821015613848576138476139e4565b5b828203905092915050565b600061385e826138ba565b9050919050565b60008115159050919050565b6000819050919050565b60007fffffffff0000000000000000000000000000000000000000000000000000000082169050919050565b60008190506138b58261410a565b919050565b600073ffffffffffffffffffffffffffffffffffffffff82169050919050565b6000819050919050565b60006138ef826138a7565b9050919050565b82818337600083830152505050565b60005b83811015613923578082015181840152602081019050613908565b83811115613932576000848401525b50505050565b6000600282049050600182168061395057607f821691505b6020821081141561396457613963613a42565b5b50919050565b61397382613ac2565b810181811067ffffffffffffffff8211171561399257613991613a71565b5b80604052505050565b60006139a6826138da565b91507fffffffffffffffffffffffffffffffffffffffffffffffffffffffffffffffff8214156139d9576139d86139e4565b5b600182019050919050565b7f4e487b7100000000000000000000000000000000000000000000000000000000600052601160045260246000fd5b7f4e487b7100000000000000000000000000000000000000000000000000000000600052602160045260246000fd5b7f4e487b7100000000000000000000000000000000000000000000000000000000600052602260045260246000fd5b7f4e487b7100000000000000000000000000000000000000000000000000000000600052604160045260246000fd5b600060033d1115613abf5760046000803e613abc600051613ad3565b90505b90565b6000601f19601f8301169050919050565b60008160e01c9050919050565b7f455243313135353a207472616e7366657220746f206e6f6e204552433131353560008201527f526563656976657220696d706c656d656e746572000000000000000000000000602082015250565b7f455243313135353a204552433131353552656365697665722072656a6563746560008201527f6420746f6b656e73000000000000000000000000000000000000000000000000602082015250565b7f416363657373436f6e74726f6c3a2073656e646572206d75737420626520616e60008201527f2061646d696e20746f206772616e740000000000000000000000000000000000602082015250565b7f455243313135353a2062616c616e636520717565727920666f7220746865207a60008201527f65726f2061646472657373000000000000000000000000000000000000000000602082015250565b7f455243313135353a206275726e20616d6f756e7420657863656564732062616c60008201527f616e636500000000000000000000000000000000000000000000000000000000602082015250565b7f455243313135353a2063616c6c6572206973206e6f74206f776e6572206e6f7260008201527f20617070726f7665640000000000000000000000000000000000000000000000602082015250565b7f496e697469616c20737570706c79206c657373207468616e2031000000000000600082015250565b7f416363657373436f6e74726f6c3a2073656e646572206d75737420626520616e60008201527f2061646d696e20746f207265766f6b6500000000000000000000000000000000602082015250565b7f546f74616c20737570706c7920726561636865642e0000000000000000000000600082015250565b7f455243313135353a207472616e7366657220746f20746865207a65726f20616460008201527f6472657373000000000000000000000000000000000000000000000000000000602082015250565b7f455243313135353a207472616e736665722063616c6c6572206973206e6f742060008201527f6f776e6572206e6f7220617070726f7665640000000000000000000000000000602082015250565b7f43616c6c6572206973206e6f742061206d696e74657200000000000000000000600082015250565b7f455243313135353a206275726e2066726f6d20746865207a65726f206164647260008201527f6573730000000000000000000000000000000000000000000000000000000000602082015250565b7f4d6178696d756d20737570706c792063616e206e6f7420626520300000000000600082015250565b7f455243313135353a20696e73756666696369656e742062616c616e636520666f60008201527f72207472616e7366657200000000000000000000000000000000000000000000602082015250565b7f455243313135353a2073657474696e6720617070726f76616c2073746174757360008201527f20666f722073656c660000000000000000000000000000000000000000000000602082015250565b7f455243313135353a206163636f756e747320616e6420696473206c656e67746860008201527f206d69736d617463680000000000000000000000000000000000000000000000602082015250565b7f455243313135353a2069647320616e6420616d6f756e7473206c656e6774682060008201527f6d69736d61746368000000000000000000000000000000000000000000000000602082015250565b7f455243313135353a206d696e7420746f20746865207a65726f2061646472657360008201527f7300000000000000000000000000000000000000000000000000000000000000602082015250565b7f416363657373436f6e74726f6c3a2063616e206f6e6c792072656e6f756e636560008201527f20726f6c657320666f722073656c660000000000000000000000000000000000602082015250565b600060443d101561408457614107565b61408c613694565b60043d036004823e80513d602482011167ffffffffffffffff821117156140b4575050614107565b808201805167ffffffffffffffff8111156140d25750505050614107565b80602083010160043d0385018111156140ef575050505050614107565b6140fe8260200185018661396a565b82955050505050505b90565b6004811061411b5761411a613a13565b5b50565b61412781613853565b811461413257600080fd5b50565b61413e81613865565b811461414957600080fd5b50565b61415581613871565b811461416057600080fd5b50565b61416c8161387b565b811461417757600080fd5b50565b614183816138da565b811461418e57600080fd5b5056fea26469706673582212206cccf65710e233393b9399acc8afad31a5df50527277fe9f52a5242e6098c10364736f6c6343000803003368747470733a2f2f7777772e74726f747465722e66696e616e63652f6170692f4e4654732f",
  "immutableReferences": {},
  "source": "// SPDX-License-Identifier: MIT\npragma solidity >=0.6.12;\n\nimport \"@openzeppelin/contracts/token/ERC1155/ERC1155.sol\";\nimport \"@openzeppelin/contracts/access/AccessControl.sol\";\nimport \"@openzeppelin/contracts/utils/math/SafeMath.sol\";\n\ncontract TrotterNft is ERC1155, AccessControl {\n    using SafeMath for uint256;\n\n    constructor() ERC1155(\"https://www.trotter.finance/api/NFTs/\") {\n        _setupRole(DEFAULT_ADMIN_ROLE, _msgSender());\n    }\n\n    bytes32 public constant MINTER_ROLE = keccak256(\"MINTER_ROLE\");\n\n    enum statusEnum {Default, Stolen, Lost, Recovered}\n    struct nftMetadata {\n        string name;\n        string ipfsHash;\n        statusEnum status;\n    }\n\n    uint256 public cards;\n    mapping(uint256 => uint256) public totalSupply;\n    mapping(uint256 => uint256) public circulatingSupply;\n    mapping(uint256 => mapping(address => nftMetadata)) public nfts;\n\n    event CardAdded(uint256 id, uint256 maxSupply);\n\n    /**\n     * @dev Get contract URL\n     */\n    function contractURI() public view returns (string memory) {\n        return string(uri(0));\n    }\n\n    /**\n     * @notice Creates nft card and mints a new NFT for first time.\n     *\n     * @param name Name of new NFT.\n     * @param ipfsHash ipfs hash of nft image the new minted NFT.\n     * @param newOwner Address to mint NFT to.\n     * @param maxSupply The max supply of NFT mintable.\n     * @param initialSupply The amount of NFT to mint initially.\n     */\n    function createNftCard(string memory name, string memory ipfsHash, address newOwner, uint256 maxSupply, uint256 initialSupply) public {\n        require(initialSupply > 0, \"Initial supply less than 1\");\n\n        nftMetadata memory trotterNft = nftMetadata({\n            name: name,\n            ipfsHash: ipfsHash,\n            status: statusEnum.Default\n        });\n\n        uint256 nftId = addCard(maxSupply);\n        nfts[nftId][newOwner] = trotterNft;\n        mint(newOwner, nftId, initialSupply);\n    }\n\n    /**\n     * @notice Creates a new card for unique `NFT`.\n     *\n     * This signifies each unique NFT,\n     *\n     * Each NFT can appear more than once, this is where to declare it before minting a copy.\n     *\n     * The less amount an NFT can be minted determines the value,\n     * Low amount of an NFT in circulation makes it rare and more expensive.\n     *\n     * @param maxSupply The max supply of the NFTs on this card.\n     */\n    function addCard(uint256 maxSupply) public returns (uint256) {\n        require(hasRole(MINTER_ROLE, _msgSender()), \"Caller is not a minter\");\n        require(maxSupply > 0, \"Maximum supply can not be 0\");\n        cards = cards.add(1);\n        totalSupply[cards] = maxSupply;\n        emit CardAdded(cards, maxSupply);\n        return cards;\n    }\n\n    /**\n     * @notice Mints a new NFT to an NFT card.\n     *\n     * @param to Address to receive the new minted NFT.\n     * @param id The card id to mint NFT from.\n     * @param amount The amount of NFT to mint on this card.\n     */\n    function mint(\n        address to,\n        uint256 id,\n        uint256 amount\n    ) public {\n        require(hasRole(MINTER_ROLE, _msgSender()), \"Caller is not a minter\");\n        require(\n            circulatingSupply[id].add(amount) <= totalSupply[id],\n            \"Total supply reached.\"\n        );\n        circulatingSupply[id] = circulatingSupply[id].add(amount);\n        _mint(to, id, amount, \"\");\n    }\n\n    /**\n     * @notice Burn an NFT from NFT card.\n     *\n     * @param id The card id to burn NFT from.\n     * @param amount The amount of NFT to burn from this card.\n     */\n    function burn(uint256 id, uint256 amount) public {\n        _burn(_msgSender(), id, amount);\n\n        delete nfts[id][_msgSender()];\n        circulatingSupply[id] = circulatingSupply[id].sub(amount);\n    }\n\n    /**\n     * @dev ERC1155 and AccessControl include supportsInterface so we need to override both\n     */\n    function supportsInterface(bytes4 interfaceId)\n        public\n        view\n        virtual\n        override(ERC1155, AccessControl)\n        returns (bool)\n    {\n        return super.supportsInterface(interfaceId);\n    }\n}\n",
  "sourcePath": "/Users/Chris/Coding/Blockchain/trotter-market/contracts/TrotterNft.sol",
  "compiler": {
    "name": "solc",
    "version": "0.8.3+commit.8d00100c.Emscripten.clang"
  },
  "schemaVersion": "3.3.4",
  "updatedAt": "2021-03-31T11:55:56.146Z",
  "devdoc": {
    "kind": "dev",
    "methods": {
      "addCard(uint256)": {
        "params": {
          "maxSupply": "The max supply of the NFTs on this card."
        }
      },
      "balanceOf(address,uint256)": {
        "details": "See {IERC1155-balanceOf}. Requirements: - `account` cannot be the zero address."
      },
      "balanceOfBatch(address[],uint256[])": {
        "details": "See {IERC1155-balanceOfBatch}. Requirements: - `accounts` and `ids` must have the same length."
      },
      "burn(uint256,uint256)": {
        "params": {
          "amount": "The amount of NFT to burn from this card.",
          "id": "The card id to burn NFT from."
        }
      },
      "contractURI()": {
        "details": "Get contract URL"
      },
      "createNftCard(string,string,address,uint256,uint256)": {
        "params": {
          "initialSupply": "The amount of NFT to mint initially.",
          "ipfsHash": "ipfs hash of nft image the new minted NFT.",
          "maxSupply": "The max supply of NFT mintable.",
          "name": "Name of new NFT.",
          "newOwner": "Address to mint NFT to."
        }
      },
      "getRoleAdmin(bytes32)": {
        "details": "Returns the admin role that controls `role`. See {grantRole} and {revokeRole}. To change a role's admin, use {_setRoleAdmin}."
      },
      "grantRole(bytes32,address)": {
        "details": "Grants `role` to `account`. If `account` had not been already granted `role`, emits a {RoleGranted} event. Requirements: - the caller must have ``role``'s admin role."
      },
      "hasRole(bytes32,address)": {
        "details": "Returns `true` if `account` has been granted `role`."
      },
      "isApprovedForAll(address,address)": {
        "details": "See {IERC1155-isApprovedForAll}."
      },
      "mint(address,uint256,uint256)": {
        "params": {
          "amount": "The amount of NFT to mint on this card.",
          "id": "The card id to mint NFT from.",
          "to": "Address to receive the new minted NFT."
        }
      },
      "renounceRole(bytes32,address)": {
        "details": "Revokes `role` from the calling account. Roles are often managed via {grantRole} and {revokeRole}: this function's purpose is to provide a mechanism for accounts to lose their privileges if they are compromised (such as when a trusted device is misplaced). If the calling account had been granted `role`, emits a {RoleRevoked} event. Requirements: - the caller must be `account`."
      },
      "revokeRole(bytes32,address)": {
        "details": "Revokes `role` from `account`. If `account` had been granted `role`, emits a {RoleRevoked} event. Requirements: - the caller must have ``role``'s admin role."
      },
      "safeBatchTransferFrom(address,address,uint256[],uint256[],bytes)": {
        "details": "See {IERC1155-safeBatchTransferFrom}."
      },
      "safeTransferFrom(address,address,uint256,uint256,bytes)": {
        "details": "See {IERC1155-safeTransferFrom}."
      },
      "setApprovalForAll(address,bool)": {
        "details": "See {IERC1155-setApprovalForAll}."
      },
      "supportsInterface(bytes4)": {
        "details": "ERC1155 and AccessControl include supportsInterface so we need to override both"
      },
      "uri(uint256)": {
        "details": "See {IERC1155MetadataURI-uri}. This implementation returns the same URI for *all* token types. It relies on the token type ID substitution mechanism https://eips.ethereum.org/EIPS/eip-1155#metadata[defined in the EIP]. Clients calling this function must replace the `\\{id\\}` substring with the actual token type ID."
      }
    },
    "version": 1
  },
  "userdoc": {
    "kind": "user",
    "methods": {
      "addCard(uint256)": {
        "notice": "Creates a new card for unique `NFT`. This signifies each unique NFT, Each NFT can appear more than once, this is where to declare it before minting a copy. The less amount an NFT can be minted determines the value, Low amount of an NFT in circulation makes it rare and more expensive."
      },
      "burn(uint256,uint256)": {
        "notice": "Burn an NFT from NFT card."
      },
      "createNftCard(string,string,address,uint256,uint256)": {
        "notice": "Creates nft card and mints a new NFT for first time."
      },
      "mint(address,uint256,uint256)": {
        "notice": "Mints a new NFT to an NFT card."
      }
    },
    "version": 1
  }
}