{
  "contractName": "TrotterNft",
  "abi": [
    {
      "inputs": [],
      "stateMutability": "nonpayable",
      "type": "constructor"
    },
    {
      "anonymous": false,
      "inputs": [
        {
          "indexed": true,
          "internalType": "address",
          "name": "account",
          "type": "address"
        },
        {
          "indexed": true,
          "internalType": "address",
          "name": "operator",
          "type": "address"
        },
        {
          "indexed": false,
          "internalType": "bool",
          "name": "approved",
          "type": "bool"
        }
      ],
      "name": "ApprovalForAll",
      "type": "event"
    },
    {
      "anonymous": false,
      "inputs": [
        {
          "indexed": false,
          "internalType": "uint256",
          "name": "id",
          "type": "uint256"
        },
        {
          "indexed": false,
          "internalType": "uint256",
          "name": "maxSupply",
          "type": "uint256"
        }
      ],
      "name": "CardAdded",
      "type": "event"
    },
    {
      "anonymous": false,
      "inputs": [
        {
          "indexed": true,
          "internalType": "bytes32",
          "name": "role",
          "type": "bytes32"
        },
        {
          "indexed": true,
          "internalType": "bytes32",
          "name": "previousAdminRole",
          "type": "bytes32"
        },
        {
          "indexed": true,
          "internalType": "bytes32",
          "name": "newAdminRole",
          "type": "bytes32"
        }
      ],
      "name": "RoleAdminChanged",
      "type": "event"
    },
    {
      "anonymous": false,
      "inputs": [
        {
          "indexed": true,
          "internalType": "bytes32",
          "name": "role",
          "type": "bytes32"
        },
        {
          "indexed": true,
          "internalType": "address",
          "name": "account",
          "type": "address"
        },
        {
          "indexed": true,
          "internalType": "address",
          "name": "sender",
          "type": "address"
        }
      ],
      "name": "RoleGranted",
      "type": "event"
    },
    {
      "anonymous": false,
      "inputs": [
        {
          "indexed": true,
          "internalType": "bytes32",
          "name": "role",
          "type": "bytes32"
        },
        {
          "indexed": true,
          "internalType": "address",
          "name": "account",
          "type": "address"
        },
        {
          "indexed": true,
          "internalType": "address",
          "name": "sender",
          "type": "address"
        }
      ],
      "name": "RoleRevoked",
      "type": "event"
    },
    {
      "anonymous": false,
      "inputs": [
        {
          "indexed": true,
          "internalType": "address",
          "name": "operator",
          "type": "address"
        },
        {
          "indexed": true,
          "internalType": "address",
          "name": "from",
          "type": "address"
        },
        {
          "indexed": true,
          "internalType": "address",
          "name": "to",
          "type": "address"
        },
        {
          "indexed": false,
          "internalType": "uint256[]",
          "name": "ids",
          "type": "uint256[]"
        },
        {
          "indexed": false,
          "internalType": "uint256[]",
          "name": "values",
          "type": "uint256[]"
        }
      ],
      "name": "TransferBatch",
      "type": "event"
    },
    {
      "anonymous": false,
      "inputs": [
        {
          "indexed": true,
          "internalType": "address",
          "name": "operator",
          "type": "address"
        },
        {
          "indexed": true,
          "internalType": "address",
          "name": "from",
          "type": "address"
        },
        {
          "indexed": true,
          "internalType": "address",
          "name": "to",
          "type": "address"
        },
        {
          "indexed": false,
          "internalType": "uint256",
          "name": "id",
          "type": "uint256"
        },
        {
          "indexed": false,
          "internalType": "uint256",
          "name": "value",
          "type": "uint256"
        }
      ],
      "name": "TransferSingle",
      "type": "event"
    },
    {
      "anonymous": false,
      "inputs": [
        {
          "indexed": false,
          "internalType": "string",
          "name": "value",
          "type": "string"
        },
        {
          "indexed": true,
          "internalType": "uint256",
          "name": "id",
          "type": "uint256"
        }
      ],
      "name": "URI",
      "type": "event"
    },
    {
      "inputs": [],
      "name": "DEFAULT_ADMIN_ROLE",
      "outputs": [
        {
          "internalType": "bytes32",
          "name": "",
          "type": "bytes32"
        }
      ],
      "stateMutability": "view",
      "type": "function",
      "constant": true
    },
    {
      "inputs": [],
      "name": "MINTER_ROLE",
      "outputs": [
        {
          "internalType": "bytes32",
          "name": "",
          "type": "bytes32"
        }
      ],
      "stateMutability": "view",
      "type": "function",
      "constant": true
    },
    {
      "inputs": [
        {
          "internalType": "address",
          "name": "account",
          "type": "address"
        },
        {
          "internalType": "uint256",
          "name": "id",
          "type": "uint256"
        }
      ],
      "name": "balanceOf",
      "outputs": [
        {
          "internalType": "uint256",
          "name": "",
          "type": "uint256"
        }
      ],
      "stateMutability": "view",
      "type": "function",
      "constant": true
    },
    {
      "inputs": [
        {
          "internalType": "address[]",
          "name": "accounts",
          "type": "address[]"
        },
        {
          "internalType": "uint256[]",
          "name": "ids",
          "type": "uint256[]"
        }
      ],
      "name": "balanceOfBatch",
      "outputs": [
        {
          "internalType": "uint256[]",
          "name": "",
          "type": "uint256[]"
        }
      ],
      "stateMutability": "view",
      "type": "function",
      "constant": true
    },
    {
      "inputs": [],
      "name": "cards",
      "outputs": [
        {
          "internalType": "uint256",
          "name": "",
          "type": "uint256"
        }
      ],
      "stateMutability": "view",
      "type": "function",
      "constant": true
    },
    {
      "inputs": [
        {
          "internalType": "uint256",
          "name": "",
          "type": "uint256"
        }
      ],
      "name": "circulatingSupply",
      "outputs": [
        {
          "internalType": "uint256",
          "name": "",
          "type": "uint256"
        }
      ],
      "stateMutability": "view",
      "type": "function",
      "constant": true
    },
    {
      "inputs": [
        {
          "internalType": "bytes32",
          "name": "role",
          "type": "bytes32"
        }
      ],
      "name": "getRoleAdmin",
      "outputs": [
        {
          "internalType": "bytes32",
          "name": "",
          "type": "bytes32"
        }
      ],
      "stateMutability": "view",
      "type": "function",
      "constant": true
    },
    {
      "inputs": [
        {
          "internalType": "bytes32",
          "name": "role",
          "type": "bytes32"
        },
        {
          "internalType": "address",
          "name": "account",
          "type": "address"
        }
      ],
      "name": "grantRole",
      "outputs": [],
      "stateMutability": "nonpayable",
      "type": "function"
    },
    {
      "inputs": [
        {
          "internalType": "bytes32",
          "name": "role",
          "type": "bytes32"
        },
        {
          "internalType": "address",
          "name": "account",
          "type": "address"
        }
      ],
      "name": "hasRole",
      "outputs": [
        {
          "internalType": "bool",
          "name": "",
          "type": "bool"
        }
      ],
      "stateMutability": "view",
      "type": "function",
      "constant": true
    },
    {
      "inputs": [
        {
          "internalType": "address",
          "name": "account",
          "type": "address"
        },
        {
          "internalType": "address",
          "name": "operator",
          "type": "address"
        }
      ],
      "name": "isApprovedForAll",
      "outputs": [
        {
          "internalType": "bool",
          "name": "",
          "type": "bool"
        }
      ],
      "stateMutability": "view",
      "type": "function",
      "constant": true
    },
    {
      "inputs": [
        {
          "internalType": "uint256",
          "name": "",
          "type": "uint256"
        }
      ],
      "name": "nfts",
      "outputs": [
        {
          "internalType": "string",
          "name": "name",
          "type": "string"
        },
        {
          "internalType": "string",
          "name": "ipfsHash",
          "type": "string"
        },
        {
          "internalType": "uint256",
          "name": "price",
          "type": "uint256"
        }
      ],
      "stateMutability": "view",
      "type": "function",
      "constant": true
    },
    {
      "inputs": [
        {
          "internalType": "bytes32",
          "name": "role",
          "type": "bytes32"
        },
        {
          "internalType": "address",
          "name": "account",
          "type": "address"
        }
      ],
      "name": "renounceRole",
      "outputs": [],
      "stateMutability": "nonpayable",
      "type": "function"
    },
    {
      "inputs": [
        {
          "internalType": "bytes32",
          "name": "role",
          "type": "bytes32"
        },
        {
          "internalType": "address",
          "name": "account",
          "type": "address"
        }
      ],
      "name": "revokeRole",
      "outputs": [],
      "stateMutability": "nonpayable",
      "type": "function"
    },
    {
      "inputs": [
        {
          "internalType": "address",
          "name": "from",
          "type": "address"
        },
        {
          "internalType": "address",
          "name": "to",
          "type": "address"
        },
        {
          "internalType": "uint256[]",
          "name": "ids",
          "type": "uint256[]"
        },
        {
          "internalType": "uint256[]",
          "name": "amounts",
          "type": "uint256[]"
        },
        {
          "internalType": "bytes",
          "name": "data",
          "type": "bytes"
        }
      ],
      "name": "safeBatchTransferFrom",
      "outputs": [],
      "stateMutability": "nonpayable",
      "type": "function"
    },
    {
      "inputs": [
        {
          "internalType": "address",
          "name": "from",
          "type": "address"
        },
        {
          "internalType": "address",
          "name": "to",
          "type": "address"
        },
        {
          "internalType": "uint256",
          "name": "id",
          "type": "uint256"
        },
        {
          "internalType": "uint256",
          "name": "amount",
          "type": "uint256"
        },
        {
          "internalType": "bytes",
          "name": "data",
          "type": "bytes"
        }
      ],
      "name": "safeTransferFrom",
      "outputs": [],
      "stateMutability": "nonpayable",
      "type": "function"
    },
    {
      "inputs": [
        {
          "internalType": "address",
          "name": "operator",
          "type": "address"
        },
        {
          "internalType": "bool",
          "name": "approved",
          "type": "bool"
        }
      ],
      "name": "setApprovalForAll",
      "outputs": [],
      "stateMutability": "nonpayable",
      "type": "function"
    },
    {
      "inputs": [
        {
          "internalType": "uint256",
          "name": "",
          "type": "uint256"
        }
      ],
      "name": "totalSupply",
      "outputs": [
        {
          "internalType": "uint256",
          "name": "",
          "type": "uint256"
        }
      ],
      "stateMutability": "view",
      "type": "function",
      "constant": true
    },
    {
      "inputs": [
        {
          "internalType": "uint256",
          "name": "",
          "type": "uint256"
        }
      ],
      "name": "uri",
      "outputs": [
        {
          "internalType": "string",
          "name": "",
          "type": "string"
        }
      ],
      "stateMutability": "view",
      "type": "function",
      "constant": true
    },
    {
      "inputs": [],
      "name": "contractURI",
      "outputs": [
        {
          "internalType": "string",
          "name": "",
          "type": "string"
        }
      ],
      "stateMutability": "view",
      "type": "function",
      "constant": true
    },
    {
      "inputs": [
        {
          "internalType": "string",
          "name": "name",
          "type": "string"
        },
        {
          "internalType": "string",
          "name": "ipfsHash",
          "type": "string"
        },
        {
          "internalType": "uint256",
          "name": "price",
          "type": "uint256"
        },
        {
          "internalType": "address",
          "name": "newOwner",
          "type": "address"
        },
        {
          "internalType": "uint256",
          "name": "maxSupply",
          "type": "uint256"
        },
        {
          "internalType": "uint256",
          "name": "initialSupply",
          "type": "uint256"
        }
      ],
      "name": "createNftCard",
      "outputs": [
        {
          "internalType": "uint256",
          "name": "",
          "type": "uint256"
        }
      ],
      "stateMutability": "nonpayable",
      "type": "function"
    },
    {
      "inputs": [
        {
          "internalType": "uint256",
          "name": "maxSupply",
          "type": "uint256"
        }
      ],
      "name": "addCard",
      "outputs": [
        {
          "internalType": "uint256",
          "name": "",
          "type": "uint256"
        }
      ],
      "stateMutability": "nonpayable",
      "type": "function"
    },
    {
      "inputs": [
        {
          "internalType": "address",
          "name": "to",
          "type": "address"
        },
        {
          "internalType": "uint256",
          "name": "id",
          "type": "uint256"
        },
        {
          "internalType": "uint256",
          "name": "amount",
          "type": "uint256"
        }
      ],
      "name": "mint",
      "outputs": [],
      "stateMutability": "nonpayable",
      "type": "function"
    },
    {
      "inputs": [
        {
          "internalType": "uint256",
          "name": "id",
          "type": "uint256"
        },
        {
          "internalType": "uint256",
          "name": "amount",
          "type": "uint256"
        }
      ],
      "name": "burn",
      "outputs": [],
      "stateMutability": "nonpayable",
      "type": "function"
    },
    {
      "inputs": [
        {
          "internalType": "bytes4",
          "name": "interfaceId",
          "type": "bytes4"
        }
      ],
      "name": "supportsInterface",
      "outputs": [
        {
          "internalType": "bool",
          "name": "",
          "type": "bool"
        }
      ],
      "stateMutability": "view",
      "type": "function",
      "constant": true
    }
  ],
  "bytecode": "0x60806040523480156200001157600080fd5b50604051806060016040528060258152602001620024b46025913962000037816200004b565b506200004560003362000064565b620001f4565b80516200006090600290602084019062000111565b5050565b60008281526003602090815260408083206001600160a01b038516845290915290205462000060908390839060ff16620000605760008281526003602090815260408083206001600160a01b03851684529091529020805460ff19166001179055620000cd3390565b6001600160a01b0316816001600160a01b0316837f2f8788117e7eff1d82e926ec794901d17c78024a50270940304540a733656f0d60405160405180910390a45050565b8280546200011f90620001b7565b90600052602060002090601f0160209004810192826200014357600085556200018e565b82601f106200015e57805160ff19168380011785556200018e565b828001600101855582156200018e579182015b828111156200018e57825182559160200191906001019062000171565b506200019c929150620001a0565b5090565b5b808211156200019c5760008155600101620001a1565b600181811c90821680620001cc57607f821691505b60208210811415620001ee57634e487b7160e01b600052602260045260246000fd5b50919050565b6122b080620002046000396000f3fe608060405234801561001057600080fd5b50600436106101575760003560e01c806391d14854116100c3578063d53913931161007c578063d539139314610315578063d547741f1461033c578063e8a3d4851461034f578063e985e9c514610357578063f242432a14610393578063f9e53755146103a657610157565b806391d148541461029457806392ff6aea146102a7578063a217fddf146102c7578063a22cb465146102cf578063b390c0ab146102e2578063bd85b039146102f557610157565b80632eb2c2d6116101155780632eb2c2d61461021f5780632f2ff15d1461023257806336568abe146102455780634e1273f41461025857806358a4903f1461027857806364b844e11461028157610157565b8062fdd58e1461015c57806301ffc9a7146101825780630e89341c146101a5578063156e29f6146101c5578063248a9ca3146101da578063265aa621146101fd575b600080fd5b61016f61016a366004611bf3565b6103b9565b6040519081526020015b60405180910390f35b610195610190366004611d53565b610450565b6040519015158152602001610179565b6101b86101b3366004611d19565b610463565b6040516101799190611f96565b6101d86101d3366004611c1c565b6104f7565b005b61016f6101e8366004611d19565b60009081526003602052604090206001015490565b61021061020b366004611d19565b61061c565b60405161017993929190611fa9565b6101d861022d366004611ab0565b610766565b6101d8610240366004611d31565b610a2d565b6101d8610253366004611d31565b610abc565b61026b610266366004611c4e565b610b36565b6040516101799190611f55565b61016f60045481565b61016f61028f366004611d8b565b610c98565b6101956102a2366004611d31565b610d9e565b61016f6102b5366004611d19565b60076020526000908152604090205481565b61016f600081565b6101d86102dd366004611bb9565b610dc9565b6101d86102f0366004611e18565b610ead565b61016f610303366004611d19565b60066020526000908152604090205481565b61016f7f9f2df0fed2c77648de5860a4cc508cd0818c85b8b8a1ab4ceeef8d981c8956a681565b6101d861034a366004611d31565b610ee7565b6101b8610f67565b610195610365366004611a7e565b6001600160a01b03918216600090815260016020908152604080832093909416825291909152205460ff1690565b6101d86103a1366004611b56565b610f79565b61016f6103b4366004611d19565b611129565b60006001600160a01b03831661042a5760405162461bcd60e51b815260206004820152602b60248201527f455243313135353a2062616c616e636520717565727920666f7220746865207a60448201526a65726f206164647265737360a81b60648201526084015b60405180910390fd5b506000908152602081815260408083206001600160a01b03949094168352929052205490565b600061045b82611259565b90505b919050565b60606002805461047290612109565b80601f016020809104026020016040519081016040528092919081815260200182805461049e90612109565b80156104eb5780601f106104c0576101008083540402835291602001916104eb565b820191906000526020600020905b8154815290600101906020018083116104ce57829003601f168201915b50505050509050919050565b6105217f9f2df0fed2c77648de5860a4cc508cd0818c85b8b8a1ab4ceeef8d981c8956a6336102a2565b6105665760405162461bcd60e51b815260206004820152601660248201527521b0b63632b91034b9903737ba10309036b4b73a32b960511b6044820152606401610421565b60008281526006602090815260408083205460079092529091205461058b908361127e565b11156105d15760405162461bcd60e51b81526020600482015260156024820152742a37ba30b61039bab838363c903932b0b1b432b21760591b6044820152606401610421565b6105ec83838360405180602001604052806000815250611291565b600082815260076020526040902054610605908261127e565b600092835260076020526040909220919091555050565b6005818154811061062c57600080fd5b906000526020600020906003020160009150905080600001805461064f90612109565b80601f016020809104026020016040519081016040528092919081815260200182805461067b90612109565b80156106c85780601f1061069d576101008083540402835291602001916106c8565b820191906000526020600020905b8154815290600101906020018083116106ab57829003601f168201915b5050505050908060010180546106dd90612109565b80601f016020809104026020016040519081016040528092919081815260200182805461070990612109565b80156107565780601f1061072b57610100808354040283529160200191610756565b820191906000526020600020905b81548152906001019060200180831161073957829003601f168201915b5050505050908060020154905083565b81518351146107c85760405162461bcd60e51b815260206004820152602860248201527f455243313135353a2069647320616e6420616d6f756e7473206c656e677468206044820152670dad2e6dac2e8c6d60c31b6064820152608401610421565b6001600160a01b0384166107ee5760405162461bcd60e51b815260040161042190612027565b6001600160a01b03851633148061080a575061080a8533610365565b6108715760405162461bcd60e51b815260206004820152603260248201527f455243313135353a207472616e736665722063616c6c6572206973206e6f74206044820152711bdddb995c881b9bdc88185c1c1c9bdd995960721b6064820152608401610421565b3360005b84518110156109bf5760008582815181106108a057634e487b7160e01b600052603260045260246000fd5b6020026020010151905060008583815181106108cc57634e487b7160e01b600052603260045260246000fd5b602090810291909101810151600084815280835260408082206001600160a01b038e16835290935291909120549091508181101561091c5760405162461bcd60e51b81526004016104219061206c565b61092682826120f2565b60008085815260200190815260200160002060008c6001600160a01b03166001600160a01b03168152602001908152602001600020819055508160008085815260200190815260200160002060008b6001600160a01b03166001600160a01b0316815260200190815260200160002060008282546109a491906120da565b92505081905550505050806109b890612171565b9050610875565b50846001600160a01b0316866001600160a01b0316826001600160a01b03167f4a39dc06d4c0dbc64b70af90fd698a233a518aa5d07e595d983b8c0526c8f7fb8787604051610a0f929190611f68565b60405180910390a4610a25818787878787611392565b505050505050565b600082815260036020526040902060010154610a4a905b336102a2565b610aae5760405162461bcd60e51b815260206004820152602f60248201527f416363657373436f6e74726f6c3a2073656e646572206d75737420626520616e60448201526e0818591b5a5b881d1bc819dc985b9d608a1b6064820152608401610421565b610ab882826114fd565b5050565b6001600160a01b0381163314610b2c5760405162461bcd60e51b815260206004820152602f60248201527f416363657373436f6e74726f6c3a2063616e206f6e6c792072656e6f756e636560448201526e103937b632b9903337b91039b2b63360891b6064820152608401610421565b610ab88282611583565b60608151835114610b9b5760405162461bcd60e51b815260206004820152602960248201527f455243313135353a206163636f756e747320616e6420696473206c656e677468604482015268040dad2e6dac2e8c6d60bb1b6064820152608401610421565b6000835167ffffffffffffffff811115610bc557634e487b7160e01b600052604160045260246000fd5b604051908082528060200260200182016040528015610bee578160200160208202803683370190505b50905060005b8451811015610c9057610c55858281518110610c2057634e487b7160e01b600052603260045260246000fd5b6020026020010151858381518110610c4857634e487b7160e01b600052603260045260246000fd5b60200260200101516103b9565b828281518110610c7557634e487b7160e01b600052603260045260246000fd5b6020908102919091010152610c8981612171565b9050610bf4565b509392505050565b6000808211610ce95760405162461bcd60e51b815260206004820152601a60248201527f496e697469616c20737570706c79206c657373207468616e20310000000000006044820152606401610421565b60408051606081018252888152602081018890529081018690526000610d0e85611129565b6005805460018101825560009190915283518051929350849260039092027f036b6384b5eca791c62761152d0c79bb0604c104a5fb6f4eb0703f3154bb3db00191610d61918391602091909101906118eb565b506020828101518051610d7a92600185019201906118eb565b50604082015181600201555050610d928682866104f7565b98975050505050505050565b60009182526003602090815260408084206001600160a01b0393909316845291905290205460ff1690565b336001600160a01b0383161415610e345760405162461bcd60e51b815260206004820152602960248201527f455243313135353a2073657474696e6720617070726f76616c20737461747573604482015268103337b91039b2b63360b91b6064820152608401610421565b3360008181526001602090815260408083206001600160a01b0387168085529252909120805460ff1916841515179055906001600160a01b03167f17307eab39ab6107e8899845ad3d59bd9653f200f220920489ca2b5937696c3183604051610ea1911515815260200190565b60405180910390a35050565b610eb83383836115ea565b600082815260076020526040902054610ed1908261176c565b6000928352600760205260409092209190915550565b600082815260036020526040902060010154610f0290610a44565b610b2c5760405162461bcd60e51b815260206004820152603060248201527f416363657373436f6e74726f6c3a2073656e646572206d75737420626520616e60448201526f2061646d696e20746f207265766f6b6560801b6064820152608401610421565b6060610f736000610463565b90505b90565b6001600160a01b038416610f9f5760405162461bcd60e51b815260040161042190612027565b6001600160a01b038516331480610fbb5750610fbb8533610365565b6110195760405162461bcd60e51b815260206004820152602960248201527f455243313135353a2063616c6c6572206973206e6f74206f776e6572206e6f7260448201526808185c1c1c9bdd995960ba1b6064820152608401610421565b3361103981878761102988611778565b61103288611778565b5050505050565b6000848152602081815260408083206001600160a01b038a1684529091529020548381101561107a5760405162461bcd60e51b81526004016104219061206c565b61108484826120f2565b6000868152602081815260408083206001600160a01b038c811685529252808320939093558816815290812080548692906110c09084906120da565b909155505060408051868152602081018690526001600160a01b03808916928a821692918616917fc3d58168c5ae7397731d063d5bbf3d657854427343f4c083240f7aacaa2d0f62910160405180910390a46111208288888888886117d1565b50505050505050565b60006111557f9f2df0fed2c77648de5860a4cc508cd0818c85b8b8a1ab4ceeef8d981c8956a6336102a2565b61119a5760405162461bcd60e51b815260206004820152601660248201527521b0b63632b91034b9903737ba10309036b4b73a32b960511b6044820152606401610421565b600082116111ea5760405162461bcd60e51b815260206004820152601b60248201527f4d6178696d756d20737570706c792063616e206e6f74206265203000000000006044820152606401610421565b6004546111f890600161127e565b6004818155600091825260066020526040918290208490555490517f62399d91d89d6e694d41e47f3e6010c0e0b4ec78ecdddb1c02d0e321780859b091611249918590918252602082015260400190565b60405180910390a1505060045490565b60006001600160e01b03198216637965db0b60e01b148061045b575061045b8261189b565b600061128a82846120da565b9392505050565b6001600160a01b0384166112f15760405162461bcd60e51b815260206004820152602160248201527f455243313135353a206d696e7420746f20746865207a65726f206164647265736044820152607360f81b6064820152608401610421565b336113028160008761102988611778565b6000848152602081815260408083206001600160a01b0389168452909152812080548592906113329084906120da565b909155505060408051858152602081018590526001600160a01b0380881692600092918516917fc3d58168c5ae7397731d063d5bbf3d657854427343f4c083240f7aacaa2d0f62910160405180910390a4611032816000878787876117d1565b6001600160a01b0384163b15610a255760405163bc197c8160e01b81526001600160a01b0385169063bc197c81906113d69089908990889088908890600401611ebe565b602060405180830381600087803b1580156113f057600080fd5b505af1925050508015611420575060408051601f3d908101601f1916820190925261141d91810190611d6f565b60015b6114cd5761142c6121b8565b806308c379a0141561146657506114416121cf565b8061144c5750611468565b8060405162461bcd60e51b81526004016104219190611f96565b505b60405162461bcd60e51b815260206004820152603460248201527f455243313135353a207472616e7366657220746f206e6f6e20455243313135356044820152732932b1b2b4bb32b91034b6b83632b6b2b73a32b960611b6064820152608401610421565b6001600160e01b0319811663bc197c8160e01b146111205760405162461bcd60e51b815260040161042190611fdf565b6115078282610d9e565b610ab85760008281526003602090815260408083206001600160a01b03851684529091529020805460ff1916600117905561153f3390565b6001600160a01b0316816001600160a01b0316837f2f8788117e7eff1d82e926ec794901d17c78024a50270940304540a733656f0d60405160405180910390a45050565b61158d8282610d9e565b15610ab85760008281526003602090815260408083206001600160a01b0385168085529252808320805460ff1916905551339285917ff6391f5c32d9c69d2a47ea670b442974b53935d1edc7fd64eb21e047a839171b9190a45050565b6001600160a01b03831661164c5760405162461bcd60e51b815260206004820152602360248201527f455243313135353a206275726e2066726f6d20746865207a65726f206164647260448201526265737360e81b6064820152608401610421565b3361167c8185600061165d87611778565b61166687611778565b5050604080516020810190915260009052505050565b6000838152602081815260408083206001600160a01b0388168452909152902054828110156116f95760405162461bcd60e51b8152602060048201526024808201527f455243313135353a206275726e20616d6f756e7420657863656564732062616c604482015263616e636560e01b6064820152608401610421565b61170383826120f2565b6000858152602081815260408083206001600160a01b038a811680865291845282852095909555815189815292830188905292938616917fc3d58168c5ae7397731d063d5bbf3d657854427343f4c083240f7aacaa2d0f62910160405180910390a45050505050565b600061128a82846120f2565b604080516001808252818301909252606091600091906020808301908036833701905050905082816000815181106117c057634e487b7160e01b600052603260045260246000fd5b602090810291909101015292915050565b6001600160a01b0384163b15610a255760405163f23a6e6160e01b81526001600160a01b0385169063f23a6e61906118159089908990889088908890600401611f10565b602060405180830381600087803b15801561182f57600080fd5b505af192505050801561185f575060408051601f3d908101601f1916820190925261185c91810190611d6f565b60015b61186b5761142c6121b8565b6001600160e01b0319811663f23a6e6160e01b146111205760405162461bcd60e51b815260040161042190611fdf565b60006001600160e01b03198216636cdb3d1360e11b14806118cc57506001600160e01b031982166303a24d0760e21b145b8061045b57506301ffc9a760e01b6001600160e01b031983161461045b565b8280546118f790612109565b90600052602060002090601f016020900481019282611919576000855561195f565b82601f1061193257805160ff191683800117855561195f565b8280016001018555821561195f579182015b8281111561195f578251825591602001919060010190611944565b5061196b92915061196f565b5090565b5b8082111561196b5760008155600101611970565b80356001600160a01b038116811461045e57600080fd5b600082601f8301126119ab578081fd5b813560206119b8826120b6565b6040516119c58282612144565b8381528281019150858301600585901b870184018810156119e4578586fd5b855b85811015611a02578135845292840192908401906001016119e6565b5090979650505050505050565b600082601f830112611a1f578081fd5b813567ffffffffffffffff811115611a3957611a396121a2565b604051611a50601f8301601f191660200182612144565b818152846020838601011115611a64578283fd5b816020850160208301379081016020019190915292915050565b60008060408385031215611a90578182fd5b611a9983611984565b9150611aa760208401611984565b90509250929050565b600080600080600060a08688031215611ac7578081fd5b611ad086611984565b9450611ade60208701611984565b9350604086013567ffffffffffffffff80821115611afa578283fd5b611b0689838a0161199b565b94506060880135915080821115611b1b578283fd5b611b2789838a0161199b565b93506080880135915080821115611b3c578283fd5b50611b4988828901611a0f565b9150509295509295909350565b600080600080600060a08688031215611b6d578081fd5b611b7686611984565b9450611b8460208701611984565b93506040860135925060608601359150608086013567ffffffffffffffff811115611bad578182fd5b611b4988828901611a0f565b60008060408385031215611bcb578182fd5b611bd483611984565b915060208301358015158114611be8578182fd5b809150509250929050565b60008060408385031215611c05578182fd5b611c0e83611984565b946020939093013593505050565b600080600060608486031215611c30578283fd5b611c3984611984565b95602085013595506040909401359392505050565b60008060408385031215611c60578182fd5b823567ffffffffffffffff80821115611c77578384fd5b818501915085601f830112611c8a578384fd5b81356020611c97826120b6565b604051611ca48282612144565b8381528281019150858301600585901b870184018b1015611cc3578889fd5b8896505b84871015611cec57611cd881611984565b835260019690960195918301918301611cc7565b5096505086013592505080821115611d02578283fd5b50611d0f8582860161199b565b9150509250929050565b600060208284031215611d2a578081fd5b5035919050565b60008060408385031215611d43578182fd5b82359150611aa760208401611984565b600060208284031215611d64578081fd5b813561128a81612261565b600060208284031215611d80578081fd5b815161128a81612261565b60008060008060008060c08789031215611da3578384fd5b863567ffffffffffffffff80821115611dba578586fd5b611dc68a838b01611a0f565b97506020890135915080821115611ddb578586fd5b50611de889828a01611a0f565b95505060408701359350611dfe60608801611984565b92506080870135915060a087013590509295509295509295565b60008060408385031215611e2a578182fd5b50508035926020909101359150565b6000815180845260208085019450808401835b83811015611e6857815187529582019590820190600101611e4c565b509495945050505050565b60008151808452815b81811015611e9857602081850181015186830182015201611e7c565b81811115611ea95782602083870101525b50601f01601f19169290920160200192915050565b6001600160a01b0386811682528516602082015260a060408201819052600090611eea90830186611e39565b8281036060840152611efc8186611e39565b90508281036080840152610d928185611e73565b6001600160a01b03868116825285166020820152604081018490526060810183905260a060808201819052600090611f4a90830184611e73565b979650505050505050565b60006020825261128a6020830184611e39565b600060408252611f7b6040830185611e39565b8281036020840152611f8d8185611e39565b95945050505050565b60006020825261128a6020830184611e73565b600060608252611fbc6060830186611e73565b8281036020840152611fce8186611e73565b915050826040830152949350505050565b60208082526028908201527f455243313135353a204552433131353552656365697665722072656a656374656040820152676420746f6b656e7360c01b606082015260800190565b60208082526025908201527f455243313135353a207472616e7366657220746f20746865207a65726f206164604082015264647265737360d81b606082015260800190565b6020808252602a908201527f455243313135353a20696e73756666696369656e742062616c616e636520666f60408201526939103a3930b739b332b960b11b606082015260800190565b600067ffffffffffffffff8211156120d0576120d06121a2565b5060051b60200190565b600082198211156120ed576120ed61218c565b500190565b6000828210156121045761210461218c565b500390565b600181811c9082168061211d57607f821691505b6020821081141561213e57634e487b7160e01b600052602260045260246000fd5b50919050565b601f8201601f1916810167ffffffffffffffff8111828210171561216a5761216a6121a2565b6040525050565b60006000198214156121855761218561218c565b5060010190565b634e487b7160e01b600052601160045260246000fd5b634e487b7160e01b600052604160045260246000fd5b600060033d1115610f7657600481823e5160e01c90565b600060443d10156121df57610f76565b6040516003193d81016004833e81513d67ffffffffffffffff8160248401118184111715612211575050505050610f76565b828501915081518181111561222b57505050505050610f76565b843d870101602082850101111561224757505050505050610f76565b61225660208286010187612144565b509094505050505090565b6001600160e01b03198116811461227757600080fd5b5056fea2646970667358221220a8225a9f15db14ef6b45720e9ed728e9902b2b419867067a768248b3e935b7cf64736f6c6343000803003368747470733a2f2f7777772e74726f747465722e66696e616e63652f6170692f4e4654732f",
  "immutableReferences": {},
  "source": "// SPDX-License-Identifier: MIT\npragma solidity >=0.6.12;\n\nimport \"@openzeppelin/contracts/token/ERC1155/ERC1155.sol\";\nimport \"@openzeppelin/contracts/access/AccessControl.sol\";\nimport \"@openzeppelin/contracts/utils/math/SafeMath.sol\";\n\ncontract TrotterNft is ERC1155, AccessControl {\n    using SafeMath for uint256;\n\n    constructor() ERC1155(\"https://www.trotter.finance/api/NFTs/\") {\n        _setupRole(DEFAULT_ADMIN_ROLE, _msgSender());\n    }\n\n    bytes32 public constant MINTER_ROLE = keccak256(\"MINTER_ROLE\");\n\n    struct nftMetadata {\n        string name;\n        string ipfsHash;\n        uint256 price;\n    }\n\n    uint256 public cards;\n    nftMetadata[] public nfts;\n    mapping(uint256 => uint256) public totalSupply;\n    mapping(uint256 => uint256) public circulatingSupply;\n\n    event CardAdded(uint256 id, uint256 maxSupply);\n\n    /**\n     * @dev Get contract URL\n     */\n    function contractURI() public view returns (string memory) {\n        return string(uri(0));\n    }\n\n    /**\n     * @notice Creates nft card and mints a new NFT for first time.\n     *\n     * @param name Name of new NFT.\n     * @param ipfsHash ipfs hash of nft image the new minted NFT.\n     * @param price price to sell the nft.\n     * @param newOwner Address to mint NFT to.\n     * @param maxSupply The max supply of NFT mintable.\n     * @param initialSupply The amount of NFT to mint initially.\n     */\n    function createNftCard(\n        string memory name,\n        string memory ipfsHash,\n        uint256 price,\n        address newOwner,\n        uint256 maxSupply,\n        uint256 initialSupply\n    ) public returns (uint256) {\n        require(initialSupply > 0, \"Initial supply less than 1\");\n\n        nftMetadata memory newNft = nftMetadata({name: name, ipfsHash: ipfsHash, price: price});\n\n        uint256 nftId = addCard(maxSupply);\n        nfts.push(newNft);\n        mint(newOwner, nftId, initialSupply);\n\n        return nftId;\n    }\n\n    /**\n     * @notice Creates a new card for unique `NFT`.\n     *\n     * This signifies each unique NFT,\n     *\n     * Each NFT can appear more than once, this is where to declare it before minting a copy.\n     *\n     * The less amount an NFT can be minted determines the value,\n     * Low amount of an NFT in circulation makes it rare and more expensive.\n     *\n     * @param maxSupply The max supply of the NFTs on this card.\n     */\n    function addCard(uint256 maxSupply) public returns (uint256) {\n        require(hasRole(MINTER_ROLE, _msgSender()), \"Caller is not a minter\");\n        require(maxSupply > 0, \"Maximum supply can not be 0\");\n        cards = cards.add(1);\n        totalSupply[cards] = maxSupply;\n        emit CardAdded(cards, maxSupply);\n        return cards;\n    }\n\n    /**\n     * @notice Mints a new NFT to an NFT card.\n     *\n     * @param to Address to receive the new minted NFT.\n     * @param id The card id to mint NFT from.\n     * @param amount The amount of NFT to mint on this card.\n     */\n    function mint(\n        address to,\n        uint256 id,\n        uint256 amount\n    ) public {\n        require(hasRole(MINTER_ROLE, _msgSender()), \"Caller is not a minter\");\n        require(\n            circulatingSupply[id].add(amount) <= totalSupply[id],\n            \"Total supply reached.\"\n        );\n\n        _mint(to, id, amount, \"\");\n        circulatingSupply[id] = circulatingSupply[id].add(amount);\n    }\n\n    /**\n     * @notice Burn an NFT from NFT card.\n     *\n     * @param id The card id to burn NFT from.\n     * @param amount The amount of NFT to burn from this card.\n     */\n    function burn(uint256 id, uint256 amount) public {\n        _burn(_msgSender(), id, amount);\n        circulatingSupply[id] = circulatingSupply[id].sub(amount);\n    }\n\n    /**\n     * @dev ERC1155 and AccessControl include supportsInterface so we need to override both\n     */\n    function supportsInterface(bytes4 interfaceId)\n        public\n        view\n        virtual\n        override(ERC1155, AccessControl)\n        returns (bool)\n    {\n        return super.supportsInterface(interfaceId);\n    }\n}\n",
  "sourcePath": "/Users/Chris/Coding/Blockchain/trotter-market/contracts/TrotterNft.sol",
  "compiler": {
    "name": "solc",
    "version": "0.8.3+commit.8d00100c.Emscripten.clang"
  },
  "schemaVersion": "3.3.4",
  "updatedAt": "2021-04-06T14:05:29.811Z",
  "networkType": "ethereum",
  "devdoc": {
    "kind": "dev",
    "methods": {
      "addCard(uint256)": {
        "params": {
          "maxSupply": "The max supply of the NFTs on this card."
        }
      },
      "balanceOf(address,uint256)": {
        "details": "See {IERC1155-balanceOf}. Requirements: - `account` cannot be the zero address."
      },
      "balanceOfBatch(address[],uint256[])": {
        "details": "See {IERC1155-balanceOfBatch}. Requirements: - `accounts` and `ids` must have the same length."
      },
      "burn(uint256,uint256)": {
        "params": {
          "amount": "The amount of NFT to burn from this card.",
          "id": "The card id to burn NFT from."
        }
      },
      "contractURI()": {
        "details": "Get contract URL"
      },
      "createNftCard(string,string,uint256,address,uint256,uint256)": {
        "params": {
          "initialSupply": "The amount of NFT to mint initially.",
          "ipfsHash": "ipfs hash of nft image the new minted NFT.",
          "maxSupply": "The max supply of NFT mintable.",
          "name": "Name of new NFT.",
          "newOwner": "Address to mint NFT to.",
          "price": "price to sell the nft."
        }
      },
      "getRoleAdmin(bytes32)": {
        "details": "Returns the admin role that controls `role`. See {grantRole} and {revokeRole}. To change a role's admin, use {_setRoleAdmin}."
      },
      "grantRole(bytes32,address)": {
        "details": "Grants `role` to `account`. If `account` had not been already granted `role`, emits a {RoleGranted} event. Requirements: - the caller must have ``role``'s admin role."
      },
      "hasRole(bytes32,address)": {
        "details": "Returns `true` if `account` has been granted `role`."
      },
      "isApprovedForAll(address,address)": {
        "details": "See {IERC1155-isApprovedForAll}."
      },
      "mint(address,uint256,uint256)": {
        "params": {
          "amount": "The amount of NFT to mint on this card.",
          "id": "The card id to mint NFT from.",
          "to": "Address to receive the new minted NFT."
        }
      },
      "renounceRole(bytes32,address)": {
        "details": "Revokes `role` from the calling account. Roles are often managed via {grantRole} and {revokeRole}: this function's purpose is to provide a mechanism for accounts to lose their privileges if they are compromised (such as when a trusted device is misplaced). If the calling account had been granted `role`, emits a {RoleRevoked} event. Requirements: - the caller must be `account`."
      },
      "revokeRole(bytes32,address)": {
        "details": "Revokes `role` from `account`. If `account` had been granted `role`, emits a {RoleRevoked} event. Requirements: - the caller must have ``role``'s admin role."
      },
      "safeBatchTransferFrom(address,address,uint256[],uint256[],bytes)": {
        "details": "See {IERC1155-safeBatchTransferFrom}."
      },
      "safeTransferFrom(address,address,uint256,uint256,bytes)": {
        "details": "See {IERC1155-safeTransferFrom}."
      },
      "setApprovalForAll(address,bool)": {
        "details": "See {IERC1155-setApprovalForAll}."
      },
      "supportsInterface(bytes4)": {
        "details": "ERC1155 and AccessControl include supportsInterface so we need to override both"
      },
      "uri(uint256)": {
        "details": "See {IERC1155MetadataURI-uri}. This implementation returns the same URI for *all* token types. It relies on the token type ID substitution mechanism https://eips.ethereum.org/EIPS/eip-1155#metadata[defined in the EIP]. Clients calling this function must replace the `\\{id\\}` substring with the actual token type ID."
      }
    },
    "version": 1
  },
  "userdoc": {
    "kind": "user",
    "methods": {
      "addCard(uint256)": {
        "notice": "Creates a new card for unique `NFT`. This signifies each unique NFT, Each NFT can appear more than once, this is where to declare it before minting a copy. The less amount an NFT can be minted determines the value, Low amount of an NFT in circulation makes it rare and more expensive."
      },
      "burn(uint256,uint256)": {
        "notice": "Burn an NFT from NFT card."
      },
      "createNftCard(string,string,uint256,address,uint256,uint256)": {
        "notice": "Creates nft card and mints a new NFT for first time."
      },
      "mint(address,uint256,uint256)": {
        "notice": "Mints a new NFT to an NFT card."
      }
    },
    "version": 1
  }
}