{
  "contractName": "TrotterNft",
  "abi": [
    {
      "inputs": [],
      "stateMutability": "nonpayable",
      "type": "constructor"
    },
    {
      "anonymous": false,
      "inputs": [
        {
          "indexed": true,
          "internalType": "address",
          "name": "account",
          "type": "address"
        },
        {
          "indexed": true,
          "internalType": "address",
          "name": "operator",
          "type": "address"
        },
        {
          "indexed": false,
          "internalType": "bool",
          "name": "approved",
          "type": "bool"
        }
      ],
      "name": "ApprovalForAll",
      "type": "event"
    },
    {
      "anonymous": false,
      "inputs": [
        {
          "indexed": false,
          "internalType": "uint256",
          "name": "id",
          "type": "uint256"
        },
        {
          "indexed": false,
          "internalType": "uint256",
          "name": "maxSupply",
          "type": "uint256"
        }
      ],
      "name": "CardAdded",
      "type": "event"
    },
    {
      "anonymous": false,
      "inputs": [
        {
          "indexed": true,
          "internalType": "bytes32",
          "name": "role",
          "type": "bytes32"
        },
        {
          "indexed": true,
          "internalType": "bytes32",
          "name": "previousAdminRole",
          "type": "bytes32"
        },
        {
          "indexed": true,
          "internalType": "bytes32",
          "name": "newAdminRole",
          "type": "bytes32"
        }
      ],
      "name": "RoleAdminChanged",
      "type": "event"
    },
    {
      "anonymous": false,
      "inputs": [
        {
          "indexed": true,
          "internalType": "bytes32",
          "name": "role",
          "type": "bytes32"
        },
        {
          "indexed": true,
          "internalType": "address",
          "name": "account",
          "type": "address"
        },
        {
          "indexed": true,
          "internalType": "address",
          "name": "sender",
          "type": "address"
        }
      ],
      "name": "RoleGranted",
      "type": "event"
    },
    {
      "anonymous": false,
      "inputs": [
        {
          "indexed": true,
          "internalType": "bytes32",
          "name": "role",
          "type": "bytes32"
        },
        {
          "indexed": true,
          "internalType": "address",
          "name": "account",
          "type": "address"
        },
        {
          "indexed": true,
          "internalType": "address",
          "name": "sender",
          "type": "address"
        }
      ],
      "name": "RoleRevoked",
      "type": "event"
    },
    {
      "anonymous": false,
      "inputs": [
        {
          "indexed": true,
          "internalType": "address",
          "name": "operator",
          "type": "address"
        },
        {
          "indexed": true,
          "internalType": "address",
          "name": "from",
          "type": "address"
        },
        {
          "indexed": true,
          "internalType": "address",
          "name": "to",
          "type": "address"
        },
        {
          "indexed": false,
          "internalType": "uint256[]",
          "name": "ids",
          "type": "uint256[]"
        },
        {
          "indexed": false,
          "internalType": "uint256[]",
          "name": "values",
          "type": "uint256[]"
        }
      ],
      "name": "TransferBatch",
      "type": "event"
    },
    {
      "anonymous": false,
      "inputs": [
        {
          "indexed": true,
          "internalType": "address",
          "name": "operator",
          "type": "address"
        },
        {
          "indexed": true,
          "internalType": "address",
          "name": "from",
          "type": "address"
        },
        {
          "indexed": true,
          "internalType": "address",
          "name": "to",
          "type": "address"
        },
        {
          "indexed": false,
          "internalType": "uint256",
          "name": "id",
          "type": "uint256"
        },
        {
          "indexed": false,
          "internalType": "uint256",
          "name": "value",
          "type": "uint256"
        }
      ],
      "name": "TransferSingle",
      "type": "event"
    },
    {
      "anonymous": false,
      "inputs": [
        {
          "indexed": false,
          "internalType": "string",
          "name": "value",
          "type": "string"
        },
        {
          "indexed": true,
          "internalType": "uint256",
          "name": "id",
          "type": "uint256"
        }
      ],
      "name": "URI",
      "type": "event"
    },
    {
      "inputs": [],
      "name": "DEFAULT_ADMIN_ROLE",
      "outputs": [
        {
          "internalType": "bytes32",
          "name": "",
          "type": "bytes32"
        }
      ],
      "stateMutability": "view",
      "type": "function",
      "constant": true
    },
    {
      "inputs": [],
      "name": "MINTER_ROLE",
      "outputs": [
        {
          "internalType": "bytes32",
          "name": "",
          "type": "bytes32"
        }
      ],
      "stateMutability": "view",
      "type": "function",
      "constant": true
    },
    {
      "inputs": [
        {
          "internalType": "address",
          "name": "account",
          "type": "address"
        },
        {
          "internalType": "uint256",
          "name": "id",
          "type": "uint256"
        }
      ],
      "name": "balanceOf",
      "outputs": [
        {
          "internalType": "uint256",
          "name": "",
          "type": "uint256"
        }
      ],
      "stateMutability": "view",
      "type": "function",
      "constant": true
    },
    {
      "inputs": [
        {
          "internalType": "address[]",
          "name": "accounts",
          "type": "address[]"
        },
        {
          "internalType": "uint256[]",
          "name": "ids",
          "type": "uint256[]"
        }
      ],
      "name": "balanceOfBatch",
      "outputs": [
        {
          "internalType": "uint256[]",
          "name": "",
          "type": "uint256[]"
        }
      ],
      "stateMutability": "view",
      "type": "function",
      "constant": true
    },
    {
      "inputs": [],
      "name": "cards",
      "outputs": [
        {
          "internalType": "uint256",
          "name": "",
          "type": "uint256"
        }
      ],
      "stateMutability": "view",
      "type": "function",
      "constant": true
    },
    {
      "inputs": [
        {
          "internalType": "uint256",
          "name": "",
          "type": "uint256"
        }
      ],
      "name": "circulatingSupply",
      "outputs": [
        {
          "internalType": "uint256",
          "name": "",
          "type": "uint256"
        }
      ],
      "stateMutability": "view",
      "type": "function",
      "constant": true
    },
    {
      "inputs": [
        {
          "internalType": "bytes32",
          "name": "role",
          "type": "bytes32"
        }
      ],
      "name": "getRoleAdmin",
      "outputs": [
        {
          "internalType": "bytes32",
          "name": "",
          "type": "bytes32"
        }
      ],
      "stateMutability": "view",
      "type": "function",
      "constant": true
    },
    {
      "inputs": [
        {
          "internalType": "bytes32",
          "name": "role",
          "type": "bytes32"
        },
        {
          "internalType": "address",
          "name": "account",
          "type": "address"
        }
      ],
      "name": "grantRole",
      "outputs": [],
      "stateMutability": "nonpayable",
      "type": "function"
    },
    {
      "inputs": [
        {
          "internalType": "bytes32",
          "name": "role",
          "type": "bytes32"
        },
        {
          "internalType": "address",
          "name": "account",
          "type": "address"
        }
      ],
      "name": "hasRole",
      "outputs": [
        {
          "internalType": "bool",
          "name": "",
          "type": "bool"
        }
      ],
      "stateMutability": "view",
      "type": "function",
      "constant": true
    },
    {
      "inputs": [
        {
          "internalType": "address",
          "name": "account",
          "type": "address"
        },
        {
          "internalType": "address",
          "name": "operator",
          "type": "address"
        }
      ],
      "name": "isApprovedForAll",
      "outputs": [
        {
          "internalType": "bool",
          "name": "",
          "type": "bool"
        }
      ],
      "stateMutability": "view",
      "type": "function",
      "constant": true
    },
    {
      "inputs": [
        {
          "internalType": "uint256",
          "name": "",
          "type": "uint256"
        }
      ],
      "name": "nfts",
      "outputs": [
        {
          "internalType": "string",
          "name": "name",
          "type": "string"
        },
        {
          "internalType": "string",
          "name": "ipfsHash",
          "type": "string"
        },
        {
          "internalType": "uint256",
          "name": "price",
          "type": "uint256"
        }
      ],
      "stateMutability": "view",
      "type": "function",
      "constant": true
    },
    {
      "inputs": [
        {
          "internalType": "bytes32",
          "name": "role",
          "type": "bytes32"
        },
        {
          "internalType": "address",
          "name": "account",
          "type": "address"
        }
      ],
      "name": "renounceRole",
      "outputs": [],
      "stateMutability": "nonpayable",
      "type": "function"
    },
    {
      "inputs": [
        {
          "internalType": "bytes32",
          "name": "role",
          "type": "bytes32"
        },
        {
          "internalType": "address",
          "name": "account",
          "type": "address"
        }
      ],
      "name": "revokeRole",
      "outputs": [],
      "stateMutability": "nonpayable",
      "type": "function"
    },
    {
      "inputs": [
        {
          "internalType": "address",
          "name": "from",
          "type": "address"
        },
        {
          "internalType": "address",
          "name": "to",
          "type": "address"
        },
        {
          "internalType": "uint256[]",
          "name": "ids",
          "type": "uint256[]"
        },
        {
          "internalType": "uint256[]",
          "name": "amounts",
          "type": "uint256[]"
        },
        {
          "internalType": "bytes",
          "name": "data",
          "type": "bytes"
        }
      ],
      "name": "safeBatchTransferFrom",
      "outputs": [],
      "stateMutability": "nonpayable",
      "type": "function"
    },
    {
      "inputs": [
        {
          "internalType": "address",
          "name": "from",
          "type": "address"
        },
        {
          "internalType": "address",
          "name": "to",
          "type": "address"
        },
        {
          "internalType": "uint256",
          "name": "id",
          "type": "uint256"
        },
        {
          "internalType": "uint256",
          "name": "amount",
          "type": "uint256"
        },
        {
          "internalType": "bytes",
          "name": "data",
          "type": "bytes"
        }
      ],
      "name": "safeTransferFrom",
      "outputs": [],
      "stateMutability": "nonpayable",
      "type": "function"
    },
    {
      "inputs": [
        {
          "internalType": "address",
          "name": "operator",
          "type": "address"
        },
        {
          "internalType": "bool",
          "name": "approved",
          "type": "bool"
        }
      ],
      "name": "setApprovalForAll",
      "outputs": [],
      "stateMutability": "nonpayable",
      "type": "function"
    },
    {
      "inputs": [
        {
          "internalType": "uint256",
          "name": "",
          "type": "uint256"
        }
      ],
      "name": "totalSupply",
      "outputs": [
        {
          "internalType": "uint256",
          "name": "",
          "type": "uint256"
        }
      ],
      "stateMutability": "view",
      "type": "function",
      "constant": true
    },
    {
      "inputs": [
        {
          "internalType": "uint256",
          "name": "",
          "type": "uint256"
        }
      ],
      "name": "uri",
      "outputs": [
        {
          "internalType": "string",
          "name": "",
          "type": "string"
        }
      ],
      "stateMutability": "view",
      "type": "function",
      "constant": true
    },
    {
      "inputs": [],
      "name": "contractURI",
      "outputs": [
        {
          "internalType": "string",
          "name": "",
          "type": "string"
        }
      ],
      "stateMutability": "view",
      "type": "function",
      "constant": true
    },
    {
      "inputs": [
        {
          "internalType": "string",
          "name": "name",
          "type": "string"
        },
        {
          "internalType": "string",
          "name": "ipfsHash",
          "type": "string"
        },
        {
          "internalType": "uint256",
          "name": "price",
          "type": "uint256"
        },
        {
          "internalType": "address",
          "name": "newOwner",
          "type": "address"
        },
        {
          "internalType": "uint256",
          "name": "maxSupply",
          "type": "uint256"
        },
        {
          "internalType": "uint256",
          "name": "initialSupply",
          "type": "uint256"
        }
      ],
      "name": "createNftCard",
      "outputs": [
        {
          "internalType": "uint256",
          "name": "",
          "type": "uint256"
        }
      ],
      "stateMutability": "nonpayable",
      "type": "function"
    },
    {
      "inputs": [
        {
          "internalType": "uint256",
          "name": "maxSupply",
          "type": "uint256"
        }
      ],
      "name": "addCard",
      "outputs": [
        {
          "internalType": "uint256",
          "name": "",
          "type": "uint256"
        }
      ],
      "stateMutability": "nonpayable",
      "type": "function"
    },
    {
      "inputs": [
        {
          "internalType": "address",
          "name": "to",
          "type": "address"
        },
        {
          "internalType": "uint256",
          "name": "id",
          "type": "uint256"
        },
        {
          "internalType": "uint256",
          "name": "amount",
          "type": "uint256"
        }
      ],
      "name": "mint",
      "outputs": [],
      "stateMutability": "nonpayable",
      "type": "function"
    },
    {
      "inputs": [
        {
          "internalType": "uint256",
          "name": "id",
          "type": "uint256"
        },
        {
          "internalType": "uint256",
          "name": "amount",
          "type": "uint256"
        }
      ],
      "name": "burn",
      "outputs": [],
      "stateMutability": "nonpayable",
      "type": "function"
    },
    {
      "inputs": [
        {
          "internalType": "bytes4",
          "name": "interfaceId",
          "type": "bytes4"
        }
      ],
      "name": "supportsInterface",
      "outputs": [
        {
          "internalType": "bool",
          "name": "",
          "type": "bool"
        }
      ],
      "stateMutability": "view",
      "type": "function",
      "constant": true
    }
  ],
  "bytecode": "0x60806040523480156200001157600080fd5b50604051806060016040528060258152602001620042ff602591396200003d816200008560201b60201c565b506200007f7f9f2df0fed2c77648de5860a4cc508cd0818c85b8b8a1ab4ceeef8d981c8956a662000073620000a160201b60201c565b620000a960201b60201c565b62000331565b80600290805190602001906200009d9291906200021c565b5050565b600033905090565b620000bb8282620000bf60201b60201c565b5050565b620000d18282620001b160201b60201c565b620001ad5760016003600084815260200190815260200160002060000160008373ffffffffffffffffffffffffffffffffffffffff1673ffffffffffffffffffffffffffffffffffffffff16815260200190815260200160002060006101000a81548160ff02191690831515021790555062000152620000a160201b60201c565b73ffffffffffffffffffffffffffffffffffffffff168173ffffffffffffffffffffffffffffffffffffffff16837f2f8788117e7eff1d82e926ec794901d17c78024a50270940304540a733656f0d60405160405180910390a45b5050565b60006003600084815260200190815260200160002060000160008373ffffffffffffffffffffffffffffffffffffffff1673ffffffffffffffffffffffffffffffffffffffff16815260200190815260200160002060009054906101000a900460ff16905092915050565b8280546200022a90620002cc565b90600052602060002090601f0160209004810192826200024e57600085556200029a565b82601f106200026957805160ff19168380011785556200029a565b828001600101855582156200029a579182015b82811115620002995782518255916020019190600101906200027c565b5b509050620002a99190620002ad565b5090565b5b80821115620002c8576000816000905550600101620002ae565b5090565b60006002820490506001821680620002e557607f821691505b60208210811415620002fc57620002fb62000302565b5b50919050565b7f4e487b7100000000000000000000000000000000000000000000000000000000600052602260045260246000fd5b613fbe80620003416000396000f3fe608060405234801561001057600080fd5b50600436106101575760003560e01c806391d14854116100c3578063d53913931161007c578063d539139314610422578063d547741f14610440578063e8a3d4851461045c578063e985e9c51461047a578063f242432a146104aa578063f9e53755146104c657610157565b806391d148541461033c57806392ff6aea1461036c578063a217fddf1461039c578063a22cb465146103ba578063b390c0ab146103d6578063bd85b039146103f257610157565b80632eb2c2d6116101155780632eb2c2d61461026a5780632f2ff15d1461028657806336568abe146102a25780634e1273f4146102be57806358a4903f146102ee57806364b844e11461030c57610157565b8062fdd58e1461015c57806301ffc9a71461018c5780630e89341c146101bc578063156e29f6146101ec578063248a9ca314610208578063265aa62114610238575b600080fd5b610176600480360381019061017191906129a1565b6104f6565b6040516101839190613494565b60405180910390f35b6101a660048036038101906101a19190612afd565b6105bf565b6040516101b39190613177565b60405180910390f35b6101d660048036038101906101d19190612c08565b6105d1565b6040516101e391906131ad565b60405180910390f35b610206600480360381019061020191906129dd565b610665565b005b610222600480360381019061021d9190612a98565b6107ad565b60405161022f9190613192565b60405180910390f35b610252600480360381019061024d9190612c08565b6107cd565b604051610261939291906131cf565b60405180910390f35b610284600480360381019061027f9190612817565b610917565b005b6102a0600480360381019061029b9190612ac1565b610d0d565b005b6102bc60048036038101906102b79190612ac1565b610d73565b005b6102d860048036038101906102d39190612a2c565b610df6565b6040516102e5919061311e565b60405180910390f35b6102f6610fa7565b6040516103039190613494565b60405180910390f35b61032660048036038101906103219190612b4f565b610fad565b6040516103339190613494565b60405180910390f35b61035660048036038101906103519190612ac1565b6110a9565b6040516103639190613177565b60405180910390f35b61038660048036038101906103819190612c08565b611114565b6040516103939190613494565b60405180910390f35b6103a461112c565b6040516103b19190613192565b60405180910390f35b6103d460048036038101906103cf9190612965565b611133565b005b6103f060048036038101906103eb9190612c31565b6112b4565b005b61040c60048036038101906104079190612c08565b611307565b6040516104199190613494565b60405180910390f35b61042a61131f565b6040516104379190613192565b60405180910390f35b61045a60048036038101906104559190612ac1565b611343565b005b6104646113a9565b60405161047191906131ad565b60405180910390f35b610494600480360381019061048f91906127db565b6113ba565b6040516104a19190613177565b60405180910390f35b6104c460048036038101906104bf91906128d6565b61144e565b005b6104e060048036038101906104db9190612c08565b611766565b6040516104ed9190613494565b60405180910390f35b60008073ffffffffffffffffffffffffffffffffffffffff168373ffffffffffffffffffffffffffffffffffffffff161415610567576040517f08c379a000000000000000000000000000000000000000000000000000000000815260040161055e90613274565b60405180910390fd5b60008083815260200190815260200160002060008473ffffffffffffffffffffffffffffffffffffffff1673ffffffffffffffffffffffffffffffffffffffff16815260200190815260200160002054905092915050565b60006105ca82611896565b9050919050565b6060600280546105e090613772565b80601f016020809104026020016040519081016040528092919081815260200182805461060c90613772565b80156106595780601f1061062e57610100808354040283529160200191610659565b820191906000526020600020905b81548152906001019060200180831161063c57829003601f168201915b50505050509050919050565b6106967f9f2df0fed2c77648de5860a4cc508cd0818c85b8b8a1ab4ceeef8d981c8956a6610691611910565b6110a9565b6106d5576040517f08c379a00000000000000000000000000000000000000000000000000000000081526004016106cc90613374565b60405180910390fd5b600660008381526020019081526020016000205461070f82600760008681526020019081526020016000205461191890919063ffffffff16565b1115610750576040517f08c379a000000000000000000000000000000000000000000000000000000000815260040161074790613314565b60405180910390fd5b61076b8383836040518060200160405280600081525061192e565b61079181600760008581526020019081526020016000205461191890919063ffffffff16565b6007600084815260200190815260200160002081905550505050565b600060036000838152602001908152602001600020600101549050919050565b600581815481106107dd57600080fd5b906000526020600020906003020160009150905080600001805461080090613772565b80601f016020809104026020016040519081016040528092919081815260200182805461082c90613772565b80156108795780601f1061084e57610100808354040283529160200191610879565b820191906000526020600020905b81548152906001019060200180831161085c57829003601f168201915b50505050509080600101805461088e90613772565b80601f01602080910402602001604051908101604052809291908181526020018280546108ba90613772565b80156109075780601f106108dc57610100808354040283529160200191610907565b820191906000526020600020905b8154815290600101906020018083116108ea57829003601f168201915b5050505050908060020154905083565b815183511461095b576040517f08c379a000000000000000000000000000000000000000000000000000000000815260040161095290613434565b60405180910390fd5b600073ffffffffffffffffffffffffffffffffffffffff168473ffffffffffffffffffffffffffffffffffffffff1614156109cb576040517f08c379a00000000000000000000000000000000000000000000000000000000081526004016109c290613334565b60405180910390fd5b6109d3611910565b73ffffffffffffffffffffffffffffffffffffffff168573ffffffffffffffffffffffffffffffffffffffff161480610a195750610a1885610a13611910565b6113ba565b5b610a58576040517f08c379a0000000000000000000000000000000000000000000000000000000008152600401610a4f90613354565b60405180910390fd5b6000610a62611910565b9050610a72818787878787611ac4565b60005b8451811015610c78576000858281518110610ab9577f4e487b7100000000000000000000000000000000000000000000000000000000600052603260045260246000fd5b602002602001015190506000858381518110610afe577f4e487b7100000000000000000000000000000000000000000000000000000000600052603260045260246000fd5b60200260200101519050600080600084815260200190815260200160002060008b73ffffffffffffffffffffffffffffffffffffffff1673ffffffffffffffffffffffffffffffffffffffff16815260200190815260200160002054905081811015610b9f576040517f08c379a0000000000000000000000000000000000000000000000000000000008152600401610b96906133d4565b60405180910390fd5b8181610bab919061367e565b60008085815260200190815260200160002060008c73ffffffffffffffffffffffffffffffffffffffff1673ffffffffffffffffffffffffffffffffffffffff168152602001908152602001600020819055508160008085815260200190815260200160002060008b73ffffffffffffffffffffffffffffffffffffffff1673ffffffffffffffffffffffffffffffffffffffff1681526020019081526020016000206000828254610c5d9190613628565b9250508190555050505080610c71906137d5565b9050610a75565b508473ffffffffffffffffffffffffffffffffffffffff168673ffffffffffffffffffffffffffffffffffffffff168273ffffffffffffffffffffffffffffffffffffffff167f4a39dc06d4c0dbc64b70af90fd698a233a518aa5d07e595d983b8c0526c8f7fb8787604051610cef929190613140565b60405180910390a4610d05818787878787611acc565b505050505050565b610d26610d19836107ad565b610d21611910565b6110a9565b610d65576040517f08c379a0000000000000000000000000000000000000000000000000000000008152600401610d5c90613254565b60405180910390fd5b610d6f8282611cb3565b5050565b610d7b611910565b73ffffffffffffffffffffffffffffffffffffffff168173ffffffffffffffffffffffffffffffffffffffff1614610de8576040517f08c379a0000000000000000000000000000000000000000000000000000000008152600401610ddf90613474565b60405180910390fd5b610df28282611d94565b5050565b60608151835114610e3c576040517f08c379a0000000000000000000000000000000000000000000000000000000008152600401610e3390613414565b60405180910390fd5b6000835167ffffffffffffffff811115610e7f577f4e487b7100000000000000000000000000000000000000000000000000000000600052604160045260246000fd5b604051908082528060200260200182016040528015610ead5781602001602082028036833780820191505090505b50905060005b8451811015610f9c57610f46858281518110610ef8577f4e487b7100000000000000000000000000000000000000000000000000000000600052603260045260246000fd5b6020026020010151858381518110610f39577f4e487b7100000000000000000000000000000000000000000000000000000000600052603260045260246000fd5b60200260200101516104f6565b828281518110610f7f577f4e487b7100000000000000000000000000000000000000000000000000000000600052603260045260246000fd5b60200260200101818152505080610f95906137d5565b9050610eb3565b508091505092915050565b60045481565b6000808211610ff1576040517f08c379a0000000000000000000000000000000000000000000000000000000008152600401610fe8906132d4565b60405180910390fd5b60006040518060600160405280898152602001888152602001878152509050600061101b85611766565b9050600582908060018154018082558091505060019003906000526020600020906003020160009091909190915060008201518160000190805190602001906110659291906124be565b5060208201518160010190805190602001906110829291906124be565b5060408201518160020155505061109a868286610665565b80925050509695505050505050565b60006003600084815260200190815260200160002060000160008373ffffffffffffffffffffffffffffffffffffffff1673ffffffffffffffffffffffffffffffffffffffff16815260200190815260200160002060009054906101000a900460ff16905092915050565b60076020528060005260406000206000915090505481565b6000801b81565b8173ffffffffffffffffffffffffffffffffffffffff16611152611910565b73ffffffffffffffffffffffffffffffffffffffff1614156111a9576040517f08c379a00000000000000000000000000000000000000000000000000000000081526004016111a0906133f4565b60405180910390fd5b80600160006111b6611910565b73ffffffffffffffffffffffffffffffffffffffff1673ffffffffffffffffffffffffffffffffffffffff16815260200190815260200160002060008473ffffffffffffffffffffffffffffffffffffffff1673ffffffffffffffffffffffffffffffffffffffff16815260200190815260200160002060006101000a81548160ff0219169083151502179055508173ffffffffffffffffffffffffffffffffffffffff16611263611910565b73ffffffffffffffffffffffffffffffffffffffff167f17307eab39ab6107e8899845ad3d59bd9653f200f220920489ca2b5937696c31836040516112a89190613177565b60405180910390a35050565b6112c66112bf611910565b8383611e76565b6112ec81600760008581526020019081526020016000205461209c90919063ffffffff16565b60076000848152602001908152602001600020819055505050565b60066020528060005260406000206000915090505481565b7f9f2df0fed2c77648de5860a4cc508cd0818c85b8b8a1ab4ceeef8d981c8956a681565b61135c61134f836107ad565b611357611910565b6110a9565b61139b576040517f08c379a0000000000000000000000000000000000000000000000000000000008152600401611392906132f4565b60405180910390fd5b6113a58282611d94565b5050565b60606113b560006105d1565b905090565b6000600160008473ffffffffffffffffffffffffffffffffffffffff1673ffffffffffffffffffffffffffffffffffffffff16815260200190815260200160002060008373ffffffffffffffffffffffffffffffffffffffff1673ffffffffffffffffffffffffffffffffffffffff16815260200190815260200160002060009054906101000a900460ff16905092915050565b600073ffffffffffffffffffffffffffffffffffffffff168473ffffffffffffffffffffffffffffffffffffffff1614156114be576040517f08c379a00000000000000000000000000000000000000000000000000000000081526004016114b590613334565b60405180910390fd5b6114c6611910565b73ffffffffffffffffffffffffffffffffffffffff168573ffffffffffffffffffffffffffffffffffffffff16148061150c575061150b85611506611910565b6113ba565b5b61154b576040517f08c379a0000000000000000000000000000000000000000000000000000000008152600401611542906132b4565b60405180910390fd5b6000611555611910565b9050611575818787611566886120b2565b61156f886120b2565b87611ac4565b600080600086815260200190815260200160002060008873ffffffffffffffffffffffffffffffffffffffff1673ffffffffffffffffffffffffffffffffffffffff1681526020019081526020016000205490508381101561160c576040517f08c379a0000000000000000000000000000000000000000000000000000000008152600401611603906133d4565b60405180910390fd5b8381611618919061367e565b60008087815260200190815260200160002060008973ffffffffffffffffffffffffffffffffffffffff1673ffffffffffffffffffffffffffffffffffffffff168152602001908152602001600020819055508360008087815260200190815260200160002060008873ffffffffffffffffffffffffffffffffffffffff1673ffffffffffffffffffffffffffffffffffffffff16815260200190815260200160002060008282546116ca9190613628565b925050819055508573ffffffffffffffffffffffffffffffffffffffff168773ffffffffffffffffffffffffffffffffffffffff168373ffffffffffffffffffffffffffffffffffffffff167fc3d58168c5ae7397731d063d5bbf3d657854427343f4c083240f7aacaa2d0f6288886040516117479291906134af565b60405180910390a461175d828888888888612178565b50505050505050565b60006117997f9f2df0fed2c77648de5860a4cc508cd0818c85b8b8a1ab4ceeef8d981c8956a6611794611910565b6110a9565b6117d8576040517f08c379a00000000000000000000000000000000000000000000000000000000081526004016117cf90613374565b60405180910390fd5b6000821161181b576040517f08c379a0000000000000000000000000000000000000000000000000000000008152600401611812906133b4565b60405180910390fd5b611831600160045461191890919063ffffffff16565b60048190555081600660006004548152602001908152602001600020819055507f62399d91d89d6e694d41e47f3e6010c0e0b4ec78ecdddb1c02d0e321780859b0600454836040516118849291906134af565b60405180910390a16004549050919050565b60007f7965db0b000000000000000000000000000000000000000000000000000000007bffffffffffffffffffffffffffffffffffffffffffffffffffffffff1916827bffffffffffffffffffffffffffffffffffffffffffffffffffffffff1916148061190957506119088261235f565b5b9050919050565b600033905090565b600081836119269190613628565b905092915050565b600073ffffffffffffffffffffffffffffffffffffffff168473ffffffffffffffffffffffffffffffffffffffff16141561199e576040517f08c379a000000000000000000000000000000000000000000000000000000000815260040161199590613454565b60405180910390fd5b60006119a8611910565b90506119c9816000876119ba886120b2565b6119c3886120b2565b87611ac4565b8260008086815260200190815260200160002060008773ffffffffffffffffffffffffffffffffffffffff1673ffffffffffffffffffffffffffffffffffffffff1681526020019081526020016000206000828254611a289190613628565b925050819055508473ffffffffffffffffffffffffffffffffffffffff16600073ffffffffffffffffffffffffffffffffffffffff168273ffffffffffffffffffffffffffffffffffffffff167fc3d58168c5ae7397731d063d5bbf3d657854427343f4c083240f7aacaa2d0f628787604051611aa69291906134af565b60405180910390a4611abd81600087878787612178565b5050505050565b505050505050565b611aeb8473ffffffffffffffffffffffffffffffffffffffff16612441565b15611cab578373ffffffffffffffffffffffffffffffffffffffff1663bc197c8187878686866040518663ffffffff1660e01b8152600401611b3195949392919061305c565b602060405180830381600087803b158015611b4b57600080fd5b505af1925050508015611b7c57506040513d601f19601f82011682018060405250810190611b799190612b26565b60015b611c2257611b886138ab565b806308c379a01415611be55750611b9d613e7f565b80611ba85750611be7565b806040517f08c379a0000000000000000000000000000000000000000000000000000000008152600401611bdc91906131ad565b60405180910390fd5b505b6040517f08c379a0000000000000000000000000000000000000000000000000000000008152600401611c1990613214565b60405180910390fd5b63bc197c8160e01b7bffffffffffffffffffffffffffffffffffffffffffffffffffffffff1916817bffffffffffffffffffffffffffffffffffffffffffffffffffffffff191614611ca9576040517f08c379a0000000000000000000000000000000000000000000000000000000008152600401611ca090613234565b60405180910390fd5b505b505050505050565b611cbd82826110a9565b611d905760016003600084815260200190815260200160002060000160008373ffffffffffffffffffffffffffffffffffffffff1673ffffffffffffffffffffffffffffffffffffffff16815260200190815260200160002060006101000a81548160ff021916908315150217905550611d35611910565b73ffffffffffffffffffffffffffffffffffffffff168173ffffffffffffffffffffffffffffffffffffffff16837f2f8788117e7eff1d82e926ec794901d17c78024a50270940304540a733656f0d60405160405180910390a45b5050565b611d9e82826110a9565b15611e725760006003600084815260200190815260200160002060000160008373ffffffffffffffffffffffffffffffffffffffff1673ffffffffffffffffffffffffffffffffffffffff16815260200190815260200160002060006101000a81548160ff021916908315150217905550611e17611910565b73ffffffffffffffffffffffffffffffffffffffff168173ffffffffffffffffffffffffffffffffffffffff16837ff6391f5c32d9c69d2a47ea670b442974b53935d1edc7fd64eb21e047a839171b60405160405180910390a45b5050565b600073ffffffffffffffffffffffffffffffffffffffff168373ffffffffffffffffffffffffffffffffffffffff161415611ee6576040517f08c379a0000000000000000000000000000000000000000000000000000000008152600401611edd90613394565b60405180910390fd5b6000611ef0611910565b9050611f2081856000611f02876120b2565b611f0b876120b2565b60405180602001604052806000815250611ac4565b600080600085815260200190815260200160002060008673ffffffffffffffffffffffffffffffffffffffff1673ffffffffffffffffffffffffffffffffffffffff16815260200190815260200160002054905082811015611fb7576040517f08c379a0000000000000000000000000000000000000000000000000000000008152600401611fae90613294565b60405180910390fd5b8281611fc3919061367e565b60008086815260200190815260200160002060008773ffffffffffffffffffffffffffffffffffffffff1673ffffffffffffffffffffffffffffffffffffffff16815260200190815260200160002081905550600073ffffffffffffffffffffffffffffffffffffffff168573ffffffffffffffffffffffffffffffffffffffff168373ffffffffffffffffffffffffffffffffffffffff167fc3d58168c5ae7397731d063d5bbf3d657854427343f4c083240f7aacaa2d0f62878760405161208d9291906134af565b60405180910390a45050505050565b600081836120aa919061367e565b905092915050565b60606000600167ffffffffffffffff8111156120f7577f4e487b7100000000000000000000000000000000000000000000000000000000600052604160045260246000fd5b6040519080825280602002602001820160405280156121255781602001602082028036833780820191505090505b5090508281600081518110612163577f4e487b7100000000000000000000000000000000000000000000000000000000600052603260045260246000fd5b60200260200101818152505080915050919050565b6121978473ffffffffffffffffffffffffffffffffffffffff16612441565b15612357578373ffffffffffffffffffffffffffffffffffffffff1663f23a6e6187878686866040518663ffffffff1660e01b81526004016121dd9594939291906130c4565b602060405180830381600087803b1580156121f757600080fd5b505af192505050801561222857506040513d601f19601f820116820180604052508101906122259190612b26565b60015b6122ce576122346138ab565b806308c379a014156122915750612249613e7f565b806122545750612293565b806040517f08c379a000000000000000000000000000000000000000000000000000000000815260040161228891906131ad565b60405180910390fd5b505b6040517f08c379a00000000000000000000000000000000000000000000000000000000081526004016122c590613214565b60405180910390fd5b63f23a6e6160e01b7bffffffffffffffffffffffffffffffffffffffffffffffffffffffff1916817bffffffffffffffffffffffffffffffffffffffffffffffffffffffff191614612355576040517f08c379a000000000000000000000000000000000000000000000000000000000815260040161234c90613234565b60405180910390fd5b505b505050505050565b60007fd9b67a26000000000000000000000000000000000000000000000000000000007bffffffffffffffffffffffffffffffffffffffffffffffffffffffff1916827bffffffffffffffffffffffffffffffffffffffffffffffffffffffff1916148061242a57507f0e89341c000000000000000000000000000000000000000000000000000000007bffffffffffffffffffffffffffffffffffffffffffffffffffffffff1916827bffffffffffffffffffffffffffffffffffffffffffffffffffffffff1916145b8061243a575061243982612454565b5b9050919050565b600080823b905060008111915050919050565b60007f01ffc9a7000000000000000000000000000000000000000000000000000000007bffffffffffffffffffffffffffffffffffffffffffffffffffffffff1916827bffffffffffffffffffffffffffffffffffffffffffffffffffffffff1916149050919050565b8280546124ca90613772565b90600052602060002090601f0160209004810192826124ec5760008555612533565b82601f1061250557805160ff1916838001178555612533565b82800160010185558215612533579182015b82811115612532578251825591602001919060010190612517565b5b5090506125409190612544565b5090565b5b8082111561255d576000816000905550600101612545565b5090565b600061257461256f846134fd565b6134d8565b9050808382526020820190508285602086028201111561259357600080fd5b60005b858110156125c357816125a988826126b5565b845260208401935060208301925050600181019050612596565b5050509392505050565b60006125e06125db84613529565b6134d8565b905080838252602082019050828560208602820111156125ff57600080fd5b60005b8581101561262f578161261588826127c6565b845260208401935060208301925050600181019050612602565b5050509392505050565b600061264c61264784613555565b6134d8565b90508281526020810184848401111561266457600080fd5b61266f848285613730565b509392505050565b600061268a61268584613586565b6134d8565b9050828152602081018484840111156126a257600080fd5b6126ad848285613730565b509392505050565b6000813590506126c481613f15565b92915050565b600082601f8301126126db57600080fd5b81356126eb848260208601612561565b91505092915050565b600082601f83011261270557600080fd5b81356127158482602086016125cd565b91505092915050565b60008135905061272d81613f2c565b92915050565b60008135905061274281613f43565b92915050565b60008135905061275781613f5a565b92915050565b60008151905061276c81613f5a565b92915050565b600082601f83011261278357600080fd5b8135612793848260208601612639565b91505092915050565b600082601f8301126127ad57600080fd5b81356127bd848260208601612677565b91505092915050565b6000813590506127d581613f71565b92915050565b600080604083850312156127ee57600080fd5b60006127fc858286016126b5565b925050602061280d858286016126b5565b9150509250929050565b600080600080600060a0868803121561282f57600080fd5b600061283d888289016126b5565b955050602061284e888289016126b5565b945050604086013567ffffffffffffffff81111561286b57600080fd5b612877888289016126f4565b935050606086013567ffffffffffffffff81111561289457600080fd5b6128a0888289016126f4565b925050608086013567ffffffffffffffff8111156128bd57600080fd5b6128c988828901612772565b9150509295509295909350565b600080600080600060a086880312156128ee57600080fd5b60006128fc888289016126b5565b955050602061290d888289016126b5565b945050604061291e888289016127c6565b935050606061292f888289016127c6565b925050608086013567ffffffffffffffff81111561294c57600080fd5b61295888828901612772565b9150509295509295909350565b6000806040838503121561297857600080fd5b6000612986858286016126b5565b92505060206129978582860161271e565b9150509250929050565b600080604083850312156129b457600080fd5b60006129c2858286016126b5565b92505060206129d3858286016127c6565b9150509250929050565b6000806000606084860312156129f257600080fd5b6000612a00868287016126b5565b9350506020612a11868287016127c6565b9250506040612a22868287016127c6565b9150509250925092565b60008060408385031215612a3f57600080fd5b600083013567ffffffffffffffff811115612a5957600080fd5b612a65858286016126ca565b925050602083013567ffffffffffffffff811115612a8257600080fd5b612a8e858286016126f4565b9150509250929050565b600060208284031215612aaa57600080fd5b6000612ab884828501612733565b91505092915050565b60008060408385031215612ad457600080fd5b6000612ae285828601612733565b9250506020612af3858286016126b5565b9150509250929050565b600060208284031215612b0f57600080fd5b6000612b1d84828501612748565b91505092915050565b600060208284031215612b3857600080fd5b6000612b468482850161275d565b91505092915050565b60008060008060008060c08789031215612b6857600080fd5b600087013567ffffffffffffffff811115612b8257600080fd5b612b8e89828a0161279c565b965050602087013567ffffffffffffffff811115612bab57600080fd5b612bb789828a0161279c565b9550506040612bc889828a016127c6565b9450506060612bd989828a016126b5565b9350506080612bea89828a016127c6565b92505060a0612bfb89828a016127c6565b9150509295509295509295565b600060208284031215612c1a57600080fd5b6000612c28848285016127c6565b91505092915050565b60008060408385031215612c4457600080fd5b6000612c52858286016127c6565b9250506020612c63858286016127c6565b9150509250929050565b6000612c79838361303e565b60208301905092915050565b612c8e816136b2565b82525050565b6000612c9f826135c7565b612ca981856135f5565b9350612cb4836135b7565b8060005b83811015612ce5578151612ccc8882612c6d565b9750612cd7836135e8565b925050600181019050612cb8565b5085935050505092915050565b612cfb816136c4565b82525050565b612d0a816136d0565b82525050565b6000612d1b826135d2565b612d258185613606565b9350612d3581856020860161373f565b612d3e816138cd565b840191505092915050565b6000612d54826135dd565b612d5e8185613617565b9350612d6e81856020860161373f565b612d77816138cd565b840191505092915050565b6000612d8f603483613617565b9150612d9a826138eb565b604082019050919050565b6000612db2602883613617565b9150612dbd8261393a565b604082019050919050565b6000612dd5602f83613617565b9150612de082613989565b604082019050919050565b6000612df8602b83613617565b9150612e03826139d8565b604082019050919050565b6000612e1b602483613617565b9150612e2682613a27565b604082019050919050565b6000612e3e602983613617565b9150612e4982613a76565b604082019050919050565b6000612e61601a83613617565b9150612e6c82613ac5565b602082019050919050565b6000612e84603083613617565b9150612e8f82613aee565b604082019050919050565b6000612ea7601583613617565b9150612eb282613b3d565b602082019050919050565b6000612eca602583613617565b9150612ed582613b66565b604082019050919050565b6000612eed603283613617565b9150612ef882613bb5565b604082019050919050565b6000612f10601683613617565b9150612f1b82613c04565b602082019050919050565b6000612f33602383613617565b9150612f3e82613c2d565b604082019050919050565b6000612f56601b83613617565b9150612f6182613c7c565b602082019050919050565b6000612f79602a83613617565b9150612f8482613ca5565b604082019050919050565b6000612f9c602983613617565b9150612fa782613cf4565b604082019050919050565b6000612fbf602983613617565b9150612fca82613d43565b604082019050919050565b6000612fe2602883613617565b9150612fed82613d92565b604082019050919050565b6000613005602183613617565b915061301082613de1565b604082019050919050565b6000613028602f83613617565b915061303382613e30565b604082019050919050565b61304781613726565b82525050565b61305681613726565b82525050565b600060a0820190506130716000830188612c85565b61307e6020830187612c85565b81810360408301526130908186612c94565b905081810360608301526130a48185612c94565b905081810360808301526130b88184612d10565b90509695505050505050565b600060a0820190506130d96000830188612c85565b6130e66020830187612c85565b6130f3604083018661304d565b613100606083018561304d565b81810360808301526131128184612d10565b90509695505050505050565b600060208201905081810360008301526131388184612c94565b905092915050565b6000604082019050818103600083015261315a8185612c94565b9050818103602083015261316e8184612c94565b90509392505050565b600060208201905061318c6000830184612cf2565b92915050565b60006020820190506131a76000830184612d01565b92915050565b600060208201905081810360008301526131c78184612d49565b905092915050565b600060608201905081810360008301526131e98186612d49565b905081810360208301526131fd8185612d49565b905061320c604083018461304d565b949350505050565b6000602082019050818103600083015261322d81612d82565b9050919050565b6000602082019050818103600083015261324d81612da5565b9050919050565b6000602082019050818103600083015261326d81612dc8565b9050919050565b6000602082019050818103600083015261328d81612deb565b9050919050565b600060208201905081810360008301526132ad81612e0e565b9050919050565b600060208201905081810360008301526132cd81612e31565b9050919050565b600060208201905081810360008301526132ed81612e54565b9050919050565b6000602082019050818103600083015261330d81612e77565b9050919050565b6000602082019050818103600083015261332d81612e9a565b9050919050565b6000602082019050818103600083015261334d81612ebd565b9050919050565b6000602082019050818103600083015261336d81612ee0565b9050919050565b6000602082019050818103600083015261338d81612f03565b9050919050565b600060208201905081810360008301526133ad81612f26565b9050919050565b600060208201905081810360008301526133cd81612f49565b9050919050565b600060208201905081810360008301526133ed81612f6c565b9050919050565b6000602082019050818103600083015261340d81612f8f565b9050919050565b6000602082019050818103600083015261342d81612fb2565b9050919050565b6000602082019050818103600083015261344d81612fd5565b9050919050565b6000602082019050818103600083015261346d81612ff8565b9050919050565b6000602082019050818103600083015261348d8161301b565b9050919050565b60006020820190506134a9600083018461304d565b92915050565b60006040820190506134c4600083018561304d565b6134d1602083018461304d565b9392505050565b60006134e26134f3565b90506134ee82826137a4565b919050565b6000604051905090565b600067ffffffffffffffff8211156135185761351761387c565b5b602082029050602081019050919050565b600067ffffffffffffffff8211156135445761354361387c565b5b602082029050602081019050919050565b600067ffffffffffffffff8211156135705761356f61387c565b5b613579826138cd565b9050602081019050919050565b600067ffffffffffffffff8211156135a1576135a061387c565b5b6135aa826138cd565b9050602081019050919050565b6000819050602082019050919050565b600081519050919050565b600081519050919050565b600081519050919050565b6000602082019050919050565b600082825260208201905092915050565b600082825260208201905092915050565b600082825260208201905092915050565b600061363382613726565b915061363e83613726565b9250827fffffffffffffffffffffffffffffffffffffffffffffffffffffffffffffffff038211156136735761367261381e565b5b828201905092915050565b600061368982613726565b915061369483613726565b9250828210156136a7576136a661381e565b5b828203905092915050565b60006136bd82613706565b9050919050565b60008115159050919050565b6000819050919050565b60007fffffffff0000000000000000000000000000000000000000000000000000000082169050919050565b600073ffffffffffffffffffffffffffffffffffffffff82169050919050565b6000819050919050565b82818337600083830152505050565b60005b8381101561375d578082015181840152602081019050613742565b8381111561376c576000848401525b50505050565b6000600282049050600182168061378a57607f821691505b6020821081141561379e5761379d61384d565b5b50919050565b6137ad826138cd565b810181811067ffffffffffffffff821117156137cc576137cb61387c565b5b80604052505050565b60006137e082613726565b91507fffffffffffffffffffffffffffffffffffffffffffffffffffffffffffffffff8214156138135761381261381e565b5b600182019050919050565b7f4e487b7100000000000000000000000000000000000000000000000000000000600052601160045260246000fd5b7f4e487b7100000000000000000000000000000000000000000000000000000000600052602260045260246000fd5b7f4e487b7100000000000000000000000000000000000000000000000000000000600052604160045260246000fd5b600060033d11156138ca5760046000803e6138c76000516138de565b90505b90565b6000601f19601f8301169050919050565b60008160e01c9050919050565b7f455243313135353a207472616e7366657220746f206e6f6e204552433131353560008201527f526563656976657220696d706c656d656e746572000000000000000000000000602082015250565b7f455243313135353a204552433131353552656365697665722072656a6563746560008201527f6420746f6b656e73000000000000000000000000000000000000000000000000602082015250565b7f416363657373436f6e74726f6c3a2073656e646572206d75737420626520616e60008201527f2061646d696e20746f206772616e740000000000000000000000000000000000602082015250565b7f455243313135353a2062616c616e636520717565727920666f7220746865207a60008201527f65726f2061646472657373000000000000000000000000000000000000000000602082015250565b7f455243313135353a206275726e20616d6f756e7420657863656564732062616c60008201527f616e636500000000000000000000000000000000000000000000000000000000602082015250565b7f455243313135353a2063616c6c6572206973206e6f74206f776e6572206e6f7260008201527f20617070726f7665640000000000000000000000000000000000000000000000602082015250565b7f496e697469616c20737570706c79206c657373207468616e2031000000000000600082015250565b7f416363657373436f6e74726f6c3a2073656e646572206d75737420626520616e60008201527f2061646d696e20746f207265766f6b6500000000000000000000000000000000602082015250565b7f546f74616c20737570706c7920726561636865642e0000000000000000000000600082015250565b7f455243313135353a207472616e7366657220746f20746865207a65726f20616460008201527f6472657373000000000000000000000000000000000000000000000000000000602082015250565b7f455243313135353a207472616e736665722063616c6c6572206973206e6f742060008201527f6f776e6572206e6f7220617070726f7665640000000000000000000000000000602082015250565b7f43616c6c6572206973206e6f742061206d696e74657200000000000000000000600082015250565b7f455243313135353a206275726e2066726f6d20746865207a65726f206164647260008201527f6573730000000000000000000000000000000000000000000000000000000000602082015250565b7f4d6178696d756d20737570706c792063616e206e6f7420626520300000000000600082015250565b7f455243313135353a20696e73756666696369656e742062616c616e636520666f60008201527f72207472616e7366657200000000000000000000000000000000000000000000602082015250565b7f455243313135353a2073657474696e6720617070726f76616c2073746174757360008201527f20666f722073656c660000000000000000000000000000000000000000000000602082015250565b7f455243313135353a206163636f756e747320616e6420696473206c656e67746860008201527f206d69736d617463680000000000000000000000000000000000000000000000602082015250565b7f455243313135353a2069647320616e6420616d6f756e7473206c656e6774682060008201527f6d69736d61746368000000000000000000000000000000000000000000000000602082015250565b7f455243313135353a206d696e7420746f20746865207a65726f2061646472657360008201527f7300000000000000000000000000000000000000000000000000000000000000602082015250565b7f416363657373436f6e74726f6c3a2063616e206f6e6c792072656e6f756e636560008201527f20726f6c657320666f722073656c660000000000000000000000000000000000602082015250565b600060443d1015613e8f57613f12565b613e976134f3565b60043d036004823e80513d602482011167ffffffffffffffff82111715613ebf575050613f12565b808201805167ffffffffffffffff811115613edd5750505050613f12565b80602083010160043d038501811115613efa575050505050613f12565b613f09826020018501866137a4565b82955050505050505b90565b613f1e816136b2565b8114613f2957600080fd5b50565b613f35816136c4565b8114613f4057600080fd5b50565b613f4c816136d0565b8114613f5757600080fd5b50565b613f63816136da565b8114613f6e57600080fd5b50565b613f7a81613726565b8114613f8557600080fd5b5056fea2646970667358221220b285cd5c2328e47e11f6f1d7ce07d236b69fead7c24746a82430e4471e9c1e2c64736f6c6343000803003368747470733a2f2f7777772e74726f747465722e66696e616e63652f6170692f4e4654732f",
  "immutableReferences": {},
  "source": "// SPDX-License-Identifier: MIT\npragma solidity >=0.6.12;\n\nimport \"@openzeppelin/contracts/token/ERC1155/ERC1155.sol\";\nimport \"@openzeppelin/contracts/access/AccessControl.sol\";\nimport \"@openzeppelin/contracts/utils/math/SafeMath.sol\";\n\ncontract TrotterNft is ERC1155, AccessControl {\n    using SafeMath for uint256;\n\n    bytes32 public constant MINTER_ROLE = keccak256(\"MINTER_ROLE\");\n\n    constructor() ERC1155(\"https://www.trotter.finance/api/NFTs/\") {\n        _setupRole(MINTER_ROLE, _msgSender());\n    }\n\n    struct nftMetadata {\n        string name;\n        string ipfsHash;\n        uint256 price;\n    }\n\n    uint256 public cards;\n    nftMetadata[] public nfts;\n    mapping(uint256 => uint256) public totalSupply;\n    mapping(uint256 => uint256) public circulatingSupply;\n\n    event CardAdded(uint256 id, uint256 maxSupply);\n\n    /**\n     * @dev Get contract URL\n     */\n    function contractURI() public view returns (string memory) {\n        return string(uri(0));\n    }\n\n    /**\n     * @notice Creates nft card and mints a new NFT for first time.\n     *\n     * @param name Name of new NFT.\n     * @param ipfsHash ipfs hash of nft image the new minted NFT.\n     * @param price price to sell the nft.\n     * @param newOwner Address to mint NFT to.\n     * @param maxSupply The max supply of NFT mintable.\n     * @param initialSupply The amount of NFT to mint initially.\n     */\n    function createNftCard(\n        string memory name,\n        string memory ipfsHash,\n        uint256 price,\n        address newOwner,\n        uint256 maxSupply,\n        uint256 initialSupply\n    ) public returns (uint256) {\n        require(initialSupply > 0, \"Initial supply less than 1\");\n\n        nftMetadata memory newNft = nftMetadata({name: name, ipfsHash: ipfsHash, price: price});\n\n        uint256 nftId = addCard(maxSupply);\n        nfts.push(newNft);\n        mint(newOwner, nftId, initialSupply);\n\n        return nftId;\n    }\n\n    /**\n     * @notice Creates a new card for unique `NFT`.\n     *\n     * This signifies each unique NFT,\n     *\n     * Each NFT can appear more than once, this is where to declare it before minting a copy.\n     *\n     * The less amount an NFT can be minted determines the value,\n     * Low amount of an NFT in circulation makes it rare and more expensive.\n     *\n     * @param maxSupply The max supply of the NFTs on this card.\n     */\n    function addCard(uint256 maxSupply) public returns (uint256) {\n        require(hasRole(MINTER_ROLE, _msgSender()), \"Caller is not a minter\");\n        require(maxSupply > 0, \"Maximum supply can not be 0\");\n        cards = cards.add(1);\n        totalSupply[cards] = maxSupply;\n        emit CardAdded(cards, maxSupply);\n        return cards;\n    }\n\n    /**\n     * @notice Mints a new NFT to an NFT card.\n     *\n     * @param to Address to receive the new minted NFT.\n     * @param id The card id to mint NFT from.\n     * @param amount The amount of NFT to mint on this card.\n     */\n    function mint(\n        address to,\n        uint256 id,\n        uint256 amount\n    ) public {\n        require(hasRole(MINTER_ROLE, _msgSender()), \"Caller is not a minter\");\n        require(\n            circulatingSupply[id].add(amount) <= totalSupply[id],\n            \"Total supply reached.\"\n        );\n\n        _mint(to, id, amount, \"\");\n        circulatingSupply[id] = circulatingSupply[id].add(amount);\n    }\n\n    /**\n     * @notice Burn an NFT from NFT card.\n     *\n     * @param id The card id to burn NFT from.\n     * @param amount The amount of NFT to burn from this card.\n     */\n    function burn(uint256 id, uint256 amount) public {\n        _burn(_msgSender(), id, amount);\n        circulatingSupply[id] = circulatingSupply[id].sub(amount);\n    }\n\n    /**\n     * @dev ERC1155 and AccessControl include supportsInterface so we need to override both\n     */\n    function supportsInterface(bytes4 interfaceId)\n        public\n        view\n        virtual\n        override(ERC1155, AccessControl)\n        returns (bool)\n    {\n        return super.supportsInterface(interfaceId);\n    }\n}\n",
  "sourcePath": "/Users/Chris/Coding/Blockchain/trotter-market/contracts/TrotterNft.sol",
  "compiler": {
    "name": "solc",
    "version": "0.8.3+commit.8d00100c.Emscripten.clang"
  },
  "schemaVersion": "3.3.4",
  "updatedAt": "2021-04-05T17:58:24.324Z",
  "networkType": "ethereum",
  "devdoc": {
    "kind": "dev",
    "methods": {
      "addCard(uint256)": {
        "params": {
          "maxSupply": "The max supply of the NFTs on this card."
        }
      },
      "balanceOf(address,uint256)": {
        "details": "See {IERC1155-balanceOf}. Requirements: - `account` cannot be the zero address."
      },
      "balanceOfBatch(address[],uint256[])": {
        "details": "See {IERC1155-balanceOfBatch}. Requirements: - `accounts` and `ids` must have the same length."
      },
      "burn(uint256,uint256)": {
        "params": {
          "amount": "The amount of NFT to burn from this card.",
          "id": "The card id to burn NFT from."
        }
      },
      "contractURI()": {
        "details": "Get contract URL"
      },
      "createNftCard(string,string,uint256,address,uint256,uint256)": {
        "params": {
          "initialSupply": "The amount of NFT to mint initially.",
          "ipfsHash": "ipfs hash of nft image the new minted NFT.",
          "maxSupply": "The max supply of NFT mintable.",
          "name": "Name of new NFT.",
          "newOwner": "Address to mint NFT to.",
          "price": "price to sell the nft."
        }
      },
      "getRoleAdmin(bytes32)": {
        "details": "Returns the admin role that controls `role`. See {grantRole} and {revokeRole}. To change a role's admin, use {_setRoleAdmin}."
      },
      "grantRole(bytes32,address)": {
        "details": "Grants `role` to `account`. If `account` had not been already granted `role`, emits a {RoleGranted} event. Requirements: - the caller must have ``role``'s admin role."
      },
      "hasRole(bytes32,address)": {
        "details": "Returns `true` if `account` has been granted `role`."
      },
      "isApprovedForAll(address,address)": {
        "details": "See {IERC1155-isApprovedForAll}."
      },
      "mint(address,uint256,uint256)": {
        "params": {
          "amount": "The amount of NFT to mint on this card.",
          "id": "The card id to mint NFT from.",
          "to": "Address to receive the new minted NFT."
        }
      },
      "renounceRole(bytes32,address)": {
        "details": "Revokes `role` from the calling account. Roles are often managed via {grantRole} and {revokeRole}: this function's purpose is to provide a mechanism for accounts to lose their privileges if they are compromised (such as when a trusted device is misplaced). If the calling account had been granted `role`, emits a {RoleRevoked} event. Requirements: - the caller must be `account`."
      },
      "revokeRole(bytes32,address)": {
        "details": "Revokes `role` from `account`. If `account` had been granted `role`, emits a {RoleRevoked} event. Requirements: - the caller must have ``role``'s admin role."
      },
      "safeBatchTransferFrom(address,address,uint256[],uint256[],bytes)": {
        "details": "See {IERC1155-safeBatchTransferFrom}."
      },
      "safeTransferFrom(address,address,uint256,uint256,bytes)": {
        "details": "See {IERC1155-safeTransferFrom}."
      },
      "setApprovalForAll(address,bool)": {
        "details": "See {IERC1155-setApprovalForAll}."
      },
      "supportsInterface(bytes4)": {
        "details": "ERC1155 and AccessControl include supportsInterface so we need to override both"
      },
      "uri(uint256)": {
        "details": "See {IERC1155MetadataURI-uri}. This implementation returns the same URI for *all* token types. It relies on the token type ID substitution mechanism https://eips.ethereum.org/EIPS/eip-1155#metadata[defined in the EIP]. Clients calling this function must replace the `\\{id\\}` substring with the actual token type ID."
      }
    },
    "version": 1
  },
  "userdoc": {
    "kind": "user",
    "methods": {
      "addCard(uint256)": {
        "notice": "Creates a new card for unique `NFT`. This signifies each unique NFT, Each NFT can appear more than once, this is where to declare it before minting a copy. The less amount an NFT can be minted determines the value, Low amount of an NFT in circulation makes it rare and more expensive."
      },
      "burn(uint256,uint256)": {
        "notice": "Burn an NFT from NFT card."
      },
      "createNftCard(string,string,uint256,address,uint256,uint256)": {
        "notice": "Creates nft card and mints a new NFT for first time."
      },
      "mint(address,uint256,uint256)": {
        "notice": "Mints a new NFT to an NFT card."
      }
    },
    "version": 1
  }
}